:020000040800F2
:10000000882D0020857600087D7500087F75000822
:1000100081750008837500088575000800000000E0
:1000200000000000000000000000000087750008CC
:1000300089750008000000008B7500088D750008A8
:10004000C5760008C9760008CD760008D17600088C
:10005000D5760008D9760008DD760008E17600083C
:10006000E5760008E9760008ED760008F1760008EC
:10007000F5760008F9760008FD760008017700089B
:1000800005770008E17500080D7700081177000872
:1000900015770008197700081D77000821770008F8
:1000A00025770008297700082D77000831770008A8
:1000B0009F75000839770008BF7500088F75000824
:1000C00097750008497700084D77000851770008B8
:1000D00055770008597700085D77000861770008B8
:1000E00065770008697700086D7700087177000868
:1000F00075770008797700087D7700088177000818
:1001000085770008897700088D77000891770008C7
:1001100095770008997700089D770008A177000877
:10012000A5770008A9770008AD770008B177000827
:1001300010B50400DFF8E003844243D0B4F1804FEF
:1001400040D0DFF8D80384423CD0DFF8D4038442A7
:1001500038D0DFF8D003844234D0DFF8CC038442B7
:1001600030D0DFF8C80384422CD0DFF8C4038442C7
:1001700028D0DFF8C003844224D0DFF8BC038442D7
:1001800020D0DFF8B80384421CD0DFF8B4038442E7
:1001900018D0DFF8B003844214D0DFF8AC038442F7
:1001A00010D0DFF8A80384420CD0DFF8A403844207
:1001B00008D0DFF83806844204D07C21DFF89403AD
:1001C00001F082F8DFF8500384420AD101214FF494
:1001D000006001F0A9F900214FF4006001F0A4F9DA
:1001E000DDE0B4F1804F08D10121012001F0C5F913
:1001F0000021012001F0C1F9D1E0DFF820038442A1
:1002000008D10121022001F0B8F90021022001F0FB
:10021000B4F9C4E0DFF80803844208D101210420C6
:1002200001F0ABF90021042001F0A7F9B7E0DFF8F5
:10023000F402844208D10121082001F09EF9002136
:10024000082001F09AF9AAE0DFF8DC02844208D124
:100250000121102001F091F90021102001F08DF909
:100260009DE0DFF8C802844208D10121202001F07E
:1002700084F90021202001F080F990E0DFF8B0023D
:1002800084420AD101214FF4005001F04DF90021C0
:100290004FF4005001F048F981E0DFF89802844201
:1002A0000AD101215FF4002001F03EF900215FF442
:1002B000002001F039F972E0DFF87C0284420AD1B3
:1002C00001215FF4801001F02FF900215FF480100C
:1002D00001F02AF963E0DFF8640284420AD10121C7
:1002E0005FF4001001F020F900215FF4001001F02C
:1002F0001BF954E0DFF84802844208D10121402074
:1003000001F03BF90021402001F037F947E0DFF828
:100310003402844208D10121802001F02EF900210D
:10032000802001F02AF93AE0DFF81C0284420AD169
:1003300001214FF4807001F020F900214FF480700A
:1003400001F01BF92BE0DFF8040284420AD10121FD
:100350005FF4803001F0E8F800215FF4803001F0B4
:10036000E3F81CE0DFF8E80184420AD101215FF4E0
:10037000003001F0D9F800215FF4003001F0D4F82A
:100380000DE0DFF86804844209D101215FF4802088
:1003900001F0CAF800215FF4802001F0C5F810BD1B
:1003A00070B504000D000026DFF86C01844243D0D4
:1003B000B4F1804F40D0DFF8640184423CD0DFF8D4
:1003C0006001844238D0DFF85C01844234D0DFF829
:1003D0005801844230D0DFF8540184422CD0DFF839
:1003E0005001844228D0DFF84C01844224D0DFF849
:1003F0004801844220D0DFF8440184421CD0DFF859
:100400004001844218D0DFF83C01844214D0DFF868
:100410003801844210D0DFF8340184420CD0DFF878
:100420003001844208D0DFF8C803844204D0E521BB
:10043000DFF8200100F048FF6888002810D06888A5
:1004400010280DD0688820280AD06888402807D056
:100450006888602804D0E621DFF8F80000F034FF57
:10046000E88800280ED0E8884FF48071884209D0CF
:10047000E8884FF40071884204D0E721DFF8D40007
:1004800000F022FF20880600DFF88C00844212D0A2
:10049000DFF89C0084420ED0B4F1804F0BD0DFF81F
:1004A0007C00844207D0DFF87800844203D0DFF874
:1004B0007400844204D14FF68F700640688806436A
:1004C000DFF86400844208D0DFF86000844204D082
:1004D0004FF6FF400640E88806432680A888A0859E
:1004E00028882085DFF8300084420FD0DFF84000F4
:1004F00084420BD0DFF85400844207D0DFF850006C
:10050000844203D0DFF8E802844201D1287A2086B1
:100510000120A08270BD0000002C014000040040BA
:1005200000080040000C0040001000400014004093
:1005300000340140004C0140005001400054014093
:1005400000180040001C0040002000400040014016
:1005500000440140F810000838B504000D00288858
:1005600000280ED0288804280BD02888082808D016
:1005700028880C2805D04FF41371DFF85C0400F0D4
:10058000A3FEA88801280BD0A888022808D0A88834
:10059000032805D040F24D21DFF83C0400F094FE22
:1005A000E88800280ED0E88804280BD0E8880828BE
:1005B00008D0E8880C2805D040F24E21DFF8180456
:1005C00000F082FE2889102805D340F24F21DFF881
:1005D000080400F079FEDFF8CC03844212D0DFF883
:1005E000C80384420ED0B4F1804F0BD0DFF8BC03B7
:1005F000844207D0DFF8B803844203D0DFF8B403A5
:1006000084420CD16888002818D06888022815D048
:100610004FF41571DFF8C00300F056FE0EE0688855
:1006200000280BD06888022808D068880A2805D0DE
:100630004FF41671DFF8A00300F046FE288800286A
:100640004AD1DFF8600384423BD0B4F1804F38D008
:10065000DFF85803844234D0DFF85403844230D0AA
:10066000DFF8500384422CD0DFF83C03844228D0CA
:10067000DFF84403844224D0DFF84003844220D0D2
:10068000DFF83C0384421CD0DFF83803844218D0E2
:10069000DFF83403844214D0DFF83003844210D0F2
:1006A000DFF82C0384420CD0DFF82803844208D002
:1006B0004E48844205D04FF41771DFF81C0300F058
:1006C00003FE2B89AA886988200000F068FCE9886D
:1006D000200000F063FA88E02888042833D1DFF88E
:1006E000C402844224D0B4F1804F21D0DFF8BC0290
:1006F00084421DD0DFF8B802844219D0DFF8B4027A
:10070000844215D0DFF8A002844211D0DFF8A8029D
:1007100084420DD0DFF8AC02844209D0DFF8B00289
:10072000844205D040F26621DFF8AC0200F0CCFD37
:100730002B89AA886988200000F066FCE9882000DF
:1007400000F08BFA51E02888082827D1DFF85402FE
:10075000844218D0B4F1804F15D0DFF850028442A3
:1007600011D0DFF84C0284420DD0DFF848028442F9
:1007700009D0DFF83402844205D04FF41C71DFF851
:10078000580200F0A1FD2B89AA886988200000F09A
:1007900077FCE988200000F0A8FA26E0DFF80402E0
:1007A000844218D0B4F1804F15D0DFF800028442A3
:1007B00011D0DFF8FC0184420DD0DFF8F80184424B
:1007C00009D0DFF8E401844205D040F27A21DFF855
:1007D000080200F079FD2B89AA886988200000F0C2
:1007E000BBFCE988200000F0B7FA31BD00480140A9
:1007F0000048014038B504000D00DFF8A80184422C
:1008000044D0B4F1804F41D0DFF8A00184423DD004
:10081000DFF89C01844239D0DFF89801844235D05A
:10082000DFF86C02844231D0DFF8680284422DD0B8
:10083000DFF87401844229D0DFF87C01844225D09E
:10084000DFF87801844221D0DFF8740184421DD0A2
:10085000DFF87001844219D0DFF86C01844215D0B2
:10086000DFF86801844211D0DFF8640184420DD0C2
:10087000DFF86001844209D0DFF81C02844205D011
:1008800040F22731DFF8500100F01EFDEDB2002DDF
:1008900008D0EDB2012D05D04FF44A71DFF83801D0
:1008A00000F012FDEDB2002D04D0208850F00100C0
:1008B000208004E020884FF6FE710840208031BD82
:1008C00070B504000D001600DFF8D800844244D053
:1008D000B4F1804F41D0DFF8D40084423DD0DFF83E
:1008E000D000844239D0DFF8CC00844235D0DFF824
:1008F000A001844231D0DFF89C0184422DD0DFF882
:10090000A800844229D0DFF8B000844225D0DFF867
:10091000AC00844221D0DFF8A80084421DD0DFF86B
:10092000A400844219D0DFF8A000844215D0DFF87B
:100930009C00844211D0DFF8980084420DD0DFF88B
:100940009400844209D0DFF85001844205D040F27F
:100950006931DFF8840000F0B7FC4FF47F400542B6
:1009600002D1ADB2002D05D140F26A31DFF8680046
:1009700000F0AAFCF6B2002E08D0F6B2012E05D087
:1009800040F26B31DFF8500000F09EFCF6B2002E12
:1009900003D0A0892843A08102E0A089A843A081B8
:1009A00070BD0000002C01400034014000040040F4
:1009B00000080040000C0040004C01400050014085
:1009C0000054014000180040001C0040002000407E
:1009D0000040014000440140F810000870B50400D8
:1009E0000D001600DFF87001844241D0B4F1804F51
:1009F0003ED0DFF8680184423AD0DFF864018442D7
:100A000036D0DFF86001844232D0214884422FD0B2
:100A1000204884422CD0DFF85001844228D0DFF8EF
:100A20004C01844224D0DFF85001844220D0DFF80A
:100A30004C0184421CD0DFF83801844218D0DFF822
:100A40004001844214D0DFF83C01844210D0DFF82A
:100A5000240184420CD0DFF83001844208D00E48D3
:100A6000844205D040F29941DFF8200100F02CFCCF
:100A7000B6B2002E08D0B6B2012E05D040F29A418F
:100A8000DFF8080100F020FC2585A68270BD00007B
:100A900000100040001400400048014038B5040038
:100AA0000D002D4884423DD0B4F1804F3AD02B4800
:100AB000844237D02A48844234D02A48844231D0F4
:100AC000DFF8D00084422DD0DFF8CC00844229D05A
:100AD0002548844226D02548844223D0DFF8980058
:100AE00084421FD0DFF8940084421BD02048844207
:100AF00018D0DFF88C00844214D0DFF888008442DC
:100B000010D01C4884420DD0DFF87C00844209D00C
:100B1000DFF87C00844205D040F28251DFF86C009F
:100B200000F0D2FBEDB2002D08D0EDB2012D05D0C2
:100B300040F28351DFF8540000F0C6FBEDB2002D07
:100B400004D0208850F08000208004E020884FF6F8
:100B50007F710840208031BD002C0140000400401E
:100B600000080040000C004000340140004C0140EF
:100B70000018004000400140005001400054014076
:100B8000001C00400020004000440140F810000814
:100B900000480140001000400014004038B5040037
:100BA0000D00DFF8240284423CD0B4F1804F39D0EC
:100BB000DFF81802844235D0DFF81402844231D0C5
:100BC000DFF8100284422DD0DFF80C02844229D0D5
:100BD000DFF80C02844225D0DFF81002844221D0D5
:100BE000DFF80C0284421DD0DFF8F801844219D0EE
:100BF000DFF80002844215D0DFF8FC01844211D0F6
:100C0000DFF8E40184420DD0DFF8F001844209D01E
:100C1000DFF8C801844205D040F63211DFF85C04E9
:100C200000F052FBADB2002D0ED0ADB2042D0BD0B2
:100C3000ADB2082D08D0ADB20C2D05D040F6331161
:100C4000DFF8380400F040FB208B4FF6F3710840CA
:100C50002083208B2843208331BD38B504000D004C
:100C6000DFF86401844224D0B4F1804F21D0DFF852
:100C70005C0184421DD0DFF85801844219D0DFF8AE
:100C80005401844215D0DFF85001844211D0DFF8BE
:100C9000500184420DD0DFF84C01844209D0DFF8C6
:100CA0004801844205D040F64811DFF8D00300F037
:100CB0000BFBADB2002D0ED0ADB2042D0BD0ADB2FA
:100CC000082D08D0ADB20C2D05D040F64911DFF843
:100CD000AC0300F0F9FA208B4FF2FF31084020837B
:100CE000208B50EA0520208331BD38B504000D006B
:100CF0003548844215D0B4F1804F12D03348844235
:100D00000FD0334884420CD03248844209D0DFF8F7
:100D1000C800844205D040F65E11DFF8600300F0A1
:100D2000D3FAADB2002D0ED0ADB2042D0BD0ADB2C2
:100D3000082D08D0ADB20C2D05D040F65F11DFF8BC
:100D40003C0300F0C1FAA08B4FF6F3710840A0837A
:100D5000A08B2843A08331BD38B504000D001A488C
:100D6000844214D0B4F1804F11D0184884420ED080
:100D7000174884420BD01748844208D01648844252
:100D800005D040F67411DFF8F40200F09DFAADB220
:100D9000002D0ED0ADB2042D0BD0ADB2082D08D071
:100DA000ADB20C2D05D040F67511DFF8D00200F081
:100DB0008BFAA08B4FF2FF310840A083A08B50EA42
:100DC0000520A08331BD0000002C0140000400403C
:100DD00000080040000C0040003401400048014081
:100DE000004C01400018004000400140005001400C
:100DF00000540140001C004000200040004401401D
:100E00002DE9F04104000D00002600275FF00008E6
:100E1000DFF8B803844243D0B4F1804F40D0DFF80C
:100E2000B00384423CD0DFF8AC03844238D0DFF812
:100E3000A803844234D0DFF8A403844230D0DFF822
:100E4000A00384422CD0DFF89C03844228D0DFF832
:100E50009C03844224D0DFF8A003844220D0DFF832
:100E60009C0384421CD0DFF88803844218D0DFF84A
:100E70009003844214D0DFF88C03844210D0DFF852
:100E8000740384420CD0DFF88003844208D0DFF87A
:100E90005803844204D040F64B21784800F014FAFD
:100EA000ADB2012D19D0ADB2022D16D0ADB2042DC8
:100EB00013D0ADB2082D10D0ADB2102D0DD0ADB203
:100EC000202D0AD0ADB2402D07D0ADB2802D04D078
:100ED00040F64C21694800F0F7F9208A28400700C5
:100EE000A08928408046BFB2002F07D01FFA88F89B
:100EF000B8F1000F02D00120060001E0002006003A
:100F00003000C0B2BDE8F08138B504000D00AF4834
:100F1000844234D0B4F1804F31D0AD4884422ED0D9
:100F2000AC4884422BD0AC48844228D0AB488442A1
:100F300025D0AB48844222D0AA4884421FD0AB4877
:100F400084421CD0AC48844219D0AC48844216D0AC
:100F5000A748844213D0AA48844210D0A9488442AA
:100F60000DD0A44884420AD0A748844207D09E48A6
:100F7000844204D040F67521404800F0A5F94FF4B2
:100F80007F40054202D1ADB2002D04D140F676215A
:100F90003A4800F099F9ADB2E843208231BDF0B48F
:100FA00000250024068C4FF6FE773E400684068B13
:100FB0003500068C34004FF60C76354052EA0316A5
:100FC0003543824EB0420ED0864EB0420BD0B0F1C7
:100FD000804F08D07E4EB04205D07E4EB04202D047
:100FE0007D4EB04206D14FF6FD76344051F00106F9
:100FF000344305E04FF6F576344051F001063443B2
:1010000005830484F0BC7047F0B40026002400255A
:10101000078C4FF6EF7C1CEA07070784078B3E001E
:10102000078C3C000F013D0040F6FF473E4056EA6A
:10103000033656EA0226654FB8420ED0694FB842D1
:101040000BD0B0F1804F08D0614FB84205D0614F4E
:10105000B84202D0604FB84206D14FF6DF773C402D
:1010600055F010073C4305E04FF65F773C4051F0E8
:1010700010073C4306830484F0BC7047F810000856
:10108000F0B4002600240025078C4FF6FF6C1CEA04
:1010900007070784878B3E00078C3C000F023D004A
:1010A0004FF60C773E4052EA03173E43474FB84293
:1010B0000ED04C4FB8420BD0B0F1804F08D0444F07
:1010C000B84205D0434FB84202D0434FB84207D18F
:1010D0004FF6FF573C404FF480772F433C4306E0E8
:1010E0004FF2FF573C404FF480770F433C438683D9
:1010F0000484F0BC70470000453A5C79756E5CB0C2
:10110000D9B6C8D4C65C6769746875625C7770616B
:101110003930302D61695C41495F746573742856BC
:10112000312E31B0E6295C53544D3332463130789C
:101130005F5374645065726970685F447269766564
:10114000725C7372635C73746D3332663130785FD6
:1011500074696D2E63000000F0B4002600240025A1
:10116000078C4EF6FF7C1CEA07070784878B3E003E
:10117000078C3C000F033D0040F6FF473E4056EA17
:10118000022656EA0336114FB8420ED0154FB84228
:101190000BD0B0F1804F08D00D4FB84205D00D4FA5
:1011A000B84202D00C4FB84206D14DF6FF773C4012
:1011B00055F480573C4305E047F6FF573C4051F457
:1011C00080573C4386830484F0BC7047002C014068
:1011D0000004004000080040000C004000100040E7
:1011E000001400400034014000480140004C014020
:1011F00000180040004001400050014000540140F0
:10120000001C0040002000400044014080B500F078
:1012100027FA00F011FC00F023FC01224FF40071CA
:10122000234800F0E4FE01224FF48071204800F0D2
:10123000DEFE01224FF400411E4800F0D8FE00F00F
:10124000EAFA00F098FC00F04DFD00F01BFD00F004
:1012500047FC00F054FD01F0F3F8174800683F2800
:1012600022D1164801F03CFC144801F01DFF134840
:1012700001F0CAFE1149124801F0B0FF02F098FADD
:1012800010480078411C0F4A1170C00706D5002293
:101290004FF48071064800F0AAFE05E001224FF4E9
:1012A0008071034800F0A3FE02F04EFAD5E700007B
:1012B00000140140000C01407029002000000020B3
:1012C0007827002087290020FEE750F8041B61B131
:1012D00050F8042BD30744BFA9F101039A18002347
:1012E00042F8043B091FFAD1EFE7704738B5040014
:1012F0000025002C0ED0B4F5804F0BD0B4F5004F74
:1013000008D0B4F5404F05D040F201310FF2F02083
:10131000FFF7DAFFDFF8B4020068050035F4404556
:101320002543DFF8A802056031BD30B4002100225A
:1013300000230024DFF894522D6815F00C052900D5
:101340000D00002D04D0042D06D0082D08D02EE06D
:10135000DFF87C5205602DE0DFF87452056029E06B
:10136000DFF868522D6815F470152A00DFF85C521A
:101370002D6815F480352B00920C921C002B05D1A2
:10138000DFF8505205FB02F505600FE0DFF83C5234
:101390002D68AD0305D5DFF83C5205FB02F505606D
:1013A00004E0DFF82C5205FB02F5056002E0DFF8EF
:1013B00020520560DFF814522D6815F0F005290061
:1013C0000909DFF814524D5D2C000568E5404560C1
:1013D000DFF8F8512D6815F4E0652900090ADFF8F7
:1013E000F8514D5D2C004568E5408560DFF8DC5123
:1013F0002D6815F460552900C90ADFF8DC514D5DF0
:101400002C004568E540C560DFF8C0512D6815F433
:1014100040452900890BDFF8C4514D5D2C00C5689B
:10142000B5FBF4F5056130BC704738B504000D001C
:10143000DFF8AC01044201D1002C05D140F22A4171
:101440000FF2BC10FFF740FFEDB2002D08D0EDB257
:10145000012D05D040F22B410FF2A410FFF734FF0D
:10146000EDB2002D07D0DFF87C0100682043DFF8E3
:101470007411086005E0DFF86C010068A043594969
:10148000086031BD38B504000D005748044201D151
:10149000002C05D140F249410FF26410FFF714FF10
:1014A000EDB2002D08D0EDB2012D05D040F24A4139
:1014B0000FF24C10FFF708FFEDB2002D05D04B489E
:1014C000006820434949086004E048480068A04398
:1014D0004649086031BD38B504000D004448044257
:1014E00001D1002C05D14FF48D610FF21410FFF7DC
:1014F000EBFEEDB2002D08D0EDB2012D05D040F28B
:1015000069410FF2FC00FFF7DFFEEDB2002D05D0C0
:101510003848006820433749086004E035480068CF
:10152000A0433449086031BD38B504000D002E4891
:10153000044201D1002C05D140F2A3410FF2C000BA
:10154000FFF7C2FEEDB2002D08D0EDB2012D05D09F
:1015500040F2A4410FF2A800FFF7B6FEEDB2002D55
:1015600005D02548006820432349086004E022484C
:101570000068A0432049086031BD38B504000D0063
:101580001B48044201D1002C05D140F2C2410FF2A8
:101590007000FFF799FEEDB2002D08D0EDB2012DDD
:1015A00005D040F2C3410FF25800FFF78DFEEDB2B7
:1015B000002D05D01148006820431049086004E060
:1015C0000E480068A0430D49086031BD0410024078
:1015D00000127A0000093D00DC1F0020F01F0020EF
:1015E000A8FAFFFF141002400200C0FF18100240CA
:1015F000003601811C1002400C1002401010024005
:10160000453A5C79756E5CB0D9B6C8D4C65C67697A
:10161000746875625C7770613930302D61695C4146
:10162000495F746573742856312E31B0E6295C53D6
:10163000544D3332463130785F537464506572696B
:1016400070685F4472697665725C7372635C737410
:101650006D3332663130785F7263632E6300000051
:1016600080B54E48006850F001004C4908604C4875
:1016700000684C4908404A490860484800684A499F
:101680000840464908604548006830F480204349D6
:1016900008604348006830F4FE0041490860434850
:1016A0005FF41F01016000F005F841485FF0006140
:1016B000016001BD80B500F001F801BD82B00020DD
:1016C0000190002000903548006850F48030334984
:1016D00008603248006810F4003000900198401C07
:1016E00001900098002803D10198B0F5A06FF0D1C7
:1016F0002A480068800302D50120009001E0002004
:1017000000900098012847D12A48006850F0100046
:10171000284908602748006880088000254908603B
:101720002448006850F00200224908601C481C4907
:10173000096801601A481A49096801601848006878
:1017400050F48060164908601548006830F47C1039
:10175000134908601248006850F4A8101049086046
:101760000E48006850F080700C4908600B48006813
:101770008001FBD50A48006880088000084908609D
:101780000748006850F002000549086004480068F6
:1017900010F00C000828F9D102B070470010024088
:1017A000041002400000FFF8FFFFF6FE08100240A0
:1017B00008ED00E00020024040B2002809D540B208
:1017C00010F00F02DFF80036D2180B0102F8043CCB
:1017D00004E040B2DFF8F4250B018354704710B5E4
:1017E0000400B4F1807F01D3012013E02002000A3D
:1017F000401EDFF8DC1508600F215FF0FF30FFF7B7
:10180000DBFFDFF8D00500210160DFF8CC05072100
:101810000160002010BD80B5DFF8C0050021016027
:10182000DFF8B80501210171DFF8B0050021417131
:10183000DFF8A8055FF460218160DFF8A0050021D2
:10184000C160DFF8980501210174DFF89015DFF819
:10185000900502F03BF80321DFF8840502F0CAFA94
:10186000002301220521DFF8780502F0EDF90023BD
:1018700002220621DFF8680502F0E6F900230322C0
:101880000421DFF85C0502F0DFF94FF4E041DFF8F6
:10189000500502F089F9DFF84C0500210160DFF8FE
:1018A000440501210171DFF83C0500214171DFF899
:1018B00034055FF460218160DFF828050021C160F4
:1018C000DFF8200501210174DFF81815DFF818058D
:1018D00001F0FCFF0421DFF8100502F08BFA002371
:1018E00001220A21DFF8000502F0AEF900230222EE
:1018F0000E21DFF8F40402F0A7F9002303220F21E0
:10190000DFF8E40402F0A0F9002304220B21DFF841
:10191000D80402F099F94FF4E041DFF8CC0402F06A
:1019200043F9DFF8C80400210160DFF8C004012199
:101930000171DFF8B80400214171DFF8B0045FF4F1
:1019400060218160DFF8A4040021C160DFF89C04FD
:1019500001210174DFF89414DFF8940401F0B6FF5C
:101960000321DFF88C0402F045FA00230122002154
:10197000DFF87C0402F068F9002302220321DFF87B
:10198000700402F061F9002303220C21DFF86004E7
:1019900002F05AF94FF4E041DFF8540402F004F980
:1019A0000121DFF83C0402F05FF8DFF8340402F0B4
:1019B00089F8DFF82C0402F09EF80028F9D1DFF84E
:1019C000200402F0B8F8DFF8180402F0CDF800287F
:1019D000F9D10121DFF8100402F046F8DFF808041D
:1019E00002F070F8DFF8000402F085F80028F9D161
:1019F000DFF8F40302F09FF8DFF8EC0302F0B4F82C
:101A00000028F9D10121DFF8E80302F02DF8DFF812
:101A1000E00302F057F8DFF8D80302F06CF8002872
:101A2000F9D1DFF8CC0302F086F8DFF8C40302F046
:101A30009BF80028F9D101BD80B54FF48040FFF735
:101A400055FC01214120FFF7F0FC0121DFF8A40340
:101A5000FFF741FD012148F23D60FFF713FD01BD95
:101A600080B5DFF8940379210180DFF88C03002131
:101A7000C170DFF88413DFF8840300F0DDF9DFF8CC
:101A8000780337210180DFF870030021C170DFF88F
:101A90006813DFF86C0300F0CFF9DFF85C034FF454
:101AA00040710180DFF8500303218170DFF84803A3
:101AB0001021C170DFF84013DFF8480300F0BCF9D3
:101AC000DFF834034FF400410180CB4803218170DB
:101AD000C9481021C170C849CB4800F0ADF901BD1B
:101AE00080B54FF4806002F0EDF9C8481F21017005
:101AF000C64802214170C54800218170C3480121B8
:101B0000C170C24802F0FAF9C04820210170BF48F4
:101B100001218170BD4802F0F1F9BC481C2101701F
:101B2000BA4800214170B94800218170B7480121AD
:101B3000C170B64802F0E2F9B4481E210170B34802
:101B400000214170B14801218170B0480121C1706C
:101B5000AE4802F0D3F9AD4811210170AB48012124
:101B60004170AA4800218170A8480121C170A7488E
:101B700002F0C4F901BD10B58CB001215FF4001072
:101B8000FFF7FBFC00215FF40010FFF7F6FC0121DA
:101B90005FF40010FFF79FFC0121022000F0A8FA7B
:101BA0004FF44070ADF8000001208DF802001C20B9
:101BB0008DF8030000A9944800F03EF994480021F4
:101BC000818093484FF4806141819148914901603F
:101BD0008F484BF6FF71C1808D484FF48041818161
:101BE0008B48C02101818A498B4802F036FA40F2C5
:101BF000FF1004002000441E80B20028FAD186485D
:101C000002F002FA8249844802F027FA0121824850
:101C100002F0F1FA01224FF440717F4802F016FB06
:101C20007E48008850F400607C4908807C4802F0BF
:101C300083FB7C4801907C48029010200390662032
:101C4000049000200590802006900020079000203E
:101C50000890002009904FF440500A9000200B900B
:101C600001A96F4802F048FC704802F065FB01A929
:101C70006E4802F041FC012202216C4802F05FFD37
:101C80000CB010BDE0B55FF08040FEF751FA0920BE
:101C9000ADF800000020ADF8020040F2D560ADF8CC
:101CA00004000020ADF8060000208DF8080000A90F
:101CB0005FF08040FEF774FB01215FF08040FEF78B
:101CC000EDFE1F215FF08040FFF71EF90122012188
:101CD0005FF08040FEF7F4FD01215FF08040FEF7E9
:101CE00089FD07BD80B5524800684FF47A71B0FB9A
:101CF000F1F0FFF774FD002800D0FEE701BD00B54C
:101D000085B0012240F22F214A48FEF767FE0420E9
:101D1000ADF804000220ADF806000120ADF808007F
:101D20000020ADF80A000F20ADF80C0001A94148D1
:101D3000FEF712FC8020ADF8000048208DF803006B
:101D400003208DF8020000A92F4800F075F81F212C
:101D50003848FFF7D9F8012204213648FEF7B0FDD4
:101D600001213448FEF746FD05B000BD00B583B043
:101D70004FF44070ADF8000003208DF802000420FD
:101D80008DF8030000A9204800F056F8224802F020
:101D90003BF901215FF40010FFF7EFFB00215FF436
:101DA0000010FFF7EAFB00215FF40010FFF793FB40
:101DB000FFF7E1FE40F2FF1001900198411E0191F2
:101DC0000028FAD107BD000018ED00E000E400E0B3
:101DD00014E000E018E000E010E000E01829002026
:101DE000002401402C290020002801404029002027
:101DF000003C01400500200074290020000801403B
:101E00000010014000140140000C0140782900201E
:101E100054290020A08601000054004004540040D2
:101E20006C000240105400407826002080000240E0
:101E3000F41F0020000800402DE9F84F04000D00B9
:101E4000002600275FF000085FF000095FF0000A3D
:101E50005FF0000BDFF8800284421CD0DFF87C02C8
:101E6000844218D0DFF87802844214D0DFF874027C
:101E7000844210D0DFF8700284420CD0DFF86C028C
:101E8000844208D0DFF83004844204D0B1210FF23C
:101E9000BC40FFF719FAE878002819D0E878042840
:101EA00016D0E878282813D0E878482810D0E878A9
:101EB00014280DD0E87810280AD0E8781C2807D01C
:101EC000E878182804D0B2210FF28040FFF7FCF91F
:101ED0002888002804D1B3210FF27040FFF7F4F9ED
:101EE000E87810F00F000600E878C0060FD5A87853
:101EF00001280AD0A878022807D0A878032804D09F
:101F0000BA210FF24840FFF7DFF9A8780643287896
:101F1000000631D02068824600208046B8F1080FC4
:101F200028D2012010FA08F08146288819EA00001A
:101F300007004F451BD15FEA880081460F2010FA49
:101F400009F083463AEA0B0A16FA09F050EA0A0A3F
:101F5000E878282804D1012010FA08F0606106E032
:101F6000E878482803D1012010FA08F0206118F120
:101F70000108D3E7C4F800A028884FF48071884294
:101F800033D36068824600208046B8F1080F2AD219
:101F9000012018F1080188408146288819EA0000CC
:101FA00007004F451CD15FEA880081460F2010FAD8
:101FB00009F083463AEA0B0A16FA09F050EA0A0ACF
:101FC000E878282804D1012018F1080188406061D0
:101FD000E878482804D1012018F1080188402061E0
:101FE00018F10108D1E7C4F804A0BDE8F18F70B57D
:101FF00004000D0016003848844218D03748844247
:1020000015D03748844212D0364884420FD0364823
:1020100084420CD03548844209D0DFF89C028442C7
:1020200005D04FF4C6710FF22430FFF74DF9ADB271
:10203000012D3CD0ADB2022D39D0ADB2042D36D039
:10204000ADB2082D33D0ADB2102D30D0ADB2202DB1
:102050002DD0ADB2402D2AD0ADB2802D27D04FF477
:102060008070ADB2854222D04FF40070ADB285428F
:102070001DD0ADB2B5F5806F19D0ADB2B5F5006F1A
:1020800015D0ADB2B5F5805F11D0ADB2B5F5005F3A
:102090000DD0ADB2B5F5804F09D0ADB2B5F5004F5A
:1020A00005D040F28D110FF2A420FFF70DF9F6B222
:1020B000002E08D0F6B2012E05D04FF4C7710FF2F2
:1020C0008C20FFF701F9F6B2002E02D0ADB22561E7
:1020D00001E0ADB2656170BD00080140000C014037
:1020E000001001400014014000180140001C014094
:1020F0002DE9F84304000D00002600275FF00008DA
:102100005FF00009012C00F08680022C00F0838033
:10211000042C00F08080082C7DD0684884427AD05E
:102120006748844277D06748844274D066488442C6
:1021300071D0664884426ED0654884426BD0654851
:10214000844268D06448844265D06448844262D046
:10215000B4F5805F5FD0B4F5EA1F5CD0B4F5EB1F37
:1021600059D0B4F5004F56D05D48844253D05D48F5
:10217000844250D05C4884424DD05C4884424AD06E
:102180005B48844247D0B4F1201F44D05948844270
:1021900041D0594884423ED0584884423BD05848A8
:1021A000844238D05748844235D05748844232D090
:1021B000B4F5011F2FD0554884422CD05448844296
:1021C00029D05448844226D05348844223D05348CF
:1021D000844220D0524884421DD0524884421AD0B2
:1021E0005148844217D05148844214D05048844208
:1021F00011D0504884420ED04F4884420BD04F48F3
:10220000844208D04E48844205D040F227210FF284
:102210003C10FFF759F8EDB2002D08D0EDB2012DBA
:1022200005D04FF40A710FF22410FFF74DF8002C7F
:1022300003D544480068804602E043480068804671
:10224000C4F303408146A0B2060014F44010B0F578
:10225000401F08D138F070683B48006830F070606B
:102260003949086013E0E00208D5032010FA09F0AC
:10227000070038EA070858F0706808E0600DC0B23F
:10228000000116FA00F038EA000858F07068EDB264
:10229000002D06D0600DC0B2000116FA00F050EA21
:1022A0000808002C03D52748C0F8008002E0264823
:1022B000C0F80080BDE8F183002001401000140048
:1022C0003000140040001600C00016000001180085
:1022D000000218000003180000081A00000C1A0081
:1022E000010020000200200004002000080020005F
:1022F00010002000400020000001300000023000EB
:1023000000043000001020000020200001000080A8
:10231000020000800400008008000080100000809F
:1023200020000080400000808000008000010080CC
:10233000000200800004008000080080001000807F
:10234000002000801C00014004000140453A5C79F7
:10235000756E5CB0D9B6C8D4C65C676974687562BE
:102360005C7770613930302D61695C41495F74651B
:1023700073742856312E31B0E6295C53544D3332F4
:10238000463130785F5374645065726970685F4499
:1023900072697665725C7372635C73746D333266F6
:1023A0003130785F6770696F2E6300002DE9F0416E
:1023B00004000D0016005FF00108414802F02CFCFB
:1023C000052802D0342002F0EDFB200002F061FB72
:1023D00000200700BFB2B6B2B74218D2384802F0A8
:1023E0001BFC052802D0342002F0DCFBBFB2B81081
:1023F00055F82010BFB2381902F087FB042802D12B
:1024000018F0010801E0002080463F1DE2E7404649
:10241000C0B2BDE8F08130B4030000200400A4B2D3
:1024200092B2944209D2A4B2A010A4B2A51053F85B
:10243000255041F82050241DF1E7002030BC7047A2
:1024400080B502F01BFB1F480078C0B2FF2810D0F7
:102450001D480078C0B2FF280BD01C480078C0B2DD
:10246000FF2806D01A480078C0B2FF2801D001200A
:1024700000E00020002821D0122216491148FFF761
:10248000CAFF042214491548FFF7C5FF0422124968
:1024900000A802F009FC9DF80000FF280ED19DF86D
:1024A0000100FF280AD19DF80200FF2806D19DF8FF
:1024B0000300FF2802D10A480021C16501BD0000C8
:1024C000A086010000D0030801D0030802D0030851
:1024D00003D00308C81F0020D427002000E0030811
:1024E000782700202DE9F84380460C0000260020C4
:1024F0000700402F19DA8020DFF8701100FB081068
:1025000030F9170002F0DCFB310002F0F1FB8146EC
:10251000781C02F0D5FB0100484602F05BFC31005C
:1025200002F0D6FC06007F1CE3E7300002F012FD4B
:10253000A08300200500402D1EDA8020DFF82C113A
:1025400000FB081030F91500B4F91C10401A802166
:10255000DFF8182101FB082131F91510B4F91C200E
:10256000891A484302F018FDD4E9002302F02CFD3B
:10257000C4E900016D1CDEE7D4E9000100225FF030
:10258000804302F095FD0022DFF8E43002F062FEA5
:10259000C4E90001D4E9000102F080FF02F0C6FFA7
:1025A00002F0FEFFC4E90001BDE8F1830CB42DE99F
:1025B000F04180460F0006A80600D7E90001DFF8C9
:1025C000102CDFF8103C03F013F829D80020040089
:1025D000B8F10100844221DA30680500361DD5E9E2
:1025E0000001DFF8EC2BDFF8EC3B03F001F813D827
:1025F000B868A96803F014F805D2A868B96802F0B1
:1026000077FBA86008E0DFF8C40BB96802F070FB44
:10261000A96802F05DFCA860641CD9E70020B860DE
:10262000BDE8F0015DF80CFBF0B400242300DBB240
:10263000402B17D2DBB280240C4D04FB0254DBB2DA
:1026400080250A4E05FB006535F81350DBB2802665
:10265000064F06FB017636F81360AD1B24F81350C5
:102660005B1CE4E7F0BC704700000000F81F00208E
:1026700080848E41F0B583B0040001200500202045
:1026800006003F2D1DDAB5420FDA00A914EBC60093
:1026900000F056F814EBC60114EBC50000F050F83A
:1026A00014EBC50100A800F04BF820200700BE4243
:1026B00004DBF61B022097FBF0F7F8E7BE196D1C50
:1026C000DFE7F7BDF0B504000D00160021682868AB
:1026D00002F0B8FF07006168686802F0B3FF01000C
:1026E000380002F005FB30602168686802F0AAFF3C
:1026F00007006168286802F0A5FF390002F0E8FBD6
:102700007060F0BD70B504000D00160021682868E7
:1027100002F0DEFB30606168686802F0D9FB70602F
:1027200070BD70B504000D0016002068296802F025
:10273000DFFA30606068696802F0DAFA706070BDD4
:1027400002680A6042684A6070472DE9F34FADF5B0
:102750000B7D0020DFF8801A02F0E0FF80468946FA
:1027600000205FF0804102F0D9FF02000B004046DC
:10277000494602F06FFD02F0D5FF03900020009063
:102780000098402818DA00988B998022DFF8B03C36
:1027900002FB013131F9100002F092FA00990AAA05
:1027A00042F8310000980AA911EBC00000214160F5
:1027B0000098401C0090E3E70120029003980299E2
:1027C00088425EDB0398401C0299401A02F0E4FB49
:1027D00002000B0000205FF0804103F0EDF902F0F1
:1027E000A1FF8146022099FBF0F801200400A045DA
:1027F00043DB601E02F0D0FB82468B460298401EEF
:1028000002F0CAFB02000B0000205FF0804103F0E1
:10281000D3F952465B4602F04BFC02F083FF82463E
:10282000601E05003F2D26DA18EB050B08AA0AA842
:1028300010EBCB010AA810EBC500FFF763FF06AA57
:102840000AA810EBCB010AA810EBC500FFF769FF3F
:102850000AA810EBCB02DFF8EC0B10EBCA0106A8BC
:10286000FFF730FF0AA810EBC50108A8FFF768FFC3
:1028700019EB0505D6E7641CB9E70298401C0290E5
:102880009CE70AA8FFF7F6FE00200600152E80F24E
:10289000ED800AA850F836005FF0894102F09AFAFC
:1028A0000AA941F836000AA850F83600DFF81419D2
:1028B00002F090FA0AA941F836008B98DFF8881BDD
:1028C00031F8100002F006FA0AA951F8361002F0A9
:1028D000B9FE02F065FE0022DFF8703B02F0BAFCA0
:1028E00002F0DCFD0AA941F836000AA810EBC60088
:1028F00040685FF0894102F06DFA0AA911EBC60148
:1029000048600AA810EBC6004068DFF8B81802F06B
:1029100061FA0AA911EBC60148608B98DFF8281B01
:1029200031F8100002F0D6F90AA911EBC601496886
:1029300002F088FE02F034FE0022DFF8103B02F0C5
:1029400089FC02F0ABFD0AA911EBC60148600AA898
:1029500050F836000AA951F8361002F073FE80468E
:102960000AA810EBC60040680AA911EBC601496825
:1029700002F068FE414602F0ABFA02F0D7FD02F029
:102980000FFECDE90401DDE90401DFF8C42A12EBF2
:10299000C60CDCE9002302F05DFCCDE9040128202F
:1029A0008C9900FB0610DDE90423C0E900232820F0
:1029B0008C9900FB06100AA951F8361041612820B5
:1029C0008C9900FB06100AA911EBC60149688161C8
:1029D00028208C9900FB0612D2E900010022002376
:1029E00002F006FE3AD20AA850F8360002F0D8FDEE
:1029F00028228C9B02FB063CDCE9002302F02AFC27
:102A000002F04CFD03F0F0FADFF8BC1702F01AFEFA
:102A100002F0C6FDDFF83C2ADFF83C3A02F01AFC6F
:102A200002F03CFD28218C9A01FB062188600AA84F
:102A300010EBC6004068002102F0F2FD14D2DFF86E
:102A40008C0728218C9A01FB0621896802F050F935
:102A500028218C9A01FB0621886005E028208C99AA
:102A600000FB061000218160761C0FE70220019018
:102A7000019815281FDA380002F092FD8046894639
:102A8000019828218C9A01FB0020D0E900230198AD
:102A900028218C9F01FB0077D7E9000102F008FB99
:102AA00042464B4602F090FA02F0F8FC070001980B
:102AB000401C0190DCE7380002F038FD07003800C8
:102AC00002F06EFD8C9FD7E90A2302F0C3FB02F0EF
:102AD000E5FC07008C9887640DF50D7DBDE8F08F4F
:102AE0002DE9F04387B00400072201210020FFF701
:102AF0009BFD082202210120FFF796FD09220021FB
:102B00000220FFF791FD14F108010020FFF71DFEE0
:102B100004F250310120FFF718FE14F5D3610220B2
:102B2000FFF713FE41F2B83001190720FFF70DFE41
:102B300014F5B8510820FFF708FE41F648200119A6
:102B40000920FFF702FE14F51E610320FFF7FDFDCB
:102B500004F628510420FFF7F8FD41F27000011936
:102B60000520FFF7F2FD14F130010020FFF7BAFC59
:102B700004F278310120FFF7B5FC14F5D86102208A
:102B8000FFF7B0FC14F59F510720FFF7ABFC41F2B3
:102B9000287001190820FFF7A5FC41F670200119E3
:102BA0000920FFF79FFC04F608210320FFF79AFC99
:102BB00014F555610420FFF795FC41F298000119C6
:102BC0000520FFF78FFCDFF89408006802F0E4F9B5
:102BD00002000B000020DFF8881802F03BFB02F037
:102BE0005DFC41F61C61085141F298000019059006
:102BF00014F55560049004F60820039041F6702007
:102C00000019029041F228700019019014F59F50AC
:102C1000009014F5D86304F2783214F130010920E1
:102C2000FFF7C4FC616CD4F81C0A02F00BFD80466F
:102C3000A16CD4F8200A02F005FD414602F048F9E3
:102C40008046D4F88C13D4F8640D02F0FBFC4146A6
:102C500002F03EF98046D4F89013D4F8680D02F0E3
:102C6000F1FC414602F034F98046D4F8D41641F222
:102C7000AC00005902F0E6FC414602F029F980461A
:102C8000D4F8D81641F2B000005902F0DBFC4146FE
:102C900002F01EF90500A16CD4F81C0A02F0D2FC67
:102CA0008046616CD4F8200A02F0CCFC010040465A
:102CB00002F01EF88046D4F89013D4F8640D02F0A8
:102CC000C1FC414602F004F98046D4F88C13D4F8D4
:102CD000680D02F0B7FC0100404602F009F880469A
:102CE000D4F8D81641F2AC00005902F0ABFC4146D2
:102CF00002F0EEF88046D4F8D41641F2B000005944
:102D000002F0A0FC0100404601F0F2FF060014F5BD
:102D1000EF50056041F6E4500651D4E90C01DFF8AC
:102D20004427DFF8443702F063FC14D9D4E9DE010C
:102D3000DFF83027DFF8303702F05AFC0BD914F5F2
:102D4000D862D2E90001DFF81C27DFF81C3702F057
:102D50004FFC00F25281208806283CD3208802F0E4
:102D600025F902000B00DFF80407DFF8041702F072
:102D70009FF904F6082CDCE9002303F097F951D3FE
:102D8000208802F013F902000B00DFF8E006DFF8FC
:102D9000E01602F08DF914F5556CDCE9002303F020
:102DA00085F93FD3208802F001F902000B00DFF81B
:102DB000BC06DFF8BC1602F07BF941F2980212EB78
:102DC000040CDCE9002303F071F92BD341F6186001
:102DD0000021015115E104F60822D2E90001DFF8D3
:102DE0009426DFF8943602F003FC1BD914F55562E3
:102DF000D2E90001DFF87C26DFF87C3602F0F8FB30
:102E000010D941F298000219D2E90001DFF86426D6
:102E1000DFF8643602F0ECFB04D941F618600021BB
:102E20000151EEE0DFF85406008880B2401CC0007B
:102E30004FF42F7190FBF1F001F042FF07002800E2
:102E4000290002F0FFFB80462800290002F0FAFB6F
:102E500081463000310002F0F5FB494602F038F8B7
:102E60000100404601F0B6FF02F060FB41F6186138
:102E700008512800290002F0E5FB804630003100AF
:102E800002F0E0FB414602F023F85FF07E5102F0D1
:102E9000C7FB03D241F61860002101512800DFF87A
:102EA000E01503F01BF91DD82800390002F0CAFB19
:102EB000DFF8D01502F0C6FBDFF8CC1501F08AFF71
:102EC00002F06EFB02000B0041F6E85010EB040C20
:102ED000DCE9000102F078F841F6E8521219C2E983
:102EE000000122E028005FF0404102F099FB1CD273
:102EF0002800390002F0A6FBDFF8881502F0A2FBDB
:102F0000DFF8841501F066FF02F04AFB02000B00B7
:102F100041F6F05010EB040CDCE9000103F0F0F88E
:102F200041F6F0521219C2E900013000DFF85015E5
:102F300003F0D4F81AD83000390002F083FBDFF830
:102F4000441502F07FFBDFF8401501F043FF02F06B
:102F500027FB02000B0014F5F05CDCE9000102F035
:102F600033F814F5F052C2E9000122E030005FF0BE
:102F7000404102F055FB1CD23000390002F062FBE8
:102F8000DFF8001502F05EFBDFF8FC1401F022FF11
:102F900002F006FB02000B0041F6086010EB040C87
:102FA000DCE9000103F0ACF841F608621219C2E94D
:102FB000000141F6E8500019D0E9002341F6F05035
:102FC00010EB040CDCE9000101F0FEFF41F6F852C1
:102FD0001219C2E9000114F5F050D0E9002341F6BE
:102FE000086010EB040CDCE9000101F0EDFF41F694
:102FF00010621219C2E9000103E041F618600021D5
:10300000015107B0BDE8F08338B50400D4F81C1AAC
:10301000D4F8640D01F05CFF41F2AC01095901F0F4
:1030200057FF41F6CC51085141F6CC500059DFF81A
:103030005C1401F0CFFE41F6CC510851D4F8201AAF
:10304000D4F8680D01F044FF41F2B001095901F0D4
:103050003FFF41F6D051085141F6D0500059DFF8FA
:103060002C1401F0B7FE41F6D051085141F6D05072
:10307000015941F6D050005902F0E4FA050041F63A
:10308000CC50015941F6CC50005902F0DBFA29002E
:1030900001F01EFF02F04AFA02F082FA41F6B8523D
:1030A0001219C2E9000131BD70B50600D6F8641DE1
:1030B00041F2AC00805901F00BFF5FF0804101F05C
:1030C00089FE0100D6F81C0A01F012FE02F068FA2F
:1030D00004000D00D6F8680D41F2B001895901F0E5
:1030E00007FE02F05DFADFF8A823DFF8A83301F04D
:1030F000DFFF22002B0001F067FF02F0CFF941F65D
:10310000A451885141F6A4508059DFF8801301F092
:1031100061FE41F6A4518851D6F8681D41F2B00015
:10312000805901F0D5FE5FF0804101F053FE0100AF
:10313000D6F8200A01F0DCFD02F032FA04000D009E
:10314000D6F8640D41F2AC01895901F0D1FD02F0CD
:1031500027FADFF83C23DFF83C3301F0A9FF020037
:103160000B002000290002F0CBFF02F097F941F696
:10317000A851885141F6A8508059C44901F02AFE4F
:1031800041F6A851885141F6A850815941F6A850FE
:10319000805902F057FA040041F6A450815941F6D3
:1031A000A450805902F04EFA210001F091FE02F085
:1031B000BDF902F0F5F941F690529219C2E9000109
:1031C00070BD00000000FA46000034430000B44324
:1031D0009B9999999999B93F00005040F0B5060024
:1031E0000C0035009848008801F0E0FED4E90C237B
:1031F00001F05EFF00225FF0804301F059FF0022E2
:10320000A54B02F027F802F049F93060361DA06B9B
:103210003060361D8C48408801F0C8FED4E9DE23BA
:1032200001F046FF00225FF0804301F041FF0022E1
:10323000994B02F00FF802F031F93060361DD4F8E6
:1032400080033060361D8048808801F0AFFE14F5A1
:10325000D867D7E9002301F02BFF00225FF08043FD
:1032600001F026FF00228C4B01F0F4FF02F016F96A
:103270003060361DD4F8C8063060361D7248C088EC
:1032800001F094FE04F60827D7E9002301F010FFAF
:103290000022824B01F00CFF0022814B01F0DAFF8B
:1032A00002F0FCF83060361DD4F8100A3060361D8C
:1032B0006548008901F07AFE14F55567D7E90023C7
:1032C00001F0F6FE0022754B01F0F2FE0022744B75
:1032D00001F0C0FF02F0E2F83060361DD4F8580D5E
:1032E0003060361D5848408901F060FE41F2980276
:1032F0001719D7E9002301F0DBFE0022674B01F02C
:10330000D7FE0022664B01F0A5FF02F0C7F830603F
:10331000361D14F5855000683060361D4A48808996
:1033200001F044FE14F59F57D7E9002301F0C0FED9
:1033300000225FF0804301F0BBFE0022564B01F0FB
:1033400089FF02F0ABF83060361D3F48C08901F0BC
:103350002DFE41F228721719D7E9002301F0A8FECB
:1033600000225FF0804301F0A3FE00224A4B01F0EF
:1033700071FF02F093F83060361D3348008A01F087
:1033800015FE41F670221719D7E9002301F090FECF
:1033900000225FF0804301F08BFE00223E4B01F0E3
:1033A00059FF02F07BF83060361D28683D4902F075
:1033B00095FE05D841F61C6000593060361D02E0CC
:1033C00000203060361D14F5EF500168364802F0D9
:1033D00039F9364901F0FEFC3060361D41F6E45003
:1033E0000159314802F02EF9304901F0F3FC306008
:1033F000361D41F6186000593060361D41F6B85050
:103400000019D0E900230020244901F051FE0022D8
:10341000274B01F01FFF02F041F83060361D41F6E6
:1034200090500019D0E9002300201C4901F040FE13
:1034300000221F4B01F00EFF02F030F83060F0BDAB
:10344000F81F0020201E0020C81F002000408F40D1
:10345000201F00204AD8124DFB2109406C29002072
:10346000006AF8400BD7A3703D0AC73F7B14AE47F4
:10347000E17A843FB91E85EB51B89E3F2C00004095
:10348000010000400000C84200BA5B4A0000404012
:1034900083C0CAA145B6EB3F0080464000003940DA
:1034A0000058BB400100204100401C4600007C4207
:1034B00000001C40DFF8B803006810F4E060DFF89B
:1034C000B4130843DFF8A8130860BFF34F8FFEE77B
:1034D00038B50400DFF8A003A5210170DFF89803D8
:1034E0005A214170DFF89003C22181706022DFF819
:1034F0008C13DFF88C0301F0D7FB02F0C1FE192119
:10350000DFF8740302F0C0FE0500DFF86C0380F8FA
:103510006450DFF86403ADB2290A80F8651031BD4C
:1035200070B582B00400FF208DF80000E4B2012CD9
:103530001AD3E4B20A2C17D20222DFF84813E4B2FD
:10354000DFF8440310EB4400801E01F0ADFB1222B3
:10355000DFF83413DFF83403FEF728FF0500EDB27F
:10356000002D01D0012016E0E4B20A2C12D1002077
:103570000600F6B2092E07D2F6B2C3484FF47A71AC
:1035800020F81610761CF4E71222BF49BF48FEF758
:103590000DFF0500002076BD10B582B0FF208DF82C
:1035A0000000B648006801F0FBFF02000B00B848BD
:1035B000B84901F04FFE0022B74B01F079FD00221F
:1035C000B64B01F001FD02F0ADF8AF490880AB4801
:1035D000806801F0E5FF02000B00AD48AD4901F045
:1035E00039FE0022AC4B01F063FD0022AB4B01F031
:1035F000EBFC02F097F8A4494880A048006901F06C
:10360000CFFF02000B00A248A24901F023FE0022D6
:10361000A14B01F04DFD0022A04B01F0D5FC02F0C2
:1036200081F8994988809548806901F0B9FF0200C6
:103630000B0000209A4901F00DFE0022964B01F08C
:1036400037FD0022954B01F0BFFC02F06BF88E496C
:10365000C8808A48006A01F0A3FF02000B00002026
:103660008F4901F0F7FD00228B4B01F021FD002274
:103670008A4B01F0A9FC02F055F8834908817F4884
:10368000806A01F08DFF02000B000020844901F0E8
:10369000E1FD0022804B01F00BFD00227F4B01F089
:1036A00093FC02F03FF8784948817448006B01F0C0
:1036B00077FF02000B0000207A4901F0CBFD0022C9
:1036C000754B01F0F5FC0022744B01F07DFC02F01B
:1036D00029F86D4988816948406B01F061FF02005B
:1036E0000B0000206F4901F0B5FD00226A4B01F08C
:1036F000DFFC0022694B01F067FC02F013F862491D
:10370000C8815E48806B01F04BFF02000B00002077
:10371000644901F09FFD00225F4B01F0C9FC0022CB
:103720005E4B01F051FC01F0FDFF57490882122267
:1037300055495648FEF73AFE0400E4B2002C01D089
:10374000012000E0002016BD10B500245648007886
:1037500000281CD055488078C32802D0C62806D03F
:103760000DE05248C078FFF7DBFE040007E04F4849
:10377000C078C62802D1FFF70FFF0400FFE74A48D0
:103780000021017008220021484802F093FD10BD7D
:1037900080B547480078411C454A1170C0B21821D5
:1037A00090FBF1F201FB1200C0B2FFF791FE01BDE8
:1037B0001CB50020009002F089FD04003D480088FF
:1037C00080B200900098800705D5641C2000C0B22C
:1037D00002F080FD0DE0A4B2002C04D00020040013
:1037E000002002F07FFD01224FF400413248FEF735
:1037F000FEFB02F073FD08281CD300224FF4007179
:103800002E48FEF7F4FB47F6FF7001900198411E29
:1038100001910028FAD11948C16D5FF07E5001F086
:1038200057FB1649C865042225492648FEF7BEFD08
:10383000FFF740FEA4B22C2C18D30021224800F040
:10384000DAFC0121204800F0D6FCFEF78FFA0022B6
:103850004FF400411848FEF7CAFB02F03FFD401C40
:10386000C0B202F03FFD002002F034FD13BD0000A5
:103870000CED00E00400FA057826002078270020EF
:103880007C26002068290020C81F002000D00308E3
:103890001F85EB51B8DE4C4000408F400000E03FF8
:1038A00000001440000059408429002064290020B1
:1038B0008529002018540040000C014000140140EC
:1038C000D427002000E0030800540040F8B50400AD
:1038D0000D0000260027DFF8600384420CD0DFF8DB
:1038E0005C03844208D0DFF85803844204D0DE2110
:1038F000DFF85003FDF7E8FC2868002828D0286886
:10390000B0F5803F24D02868B0F5003F20D028686B
:10391000B0F5403F1CD02868B0F5802F18D028683B
:10392000B0F5A02F14D02868B0F5C02F10D02868AB
:10393000B0F5E02F0CD02868B0F5002F08D028682B
:10394000B0F5102F04D0DF21DFF8F802FDF7BCFC42
:103950002879002807D02879012804D0E021DFF851
:10396000E402FDF7B1FC6879002807D068790128E6
:1039700004D0E121DFF8CC02FDF7A6FCA8680028FE
:1039800037D0A868B0F5003F33D0A868B0F5802FD5
:103990002FD0A868B0F5C02F2BD0A868B0F5002FA5
:1039A00027D0A868B0F5202F23D0A868B0F5402F05
:1039B0001FD0A868B0F5602F1BD0A868002818D0C9
:1039C000A868B0F5003F14D0A868B0F5C02F10D09B
:1039D000A868B0F5002F0CD0A868B0F5202F08D04B
:1039E000A868B0F5402F04D0E221DFF85802FDF7B7
:1039F0006BFCE868002808D0E868B0F5006F04D0D8
:103A0000E321DFF84002FDF75FFC287C012802D3A8
:103A1000287C112804D3E421DFF82802FDF754FCA8
:103A200060680600DFF8280406402868297950EA13
:103A3000012006436660A0680600DFF8180406400F
:103A4000E868A9680843697950EA41000643A6601E
:103A5000E06A060036F47006287C401E0743FFB279
:103A600056EA0756E662F1BD38B504000D00DFF8EE
:103A7000C80184420DD0DFF8C401844209D0DFF8C8
:103A8000C001844205D040F22D11DFF8B801FDF7E6
:103A90001BFCEDB2002D08D0EDB2012D05D04FF486
:103AA0009771DFF8A001FDF70FFCEDB2002D04D0F7
:103AB000A06850F00100A06003E0A068400840004A
:103AC000A06031BD10B50400DFF86C0184420DD058
:103AD000DFF86801844209D0DFF86401844205D030
:103AE00040F27D110FF27030FDF7EEFBA06850F050
:103AF0000800A06010BD38B504000025DFF83801CB
:103B000084420DD0DFF83401844209D0DFF830015F
:103B1000844205D040F28B110FF23C30FDF7D4FB0C
:103B2000A068000702D50120050001E00020050083
:103B30002800C0B232BD10B50400DFF8FC0084429A
:103B40000DD0DFF8F800844209D0DFF8F400844299
:103B500005D040F2A3110FF20030FDF7B5FBA068CD
:103B600050F00400A06010BD38B504000025DFF857
:103B7000C80084420DD0DFF8C400844209D0DFF8C9
:103B8000C000844205D040F2B1110FF2CC20FDF705
:103B90009BFBA068400702D50120050001E0002042
:103BA00005002800C0B232BD70B504000D0000262B
:103BB000214884420CD02148844209D0DFF8F80221
:103BC000844205D040F222310FF28C20FDF77CFBBD
:103BD000002D29D0B5F5805F26D0B5F5005F23D044
:103BE000B5F5405F20D0B5F5804F1DD0B5F5A04F9D
:103BF0001AD0B5F5C04F17D0B5F5E04F14D0B5F5D4
:103C0000005F11D0B5F5405F0ED0B5F5804F0BD0F9
:103C1000B5F5A04F08D0B5F5C04F05D040F223311F
:103C20000FF23420FDF750FBA068060036F4E046A2
:103C30002E43A66070BD0000002401400028014012
:103C4000003C0140583E00082DE9F04704000D00FB
:103C500016001F005FF000085FF000095FF0000A27
:103C6000DFF8580284420DD0DFF85402844209D0B4
:103C7000DFF84402844205D040F2A5310FF2D8109B
:103C8000FDF722FBEDB2002D38D0EDB2012D35D07D
:103C9000EDB2022D32D0EDB2032D2FD0EDB2042DB6
:103CA0002CD0EDB2052D29D0EDB2062D26D0EDB2E7
:103CB000072D23D0EDB2082D20D0EDB2092D1DD057
:103CC000EDB20A2D1AD0EDB20B2D17D0EDB20C2D9E
:103CD00014D0EDB20D2D11D0EDB20E2D0ED0EDB2EF
:103CE0000F2D0BD0EDB2102D08D0EDB2112D05D057
:103CF00040F2A6310FF26010FDF7E6FAF6B2012E9F
:103D000002D3F6B2052E05D340F2A7310FF24810C8
:103D1000FDF7DAFAFFB2002F1AD0FFB2012F17D049
:103D2000FFB2022F14D0FFB2032F11D0FFB2042F25
:103D30000ED0FFB2052F0BD0FFB2062F08D0FFB276
:103D4000072F05D04FF46A710FF20C10FDF7BCFA83
:103D5000EDB20A2D17D3E06880460720B5F10A01BD
:103D6000032251438840814638EA0908FFB2B5F181
:103D70000A000321484317FA00F0814659EA08086F
:103D8000C4F80C8014E0206980460720032101FB61
:103D900005F18840814638EA0908FFB2032000FB9C
:103DA00005F017FA00F0814659EA0808C4F81080B7
:103DB000A06B8046C8F3015082461F20F6B2F11C6A
:103DC000B1EB0A01491E052251438840814638EA79
:103DD0000908EDB2F6B2F01CB0EB0A00401E052156
:103DE000484315FA00F0814659EA0808C4F83880BB
:103DF000BDE8F087F8B504000D0000270026DFF8C5
:103E0000BC0084420DD0DFF8B800844209D0DFF84E
:103E1000A800844205D040F2E5310FF23C00FDF7E6
:103E200053FAEDB2012D02D3EDB2052D05D340F2C8
:103E3000E6310FF22400FDF747FAA06B070037F4D4
:103E40004017EDB2681E060057EA0657A763F1BD9A
:103E5000FFFEF0FFFDF7F1FF453A5C79756E5CB04F
:103E6000D9B6C8D4C65C6769746875625C777061DE
:103E70003930302D61695C41495F7465737428562F
:103E8000312E31B0E6295C53544D3332463130780F
:103E90005F5374645065726970685F4472697665D7
:103EA000725C7372635C73746D3332663130785F49
:103EB0006164632E63000000003C01400024014067
:103EC0000028014010B50400B4F5E06F11D0B4F53E
:103ED000C06F0ED0B4F5A06F0BD0B4F5806F08D0D2
:103EE0004FF44070844204D062210FF2C400FDF709
:103EF000EBF92A4820432A49086010BDF8B50400B0
:103F0000002500260F27E078002807D0E078012858
:103F100004D074210FF29800FDF7D6F960781028CC
:103F200004D375210FF28800FDF7CEF9A078102890
:103F300004D376210FF27800FDF7C6F9E078002867
:103F400020D01748006810F4E060D0F5E060000A67
:103F50000500D5F104000600EF406078B040050090
:103F6000A078384005432D0120780E49455420782B
:103F700040110D490122237813F01F039A4041F8A4
:103F8000202009E02078401108490122237813F00D
:103F90001F039A4041F82020F1BD00000000FA05FF
:103FA0000CED00E000E400E000E100E080E100E072
:103FB000453A5C79756E5CB0D9B6C8D4C65C6769A1
:103FC000746875625C7770613930302D61695C416D
:103FD000495F746573742856312E31B0E6295C53FD
:103FE000544D3332463130785F5374645065726992
:103FF00070685F4472697665725C7372635C6D6948
:1040000073632E630000000010B50400DFF8A802FF
:10401000844208D0DFF8A402844204D0A521DFF84E
:10402000A002FDF751F9DFF8900284420AD1012184
:104030005FF40010FDF7A1FA00215FF40010FDF716
:104040009CFA09E001215FF48000FDF796FA002157
:104050005FF48000FDF791FA10BD2DE9F04385B0C3
:1040600004000D00002600275FF00408DFF85492DA
:10407000DFF84402844208D0DFF84002844204D0D2
:10408000C6210FF25020FDF71FF92868002804D040
:104090002868DFF83412884204D3C7210FF2342095
:1040A000FDF712F9A88800280AD0A888022807D0AE
:1040B000A8880A2804D0C8210FF21820FDF704F9B7
:1040C000E888B0F5804F09D0E8884BF6FF71884248
:1040D00004D0C9210FF2FC10FDF7F6F82889B0F5DD
:1040E000806F04D3CA210FF2EC10FDF7EDF8688958
:1040F000B0F5806F07D06889002804D0CB210FF27B
:10410000D410FDF7E1F8A889B0F5804F08D0A88950
:10411000B0F5404F04D0CC210FF2B810FDF7D4F821
:10412000A08806004FF6C070064000A8FDF7FDF815
:1041300002988146DFF89401B9FBF0F007003E4396
:10414000A68020884FF6FE710840208000200600DF
:104150002868DFF87C11884210D228684000B9FB3B
:10416000F0F080461FFA88F8B8F1040F01D204205D
:10417000804658EA0606781C208426E0E8884BF63C
:10418000FF71884206D1286803214843B9FBF0F04B
:10419000804607E0286819214843B9FBF0F08046C3
:1041A00058F480485FEA085001D158F0010858F4EB
:1041B00000400643BFB24FF4967000FB07F04FF487
:1041C0007A7190FBF1F0401C2084A683208850F087
:1041D00001002080208806004FF6F5300640A888B0
:1041E0006989084306432680A889298908432081D4
:1041F00005B0BDE8F08338B504000D00DFF8B80065
:10420000844209D0DFF82C01844205D040F24511E8
:104210000FF2C000FDF758F8EDB2002D08D0EDB256
:10422000012D05D04FF4A3710FF2A800FDF74CF853
:10423000EDB2002D04D0208850F00100208004E071
:1042400020884FF6FE710840208031BD70B5040013
:104250000D001600DFF86000844209D0DFF8D400BA
:10426000844205D04FF409710FF26800FDF72CF875
:10427000F6B2002E08D0F6B2012E05D040F225216C
:104280000FF25000FDF720F84FF6FF00054202D173
:10429000ADB2002D05D140F226210FF23800FDF716
:1042A00013F8F6B2002E03D0A0882843A08002E0C5
:1042B000A088A843A08070BD005400400058004072
:1042C000D442000800127A00811A060040420F0012
:1042D000A1860100453A5C79756E5CB0D9B6C8D448
:1042E000C65C6769746875625C7770613930302DBF
:1042F00061695C41495F746573742856312E31B031
:10430000E6295C53544D3332463130785F53746440
:104310005065726970685F4472697665725C737229
:10432000635C73746D3332663130785F6932632E4B
:10433000630000000058004010B50400DFF81806C4
:10434000844230D0DFF8140684422CD0DFF8100607
:10435000844228D0DFF83C06844224D0DFF83806B7
:10436000844220D0DFF8340684421CD0DFF83006C7
:10437000844218D0DFF82C06844214D0DFF82806D7
:10438000844210D0DFF8240684420CD0DFF82006E7
:10439000844208D0DFF81C06844204D06E210FF25C
:1043A0007C60FCF791FF20684FF6FE7108402060AA
:1043B00000202060002060600020A0600020E060FD
:1043C000DFF89405844208D1DFF8EC05006850F06E
:1043D0000F00DFF8E41508608DE0DFF88005844207
:1043E00008D1DFF8D405006850F0F000DFF8C815F8
:1043F000086080E0DFF86805844208D1DFF8B8057E
:10440000006850F47060DFF8B015086073E0DFF802
:104410008405844208D1DFF8A005006850F470409C
:10442000DFF89415086066E0DFF86C05844208D177
:10443000DFF88405006850F47020DFF87C15086010
:1044400059E0DFF85805844208D1DFF86C050068B0
:1044500050F47000DFF8601508604CE0DFF84005AC
:10446000844208D1DFF85005006850F07060DFF832
:10447000481508603FE0DFF82C05844208D1DFF8DA
:104480003C05006850F00F00DFF83015086032E09E
:10449000DFF81405844208D1DFF82005006850F0E9
:1044A000F000DFF81815086025E0DFF80005844209
:1044B00008D1DFF80805006850F47060DFF8FC14DC
:1044C000086018E0DFF8E804844208D1DFF8EC0463
:1044D000006850F47040DFF8E41408600BE0DFF887
:1044E000D404844207D1DFF8D404006850F470206B
:1044F000DFF8C814086010BD70B504000D00002678
:10450000DFF85404844230D0DFF8500484422CD0C9
:10451000DFF84C04844228D0DFF87804844224D0A9
:10452000DFF87404844220D0DFF8700484421CD089
:10453000DFF86C04844218D0DFF86804844214D099
:10454000DFF86404844210D0DFF8600484420CD0A9
:10455000DFF85C04844208D0DFF85804844204D0B9
:10456000CE210FF2B840FCF7AFFEA868102807D0A4
:10457000A868002804D0CF210FF2A040FCF7A4FEC9
:10458000E868002803D0E868B0F5803F04D3D02164
:104590000FF28840FCF798FE2869402807D0286968
:1045A000002804D0D1210FF27440FCF78DFE686919
:1045B000802807D06869002804D0D2210FF25C401F
:1045C000FCF782FEA86900280ED0A8694FF480711C
:1045D000884209D0A8694FF40071884204D0D321E1
:1045E0000FF23840FCF770FEE86900280CD0E8694B
:1045F000B0F5806F08D0E869B0F5006F04D0D42121
:104600000FF21840FCF760FE286A202807D0286ABD
:10461000002804D0D5210FF20440FCF755FE686A4B
:10462000B0F5405F0FD0686AB0F5005F0BD0686AE4
:10463000B0F5805F07D0686A002804D0D6210FF259
:10464000DC30FCF741FEA86AB0F5804F07D0A86ABD
:10465000002804D0D7210FF2C430FCF735FE2068C3
:104660000600DFF85C030640A868296A0843296948
:10467000084369690843A9690843E9690843696A05
:104680000843A96A084306432660E8686060286812
:10469000A0606868E06070BD38B504000D00DFF808
:1046A000B802844231D0DFF8B40284422DD0DFF862
:1046B000B002844229D0DFF8DC02844225D0DFF842
:1046C000D802844221D0DFF8D40284421DD0DFF822
:1046D000D002844219D0DFF8CC02844215D0DFF832
:1046E000C802844211D0DFF8C40284420DD0DFF842
:1046F000C002844209D0DFF8BC02844205D04FF4E6
:1047000094710FF21830FCF7DFFDEDB2002D08D0E8
:10471000EDB2012D05D040F229110FF20030FCF767
:10472000D3FDEDB2002D04D0206850F001002060D0
:1047300004E020684FF6FE710840206031BD70B57E
:1047400004000D001600DFF81002844231D0DFF8BB
:104750000C0284422DD0DFF80802844229D0DFF811
:104760003402844225D0DFF83002844221D0DFF8C1
:104770002C0284421DD0DFF82802844219D0DFF8D1
:104780002402844215D0DFF82002844211D0DFF8E1
:104790001C0284420DD0DFF81802844209D0DFF8F1
:1047A0001402844205D04FF4A4710FF27020FCF77C
:1047B0008BFD35F00E00002801D1002D05D140F20F
:1047C00049110FF25820FCF77FFDF6B2002E08D0F9
:1047D000F6B2012E05D04FF4A5710FF24020FCF780
:1047E00073FDF6B2002E03D020682843206002E05B
:1047F0002068A843206070BD70B504000025002625
:10480000012C00F09580022C00F09280042C00F026
:104810008F80082C00F08C80102C00F08980202CD8
:1048200000F08680402C00F08380802C00F0808097
:104830004FF4807084427BD04FF40070844277D074
:10484000B4F5806F74D0B4F5006F71D0B4F5805FAB
:104850006ED0B4F5005F6BD0B4F5804F68D0B4F57E
:10486000004F65D0B4F5803F62D0B4F5003F5FD013
:10487000B4F5802F5CD0B4F5002F59D0B4F5801F6B
:1048800056D0B4F5001F53D0B4F5800F50D0B4F516
:10489000000F4DD0B4F1807F4AD0B4F1007F47D0F3
:1048A000B4F1806F44D0B4F1006F41D045488442E8
:1048B0003ED0454884423BD04448844238D04448A6
:1048C000844235D04348844232D0434884422FD07A
:1048D000424884422CD04248844229D041488442F4
:1048E00026D04148844223D04048844220D04048CA
:1048F00084421DD0B4F1102F1AD03E48844217D004
:104900003D48844214D03D48844211D03C48844202
:104910000ED03C4884420BD03B48844208D03B48F0
:10492000844205D040F256210FF2F000FCF7CCFC97
:10493000E00003D536480068060002E0354800680C
:104940000600264202D00120050001E000200500FB
:104950002800C0B270BD0000080002401C000240E8
:104960003000024010B5040014F0704F02D02A4805
:10497000044201D1002C05D14FF42B710FF29C00A1
:10498000FCF7A2FCE00002D50C48046001E00A48F4
:10499000046010BD44000240580002406C00024018
:1049A00080000240080402401C040240300402401F
:1049B000440402405804024004000240040402403F
:1049C0000F80FFFF01000010020000100400001023
:1049D000080000101000001020000010400000101F
:1049E0008000001000010010000200100004001000
:1049F000000800100020001000400010008000108F
:104A00000000011000000210000004100000081057
:104A100000040240000002400000F0EF453A5C79DB
:104A2000756E5CB0D9B6C8D4C65C676974687562C7
:104A30005C7770613930302D61695C41495F746524
:104A400073742856312E31B0E6295C53544D3332FD
:104A5000463130785F5374645065726970685F44A2
:104A600072697665725C7372635C73746D333266FF
:104A70003130785F646D612E63000000DFF87C01E7
:104A8000DFF87C110160DFF87401DFF87811016054
:104A9000704738B504000425B4F1006F03D3DFF884
:104AA0006C01844205D34FF4D3710FF29C10FCF7D4
:104AB0000BFC5FF4302000F0AFF80500EDB2042DE0
:104AC00020D1DFF84401006850F00200DFF838110F
:104AD0000860DFF83C010460DFF82C01006850F04A
:104AE0004000DFF8241108605FF4302000F094F8F3
:104AF0000500DFF81401006841F6FD710840DFF899
:104B0000081108602800C0B232BD70B582B0040040
:104B10000D00042600200090B4F1006F03D3DFF8ED
:104B2000EC00844205D340F2AE210FF21C10FCF7DA
:104B3000CBFB4FF4005000F06FF80600F6B2042EE5
:104B40002DD1DFF8C400006850F00100DFF8B81084
:104B5000086025804FF4005000F05EF80600F6B2C1
:104B6000042E13D1A01C0090280C009908804FF44B
:104B7000005000F051F80600DFF88C00006841F6A4
:104B8000FE710840DFF88010086008E0DFF8780068
:104B9000006841F6FE710840DFF86C1008603000D4
:104BA000C0B276BD10B5040034F03500002801D144
:104BB000002C05D140F2B5510FF28C00FCF784FBBC
:104BC0001448046010BD042012490968C90702D5C1
:104BD000012108000FE00F490968490702D50221A9
:104BE000080008E00B490968C90602D5032108003E
:104BF00001E004210800C0B2704700000420024018
:104C000023016745AB89EFCD10200240FFFF0F085D
:104C1000142002400C20024038B504000425FFF7A0
:104C2000D2FF0500EDB2012D06D1002C04D0FFF714
:104C3000CAFF0500641EF5E7002C01D10520050020
:104C40002800C0B232BD0000453A5C79756E5CB098
:104C5000D9B6C8D4C65C6769746875625C777061E0
:104C60003930302D61695C41495F74657374285631
:104C7000312E31B0E6295C53544D33324631307811
:104C80005F5374645065726970685F4472697665D9
:104C9000725C7372635C73746D3332663130785F4B
:104CA000666C6173682E630070B504000D00160019
:104CB00032002900200001F0EFFB200070BD000051
:104CC000002840F10880F446404200F004F850F01B
:104CD0000040604700280AD0B0FA80F18840D1F146
:104CE0009D01C905020672F1004241EB1020704798
:104CF00090EA010F44BF81F0004100F0F0B8431A80
:104D00004FF000423EBF5340C01AC918D3095FEAB2
:104D1000D05C13EB400F34BFB3EB410F40E07CEBB2
:104D2000D1530CD342EA012122D8D1EB402009D340
:104D3000400A28BF5FEA500140EBCC507047401A50
:104D400015D04002B0FA80F2521C9040400A4FEA5F
:104D50003C23B3EB026384BF00EB730007E040F435
:104D600000001A16DB07C2F10102D0401843704759
:104D7000182BFCDC31FA03F202FA03F3591A38BF9C
:104D800042F00102D2EB40203CBF4000ACF1010CEC
:104D90005FEACC5CC20572F100414CEB50207047D9
:104DA00013EB400F0FD24B0009D0ACEBD153022BC9
:104DB00003DB4902172BDDDD70479143401A4300A6
:104DC000D5D10020704713EB410FD0D36FF0000016
:104DD0007047000010B5FF2313EAD0541DBF13EA3B
:104DE000D1529C429A4239E0A41ADA0780EA0103C0
:104DF000134042EA012142EA0020421A3CBF641EED
:104E000001EB4202090AB2FBF1FE01FB1E22120273
:104E1000B2FBF1F001FB10226EF30F201202B2FB85
:104E2000F1FE4EEA00207F3406DDFE2C24DA53EA40
:104E3000500050EBC45010BDD4F1020401FB1E22FF
:104E400040F08071192C1DDC21FA04F0C4F120041B
:104E5000A140114371F10042584110BD9C421ABF5C
:104E600003EAD1529A420FE080EA010E0EF00043AD
:104E7000400004D0490016D143F0FF4010BD490066
:104E800008BFD343180010BD9C4205D1D21AF7D0F9
:104E900001F00041484010BD4A0212BF0846484098
:104EA00000F0004010BD4AB90902B1FA81F2914008
:104EB00044B1A418C00140F000409EE7C90141F090
:104EC000004152420002B0FA80F4A040141B94E763
:104ED00090EA010F44BF81F00041FFF710BF421A72
:104EE0003CBF801A89184FF0004CC0F3C752FF2A0C
:104EF00024D0C1F3C75313B3D21AD2F1190327DD5B
:104F00004CEA01214CFA03F321EA0303D140C20D1C
:104F10004CEA0020401834BF20EA0C004CEA500054
:104F2000D20553EA006373EB0C0C52EB10204200E5
:104F300012F1807F38BF7047C00DC005704749022D
:104F400012BF9A4200EB5120F8E7D2F11703D9D5EE
:104F5000704700004100090E7F3915D4D1F11F01BF
:104F600014D4400007D2C00140F00040C84048BF00
:104F70006FF000407047C00140F00040C8404CBF97
:104F80004FF00040404270470020704700424FF011
:104F9000004058BFC0437047010040F10880F4460C
:104FA000404200F004F851F000416047010009D090
:104FB000B0FA80F18840C91CC1F58461090501EB94
:104FC000D02140057047000070B44FF0004591EAD1
:104FD000030C44BF6B4001F09CB8841A71EB0306CC
:104FE00003D2001BB141121973414FF4001C1CEB9A
:104FF000410F34BF7CEB430443E00C0DA4EB13568C
:10500000352E50DC45EAC323DB0A45EAC121C9122B
:10501000B6F120050DDD63FA05F6EB4086EA0305DF
:10502000124218BF45F00105C01851F100010CD221
:1050300013E062FA06F5F2405540F3415A40B3409E
:10504000F3405A408018594107D349085FEA3000BD
:105050005FEA350528BF45F0010501F580114208DA
:1050600075F1004250F1000041EB045170BC4FF467
:10507000001C1CEB410F38BF70470020090D0905CB
:1050800070471CEB410F10D252EA43060BD0BCEB29
:10509000410F05D80C0DAB43661E342EB5DD02E082
:1050A000AB438018594170BC704770BC704700001A
:1050B000B0B581EA030C0CF0004C40F2FF7515EA24
:1050C00011541DBF15EA1357AC42AF4239E0E41941
:1050D00023EA455343F48013C90241F0004141EAF9
:1050E000505EC7021100A7FB020200284FF000002B
:1050F000EEFB01204FF00001E3FB072118BF42F057
:105100000102401800214941E3FB0E01A4F580642F
:105110000F0302D252004041494154F101046CDDB9
:10512000470872F1004250F1000051EB0451A1F523
:1051300080115CBF41EA0C01B0BD4CEA0551002072
:10514000B0BD05EA1357AC4214BFAF4241E050EA8C
:10515000410E1CBF52EA430E02E061460020B0BD82
:1051600024423C441BD15FEA070EF6D0090302BF7C
:1051700001460020AEF1140EB1FA81F7AEEB070440
:1051800001FA07FE0C37C7F1200100FA07F7C84003
:105190004EEA000E23EA455343F48013A2E733F0AE
:1051A0000043B3FA83F704BFB2FA82FE77440B3FA1
:1051B000E41BB7F1200E2FBF02FA0EF3BB40C7F17C
:1051C000200E22FA0EFE38BF43EA0E03BA40641CDA
:1051D00082E750EA410E14BF52EA430E6FF000011D
:1051E0004FF4001717EB430F8ABF194617EB410F17
:1051F000B5E74CEA05510020B0BDD4F10104B4F18B
:1052000020070FDAC4F12007520828BF42F001023C
:1052100010FA07F501FA07F7E1BF2A43E0403843E7
:10522000E1400FE0352C98DCC7F1200452EA40023F
:1052300020FA07F218BF42F0010231FA07F0A1404C
:105240000A43002172F1004250F1000051EB0C01C1
:10525000B0BD0000F0B540F2FF7581EA030C0CF020
:10526000004C15EA11541DBF15EA1357AC42AF426A
:10527000E5E0BC41C1F31301C3F31303801A994164
:1052800043F4801304D2641E400049418018594100
:10529000C90241EA5051B1FBF3F603FB1611A2FB20
:1052A0000675D7EBC020A94102D2761E801859415D
:1052B000C90241EA5051B1FBF3FE03FB1E11A2FBF0
:1052C0000E75D7EBC020A94103D2AEF1010E8018B4
:1052D0005941890241EA9051760546EA8E2EB1FB8A
:1052E000F3F603FB1611A2FB0675D7EB8020A9414C
:1052F00002D2761E80185941C90241EA50514EEA45
:10530000060EB1FBF3F603FB1611A2FB0675D7EBF5
:10531000C020A94102D2761E80185941C90241EA33
:105320005051B1FBF3F703FB1711A2FB0735D3EB89
:10533000C020A94167F100070CBF004247F00107F8
:1053400066F3D5274FEA1E31B80814F5806412DDE4
:10535000BD0775F1004250EB0E5051EB045111F5B1
:10536000801F5CBF41EA0C01F0BD4CF07F6141F051
:10537000E0410020F0BDBD076D0840EA0E5041F449
:105380008011D4F10104B4F120060ADAC4F1200638
:105390000200E04001FA06F3E1401843B240154331
:1053A0000EE0342C13DCC6F1200445EA40056D08FC
:1053B00020FA06F2154321FA06F0A1400D43002120
:1053C00075F1004250F1000051EB0C01F0BD0020DE
:1053D0005FEA0C01F0BDCFB992185B41B3FA83F7D5
:1053E00004BFB2FA82F6BF190B3FB7F120062FBFF8
:1053F00002FA06F3BB40C7F1200622FA06F638BFD0
:105400003343BA401CB1E419641E33E77F4231F0E4
:105410000041B1FA81F404BFB0FA80F6A4190B3C44
:10542000B4F120062FBF00FA06F1A140C4F1200616
:1054300020FA06F638BF3143A0403C1B1AE7AC42C5
:105440001ABF05EA1357AF4212E050EA41061CBFEB
:1054500052EA4306BFE750EA4107304661461CBFA7
:1054600041EA0551F0BD52EA430C08BFC143F0BD0B
:1054700000204FF4001616EB410F98BF16EB430FB8
:1054800008BF16EB410F24BFC14305E016EB430FE5
:105490000CBF61464CEA0551F0BD00004FEAF17CBB
:1054A000BCF1E04C2CBFBCF5001F11E05FEA4C0CD6
:1054B00034BFBCF17F5F2EE05FEA9C0C4FEA0C1C0E
:1054C0004FEA3C0CC10071F100414CEB5070704749
:1054D000C90241EA5051C00218BF41F0010141F038
:1054E00000414FEA6C50C0F10900212810D240EA77
:1054F000CC7CCCF1200C11FA0CF070F10040CCF116
:10550000200C21FA0CF00CF0004C40EB0C00704722
:105510004FEACC707047490011F5001F04D84FEADC
:10552000CC10FF30C0057047C81770474FF4000219
:10553000C10D23D0FF2929D230EAC15010437D315B
:10554000490828BF001880004FF0C073B0F1906088
:1055500006D452080ED2C01A9B18D2EB4000F8D5E0
:10556000520806D2C0189B1AD2EB4000F1D552085F
:10557000F8D35B1E580850EBC1507047B0FA80F169
:1055800008398840F9D0D1F10101D8E7FF29F4D0DA
:10559000D042F2D84000F0D0C84300F0B5BF0000C0
:1055A0005FF0FF0C1CEAD05114BF614506E0C1104A
:1055B000400721F0E04101F16051704779B900F0F6
:1055C000004100020AD0B0FA80FC00FA0CF001F1B0
:1055D0006051A1EB0C5101EBD02140057047410215
:1055E0000CBF40F4E0016FF00001002070470000A4
:1055F0004FF4001C1CEB410F94BF1CEB430F09E060
:1056000041EA030C50EA4C0C52EA0C0C03D28B42D8
:1056100008BF8242704714BF994290427047000011
:105620004FF0807C1CEB400F94BF1CEB410F05E05A
:1056300040EA010C5FEA4C0C01D28842704718BF67
:1056400081427047FF2212EAD05C1DBF12EAD1539B
:10565000944593422BE09C44D30780EA01021A4010
:1056600043EA002043EA0121A1FB0030410038BF9A
:1056700040007CF17F010BDBFE294ADA5B0842EA3D
:10568000C15153EA006373F1004C51EB1020704795
:10569000D1F1080CDCF120012FDB5B0810FA01F1DD
:1056A0000B4373F1004120FA0CF0504170479445D0
:1056B0001CBF02EAD153934280EA010202F0004289
:1056C0001DD0400019D0490017D05BB9634514D0F4
:1056D0000902B1FA81F39940BCEB030CC00140F020
:1056E0000040C1E70002B0FA80FC10FA0CF0B3EB06
:1056F0000C0CC90141F00041B6E7100070474000B2
:105700000AD0490008D010F1807F94BF11F1807F4A
:1057100002E042F0FF407047D0437047002200F0A3
:10572000F9BE0000F446400D40EAC120490006D20F
:1057300000F013F8004248BF6FF00040604700F0EF
:105740000CF84FF0004188428CBF08464042604749
:10575000400D40EAC12049000CD240F00040490D04
:10576000A1F58061491C05D4D1F11F0154BFC84087
:10577000C01770474FF000007047000000000000A5
:105780002DE9F84C0FB48AB0DDE90C01CDE9040134
:105790000B98C0F30A5040F2FF71884213D00128E1
:1057A00007DA0AA801F062F80128A4BF0026002445
:1057B00012DA40F2FE310B9A61F31E520B92461A36
:1057C0004FF0FF3408E000260B98000301D10A983F
:1057D00008B1022400E00124002104A801F068F8C7
:1057E0000546169808B10021018035B9DDE90C2382
:1057F0000020002101F09CF815D0002C16D536B2FF
:10580000012E18D1DDE90A230020DFF8781301F01A
:105810008FF808D0012D0ED1DDE90A23DFF86813D7
:1058200001F086F83AD1DFF86413A8E1022C04D124
:10583000DDE90A01A3E1012D5BDB022D08BFDDE9F3
:105840000C0100F09C81012C26D10B9800280D98AA
:1058500007D4002802D50020002190E10020CC4987
:105860008DE100280BD4002DF8D14FF0FF3104A8B2
:1058700001F01EF80028F1D50020C6497FE1002D77
:10588000E9D14FF0FF3104A801F012F80028E2D569
:1058900000204FF0004172E1012D09D10D98002840
:1058A00036B202D4012ED9DAD5E7012ED3DAD5E704
:1058B0000D9800280CD4002DCDD14FF0FF3104A855
:1058C00000F0F6FF0028C6D50B980028C3D5DFE707
:1058D00001F03EF822210160002DBFD14FF0FF31D1
:1058E00004A800F0E5FF0028B8D50B980028B5D52E
:1058F000C2E70B9800280AD5002D08D501F028F83A
:10590000212101604FF0FF306FF0004137E1DDE908
:105910000A0100220023FFF76BFE38BF00270BD3DC
:10592000DDE90A0181F00041CDE90A014FF0FF31C4
:1059300004A800F0BDFF0746012E14D1DDE90A01DD
:10594000954A964B00F0B2FB0DD2002400208F49FF
:10595000CDE90601DDE90A234FF08041FFF7A8FBFE
:10596000CDE90A011FE0874DDDE90A2300208C49BB
:10597000FFF79EFB00222B46FFF726FBFFF7D2FE28
:10598000A0F120042046FFF707FB02460B4600204B
:105990008449FFF78DFB02460B4600202946FFF79E
:1059A00013FBCDE906010FF2202000EB441000901C
:1059B000DDE90A01DDE9062300F0A2FB04460D46FD
:1059C000DDE90A23DDE90601FFF7FEFA02460B4690
:1059D00020462946FFF73EFCCDE90801DDE9082312
:1059E000DDE90801FFF764FB82468B46CDE90A45F5
:1059F00000F0C3FE52465B46FFF75AFBDDE90A237F
:105A000000F07EFB04460D4600206049DDE90623D8
:105A100000F076FB02460B4600204FF08041FFF776
:105A200047FB22462B46FFF7CFFADDE90823FFF7B5
:105A30003FFB02460B46DDE90A01FFF7C5FA0446C3
:105A40000D46594A594BFFF705FCCDE90401304694
:105A5000FFF7A2FACDE90601DDE90601009ED6E9CD
:105A60000023FFF7B1FADDE90423FFF7ADFACDE932
:105A70000401DDE90C23DDE90401FFF719FBCDE9A1
:105A80000201DDE902010022494B00F00FFB64D363
:105A9000DDE902010122474BFFF7AAFD61D9DDE9EB
:105AA00002010022002300F001FBDDE9022339BFDF
:105AB0000020354900203349FFF786FAFFF732FE10
:105AC000064622462B46DDE90C01FFF7F1FACDE947
:105AD0000201009AD2E902011446D4E90423FFF737
