:020000040800F2
:10000000A82F0020558500086D8200086F82000827
:1000100071820008738200087582000800000000E9
:1000200000000000000000000000000077820008CF
:1000300079820008000000007B8200087D820008B1
:1000400095850008998500089D850008A185000810
:10005000A5850008A9850008AD850008B1850008C0
:10006000B5850008B9850008BD850008C185000870
:10007000FB820008C9850008CD850008D1850008ED
:10008000D5850008D9850008DD850008E1850008D0
:10009000E5850008E9850008ED850008F185000880
:1000A000F5850008F9850008FD850008018600082F
:1000B000858200081F8300080D860008118600084D
:1000C00015860008198600081D860008218600088C
:1000D00025860008298600082D860008C1820008B0
:1000E00035860008398600083D86000841860008EC
:1000F00045860008498600084D860008518600089C
:100100005586000859860008A58200086186000807
:1001100065860008698600086D86000871860008FB
:1001200075860008798600087D86000881860008AB
:1001300010B50400DFF89405844243D0B4F1804F39
:1001400040D0DFF88C0584423CD0DFF8880584423B
:1001500038D0DFF88405844234D0DFF8800584424B
:1001600030D0DFF87C0584422CD0DFF8780584425B
:1001700028D0DFF87405844224D0DFF8700584426B
:1001800020D0DFF86C0584421CD0DFF8680584427B
:1001900018D0DFF86405844214D0DFF8600584428B
:1001A00010D0DFF85C0584420CD0DFF8580584429B
:1001B00008D0DFF8EC07844204D07C21DFF8480542
:1001C00001F048FADFF8040584420AD101214FF416
:1001D000006001F0D9FB00214FF4006001F0D4FB76
:1001E000DDE0B4F1804F08D10121012001F0F5FBE1
:1001F0000021012001F0F1FBD1E0DFF8D4048442BA
:1002000008D10121022001F0E8FB0021022001F0C9
:10021000E4FBC4E0DFF8BC04844208D101210420DF
:1002200001F0DBFB0021042001F0D7FBB7E0DFF891
:10023000A804844208D10121082001F0CEFB00214E
:10024000082001F0CAFBAAE0DFF89004844208D13C
:100250000121102001F0C1FB0021102001F0BDFBA5
:100260009DE0DFF87C04844208D10121202001F0C8
:10027000B4FB0021202001F0B0FB90E0DFF8640423
:1002800084420AD101214FF4005001F07DFB00218E
:100290004FF4005001F078FB81E0DFF84C04844219
:1002A0000AD101215FF4002001F06EFB00215FF410
:1002B000002001F069FB72E0DFF8300484420AD1CB
:1002C00001215FF4801001F05FFB00215FF48010DA
:1002D00001F05AFB63E0DFF8180484420AD10121DF
:1002E0005FF4001001F050FB00215FF4001001F0FA
:1002F0004BFB54E0DFF8FC03844208D1012140208D
:1003000001F06BFB0021402001F067FB47E0DFF8C4
:10031000E803844208D10121802001F05EFB002126
:10032000802001F05AFB3AE0DFF8D00384420AD182
:1003300001214FF4807001F050FB00214FF48070D8
:1003400001F04BFB2BE0DFF8B80384420AD1012116
:100350005FF4803001F018FB00215FF4803001F081
:1003600013FB1CE0DFF89C0384420AD101215FF4F7
:10037000003001F009FB00215FF4003001F004FBC4
:100380000DE0DFF81C06844209D101215FF48020D2
:1003900001F0FAFA00215FF4802001F0F5FA10BDB7
:1003A00070B504000D000026DFF82003844243D01E
:1003B000B4F1804F40D0DFF8180384423CD0DFF81E
:1003C0001403844238D0DFF81003844234D0DFF8BD
:1003D0000C03844230D0DFF8080384422CD0DFF8CD
:1003E0000403844228D0DFF80003844224D0DFF8DD
:1003F000FC02844220D0DFF8F80284421CD0DFF8EF
:10040000F402844218D0DFF8F002844214D0DFF8FE
:10041000EC02844210D0DFF8E80284420CD0DFF80E
:10042000E402844208D0DFF87C05844204D0E52150
:10043000DFF8D40201F00EF96888002810D068882F
:1004400010280DD0688820280AD06888402807D056
:100450006888602804D0E621DFF8AC0201F0FAF8E1
:10046000E88800280ED0E8884FF48071884209D0CF
:10047000E8884FF40071884204D0E721DFF8880251
:1004800001F0E8F820880600DFF84002844212D02C
:10049000DFF8500284420ED0B4F1804F0BD0DFF869
:1004A0003002844207D0DFF82C02844203D0DFF808
:1004B0002802844204D14FF68F70064068880643B4
:1004C000DFF81802844208D0DFF81402844204D016
:1004D0004FF6FF400640E88806432680A888A0859E
:1004E00028882085DFF8E40184420FD0DFF8F4018A
:1004F00084420BD0DFF80802844207D0DFF8040200
:10050000844203D0DFF89C04844201D1287A2086FB
:100510000120A08270BD2DE9F04104000D000026ED
:1005200000275FF00008DFF8A401844224D0B4F172
:10053000804F21D0DFF8980184421DD0DFF894016C
:10054000844219D0DFF89001844215D0DFF894017D
:10055000844211D0DFF8900184420DD0DFF894017D
:10056000844209D0DFF89801844205D040F26D1131
:10057000DFF8940101F06EF82888002814D028884C
:10058000102811D0288820280ED0288830280BD099
:100590002888602808D02888702805D04FF4B771C3
:1005A000DFF8640101F056F86888002808D06888F0
:1005B000012805D040F26F11DFF84C0101F04AF834
:1005C0002889002808D02889022805D04FF4B8715E
:1005D000DFF8340101F03EF8208C4FF6EF7108404F
:1005E0002084208C0700A0888046208B060048F6D7
:1005F000FF7006404FF6FF400640288856EA002666
:100600004FF6DF700740288957EA0017688857EAD5
:100610000017DFF8B800844203D0DFF8C800844236
:100620004BD1A888002808D0A888042805D040F21B
:100630008D11DFF8D40001F00DF86889002808D08A
:100640006889082805D04FF4C771DFF8BC0001F0B5
:1006500001F8E8894FF40071884207D0E889002842
:1006600004D040F28F11284800F0F4FFA8894FF41D
:100670008071884207D0A889002804D04FF4C8713F
:10068000214800F0E7FF4FF67F700740688957EA7E
:1006900000174FF6BF700740A88857EA00174FF6BB
:1006A000FF3010EA08084FF2FF7010EA0808A88926
:1006B00058EA8008E88958EA8008A4F8048026836C
:1006C000E88820872784BDE8F0810000002C0140E5
:1006D0000004004000080040000C004000100040F2
:1006E0000014004000340140004C01400050014023
:1006F0000054014000180040001C00400020004051
:100700000040014000440140F413000838B50400E3
:100710000D00288800280ED0288804280BD02888AF
:10072000082808D028880C2805D04FF41371DFF86A
:100730005C0400F08FFFA88801280BD0A88802284D
:1007400008D0A888032805D040F24D21DFF83C04EA
:1007500000F080FFE88800280ED0E88804280BD03D
:10076000E888082808D0E8880C2805D040F24E21F7
:10077000DFF8180400F06EFF2889102805D340F236
:100780004F21DFF8080400F065FFDFF8CC03844256
:1007900012D0DFF8C80384420ED0B4F1804F0BD0E2
:1007A000DFF8BC03844207D0DFF8B803844203D0EB
:1007B000DFF8B40384420CD16888002818D0688818
:1007C000022815D04FF41571DFF8C00300F042FF86
:1007D0000EE0688800280BD06888022808D0688856
:1007E0000A2805D04FF41671DFF8A00300F032FF9D
:1007F000288800284AD1DFF8600384423BD0B4F156
:10080000804F38D0DFF85803844234D0DFF85403E7
:10081000844230D0DFF8500384422CD0DFF83C0310
:10082000844228D0DFF84403844224D0DFF8400318
:10083000844220D0DFF83C0384421CD0DFF8380328
:10084000844218D0DFF83403844214D0DFF8300338
:10085000844210D0DFF82C0384420CD0DFF8280348
:10086000844208D04E48844205D04FF41771DFF817
:100870001C0300F0EFFE2B89AA886988200000F095
:100880000CFDE988200000F007FB88E02888042898
:1008900033D1DFF8C402844224D0B4F1804F21D098
:1008A000DFF8BC0284421DD0DFF8B802844219D0C0
:1008B000DFF8B402844215D0DFF8A002844211D0E0
:1008C000DFF8A80284420DD0DFF8AC02844209D0E0
:1008D000DFF8B002844205D040F26621DFF8AC02B6
:1008E00000F0B8FE2B89AA886988200000F00AFD74
:1008F000E988200000F02FFB51E02888082827D144
:10090000DFF85402844218D0B4F1804F15D0DFF8DC
:100910005002844211D0DFF84C0284420DD0DFF83F
:100920004802844209D0DFF83402844205D04FF4F3
:100930001C71DFF8580200F08DFE2B89AA886988A7
:10094000200000F01BFDE988200000F04CFB26E0B1
:10095000DFF80402844218D0B4F1804F15D0DFF8DC
:100960000002844211D0DFF8FC0184420DD0DFF890
:10097000F801844209D0DFF8E401844205D040F256
:100980007A21DFF8080200F065FE2B89AA886988C1
:10099000200000F061FDE988200000F05BFB31BD24
:1009A000004801400048014038B504000D00DFF860
:1009B000A801844244D0B4F1804F41D0DFF8A001B7
:1009C00084423DD0DFF89C01844239D0DFF89801A1
:1009D000844235D0DFF86C02844231D0DFF86802FF
:1009E00084422DD0DFF87401844229D0DFF87C01E5
:1009F000844225D0DFF87801844221D0DFF87401E9
:100A000084421DD0DFF87001844219D0DFF86C01F8
:100A1000844215D0DFF86801844211D0DFF8640108
:100A200084420DD0DFF86001844209D0DFF81C0257
:100A3000844205D040F22731DFF8500100F00AFE71
:100A4000EDB2002D08D0EDB2012D05D04FF44A7162
:100A5000DFF8380100F0FEFDEDB2002D04D0208853
:100A600050F00100208004E020884FF6FE7108401D
:100A7000208031BD70B504000D001600DFF8D800ED
:100A8000844244D0B4F1804F41D0DFF8D400844296
:100A90003DD0DFF8D000844239D0DFF8CC0084426A
:100AA00035D0DFF8A001844231D0DFF89C018442C8
:100AB0002DD0DFF8A800844229D0DFF8B0008442AE
:100AC00025D0DFF8AC00844221D0DFF8A8008442B2
:100AD0001DD0DFF8A400844219D0DFF8A0008442C2
:100AE00015D0DFF89C00844211D0DFF898008442D2
:100AF0000DD0DFF89400844209D0DFF85001844221
:100B000005D040F26931DFF8840000F0A3FD4FF416
:100B10007F40054202D1ADB2002D05D140F26A31CD
:100B2000DFF8680000F096FDF6B2002E08D0F6B2AD
:100B3000012E05D040F26B31DFF8500000F08AFD45
:100B4000F6B2002E03D0A0892843A08102E0A0893C
:100B5000A843A08170BD0000002C0140003401407A
:100B60000004004000080040000C0040004C014020
:100B7000005001400054014000180040001C00409B
:100B8000002000400040014000440140F4130008F0
:100B900070B504000D001600DFF81802844241D041
:100BA000B4F1804F3ED0DFF8100284423AD0DFF833
:100BB0000C02844236D0DFF80802844232D0214849
:100BC00084422FD0204884422CD0DFF8F8018442A0
:100BD00028D0DFF8F401844224D0DFF8F801844201
:100BE00020D0DFF8F40184421CD0DFF8E001844219
:100BF00018D0DFF8E801844214D0DFF8E401844221
:100C000010D0DFF8CC0184420CD0DFF8D801844248
:100C100008D00E48844205D040F29941DFF8C8015F
:100C200000F018FDB6B2002E08D0B6B2012E05D0E5
:100C300040F29A41DFF8B00100F00CFD2585A68254
:100C400070BD00000010004000140040004801404A
:100C500070B504000D000026DFF85801844224D04E
:100C6000B4F1804F21D0DFF8500184421DD0DFF86D
:100C70004C01844219D0DFF84801844215D0DFF8D6
:100C80004401844211D0DFF8400184420DD0DFF8E6
:100C90003C01844209D0DFF83801844205D040F29B
:100CA000CF41DFF8440100F0D5FCADB2002D1AD0E1
:100CB000ADB2102D17D0ADB2202D14D0ADB2302D65
:100CC00011D0ADB2402D0ED0ADB2502D0BD0ADB283
:100CD000602D08D0ADB2702D05D04FF49A61DFF8C9
:100CE000080100F0B7FC208906004FF68F7006401F
:100CF0002E43268170BD38B504000D002D48844276
:100D00003DD0B4F1804F3AD02B48844237D02B48A5
:100D1000844234D02A48844231D0DFF8D40084425F
:100D20002DD0DFF8D000844229D02648844226D036
:100D30002548844223D0DFF89C0084421FD0DFF88E
:100D4000980084421BD02148844218D0DFF88C00E0
:100D5000844214D0DFF88800844210D01C488442BA
:100D60000DD0DFF88000844209D0DFF88000844293
:100D700005D040F28251DFF8700000F06BFCEDB25C
:100D8000002D08D0EDB2012D05D040F28351DFF8DF
:100D9000580000F05FFCEDB2002D04D0208850F028
:100DA0008000208004E020884FF67F71084020807A
:100DB00031BD0000002C014000040040000800404C
:100DC000000C004000340140004C0140001800407D
:100DD000004001400050014000540140001C004010
:100DE0000020004000440140F41300080048014086
:100DF000001000400014004038B504000D001D48EC
:100E000084421CD0B4F1804F19D01C48844216D0C3
:100E10001B48844213D01B48844210D01A48844295
:100E20000DD01A4884420AD01948844207D0194884
:100E3000844204D040F6B2010F4800F00BFCADB282
:100E4000042D0DD0ADB2052D0AD0ADB2062D07D0C0
:100E5000ADB2072D04D040F6B301074800F0FAFB0D
:100E600020894FF6F871084020812089284320818D
:100E700031BD0000002C0140F413000800040040C4
:100E800000080040000C004000340140004C0140CC
:100E9000001800400040014038B504000D00DFF8A4
:100EA000240284423CD0B4F1804F39D0DFF81802DC
:100EB000844235D0DFF81402844231D0DFF81002CA
:100EC00084422DD0DFF80C02844229D0DFF80C02D6
:100ED000844225D0DFF81002844221D0DFF80C02D2
:100EE00084421DD0DFF8F801844219D0DFF80002F7
:100EF000844215D0DFF8FC01844211D0DFF8E40110
:100F000084420DD0DFF8F001844209D0DFF8C80137
:100F1000844205D040F63211DFF85C0400F09AFB01
:100F2000ADB2002D0ED0ADB2042D0BD0ADB2082D58
:100F300008D0ADB20C2D05D040F63311DFF83804DF
:100F400000F088FB208B4FF6F37108402083208B44
:100F50002843208331BD38B504000D00DFF864015B
:100F6000844224D0B4F1804F21D0DFF85C01844268
:100F70001DD0DFF85801844219D0DFF854018442B3
:100F800015D0DFF85001844211D0DFF850018442BF
:100F90000DD0DFF84C01844209D0DFF848018442CB
:100FA00005D040F64811DFF8D00300F053FBADB296
:100FB000002D0ED0ADB2042D0BD0ADB2082D08D04F
:100FC000ADB20C2D05D040F64911DFF8AC0300F0AE
:100FD00041FB208B4FF2FF3108402083208B50EAE9
:100FE0000520208331BD38B504000D00354884420A
:100FF00015D0B4F1804F12D0334884420FD033481B
:1010000084420CD03248844209D0DFF8C8008442C0
:1010100005D040F65E11DFF8600300F01BFBADB2B7
:10102000002D0ED0ADB2042D0BD0ADB2082D08D0DE
:10103000ADB20C2D05D040F65F11DFF83C0300F097
:1010400009FBA08B4FF6F3710840A083A08B2843C7
:10105000A08331BD38B504000D001A48844214D075
:10106000B4F1804F11D0184884420ED01748844202
:101070000BD01748844208D01648844205D040F669
:101080007411DFF8F40200F0E5FAADB2002D0ED0D5
:10109000ADB2042D0BD0ADB2082D08D0ADB20C2DE1
:1010A00005D040F67511DFF8D00200F0D3FAA08B1E
:1010B0004FF2FF310840A083A08B50EA0520A083A7
:1010C00031BD0000002C0140000400400008004039
:1010D000000C00400034014000480140004C014039
:1010E0000018004000400140005001400054014001
:1010F000001C004000200040004401402DE9F04168
:1011000004000D00002600275FF00008DFF8BC0394
:10111000844243D0B4F1804F40D0DFF8B40384421E
:101120003CD0DFF8B003844238D0DFF8AC0384420F
:1011300034D0DFF8A803844230D0DFF8A40384421F
:101140002CD0DFF8A003844228D0DFF8A00384422B
:1011500024D0DFF8A403844220D0DFF8A003844227
:101160001CD0DFF88C03844218D0DFF8940384424B
:1011700014D0DFF89003844210D0DFF87803844263
:101180000CD0DFF88403844208D0DFF85C0384428B
:1011900004D040F64B21784800F05CFAADB2012D46
:1011A00019D0ADB2022D16D0ADB2042D13D0ADB210
:1011B000082D10D0ADB2102D0DD0ADB2202D0AD01B
:1011C000ADB2402D07D0ADB2802D04D040F64C21F9
:1011D000694800F03FFA208A28400700A08928408B
:1011E0008046BFB2002F07D01FFA88F8B8F1000F71
:1011F00002D00120060001E0002006003000C0B24D
:10120000BDE8F08138B504000D00B048844234D008
:10121000B4F1804F31D0AE4884422ED0AD488442E4
:101220002BD0AD48844228D0AC48844225D0AC486D
:10123000844222D0AB4884421FD0AC4884421CD0A8
:10124000AD48844219D0AD48844216D0A8488442A3
:1012500013D0AB48844210D0AA4884420DD0A54890
:1012600084420AD0A848844207D09F48844204D0D0
:1012700040F67521404800F0EDF94FF47F400542FB
:1012800002D1ADB2002D04D140F676213A4800F0EB
:10129000E1F9ADB2E843208231BDF0B4002500246D
:1012A000068C4FF6FE773E400684068B3500068C92
:1012B00034004FF60C76354052EA03163543834E20
:1012C000B0420ED0874EB0420BD0B0F1804F08D064
:1012D0007F4EB04205D07F4EB04202D07E4EB0422B
:1012E00006D14FF6FD76344051F00106344305E057
:1012F0004FF6F576344051F00106344305830484FB
:10130000F0BC7047F0B4002600240025078C4FF68F
:10131000EF7C1CEA07070784078B3E00078C3C0024
:101320000F013D0040F6FF473E4056EA033656EABD
:101330000226664FB8420ED06A4FB8420BD0B0F1C9
:10134000804F08D0624FB84205D0624FB84202D0F9
:10135000614FB84206D14FF6DF773C4055F0100799
:101360003C4305E04FF65F773C4051F010073C43AB
:1013700006830484F0BC7047F4130008F0B4002620
:1013800000240025078C4FF6FF6C1CEA0707078432
:10139000878B3E00078C3C000F023D004FF60C7718
:1013A0003E4052EA03173E43484FB8420ED04D4FDD
:1013B000B8420BD0B0F1804F08D0454FB84205D0AD
:1013C000444FB84202D0444FB84207D14FF6FF57BE
:1013D0003C404FF480772F433C4306E04FF2FF57E9
:1013E0003C404FF480770F433C4386830484F0BC39
:1013F00070470000453A5C79756E5CB0D9B6C8D4C8
:10140000C65CB9A4D7F7CEC4B5B55CB2E2BFD832DA
:101410002E305C534F555243455C77706139303004
:101420002D61692056302E355C53544D3332463190
:1014300030785F5374645065726970685F44726994
:101440007665725C7372635C73746D3332663130CF
:10145000785F74696D2E6300F0B4002600240025C7
:10146000078C4EF6FF7C1CEA07070784878B3E003B
:10147000078C3C000F033D0040F6FF473E4056EA14
:10148000022656EA0336114FB8420ED0154FB84225
:101490000BD0B0F1804F08D00D4FB84205D00D4FA2
:1014A000B84202D00C4FB84206D14DF6FF773C400F
:1014B00055F480573C4305E047F6FF573C4051F454
:1014C00080573C4386830484F0BC7047002C014065
:1014D0000004004000080040000C004000100040E4
:1014E000001400400034014000480140004C01401D
:1014F00000180040004001400050014000540140ED
:10150000001C0040002000400044014010B58AB09B
:10151000002400F0DDFA04A800F037F900F06CFCBC
:1015200000F07EFC00F0AFFB4FF4165000F0E5FD3C
:1015300000F017FE00F05EFE00F0A2FD00F062FD7C
:1015400000F090FD01F026F900F0E9FC01F08CF9C3
:10155000384840F21A410180364840F20541418046
:10156000344840F21A418180324840F20441C1803F
:10157000304840F2054101812E4840F2044141814A
:101580002C4840F2014181812A4840F20241C18148
:10159000284840F2034101820121274801F066FBFF
:1015A00001212648FFF700FA00F083FF2448006875
:1015B0003F2835D1234801F0AFFF224802F09DFAC1
:1015C000204802F04AFA1F491F4802F033FB1F4827
:1015D0000078002824D002F0CAFC002808D001219D
:1015E00000A802F0C7FC00A80FC802F085FD17E0B4
:1015F000E4B2032094FBF0F100FB1140002803D17A
:10160000002002F025FD0AE0E4B2052094FBF0F191
:1016100000FB1140002802D1002002F043FD641CB1
:101620000B4800880028BFD00948008802F0A8FEB7
:10163000BAE70000C81F002030000240000400404C
:10164000842B002000000020B82900209E2B0020C1
:101650009C2B0020FEE750F8041B61B150F8042BCE
:10166000D30744BFA9F101039A18002342F8043BB1
:10167000091FFAD1EFE7704710B50400002C0BD01A
:10168000B4F5803F08D0B4F5802F05D04FF48871B1
:101690000FF2D830FFF7DEFFDFF89003006830F478
:1016A0008030DFF888130860DFF88003006830F4CA
:1016B0008020DFF8781308602000B0F5803F03D069
:1016C000B0F5802F09D011E0DFF86003006850F416
:1016D0008030DFF85813086008E0DFF85003006836
:1016E00050F4A020DFF844130860FFE710BD38B5C0
:1016F00004000025002C0ED0B4F5804F0BD0B4F5BB
:10170000004F08D0B4F5404F05D040F201310FF240
:101710005C30FFF79FFFDFF818030068050035F421
:1017200040452543DFF80803056031BD10B50400CE
:101730004FF4807084420DD04FF40070844209D081
:101740004FF44070844205D040F271310FF21C30EA
:10175000FFF780FFDFF8DC0200682043DFF8D412D7
:10176000086010BD10B50400E4B2002C08D0E4B24B
:10177000012C05D040F27F310FF2F020FFF76AFF15
:10178000DFF8B402E4B2046010BD30B400210022DE
:1017900000230024DFF898522D6815F00C0529006D
:1017A0000D00002D04D0042D06D0082D08D02EE009
:1017B000DFF8885205602DE0DFF88052056029E0EF
:1017C000DFF86C522D6815F470152A00DFF86052AE
:1017D0002D6815F480352B00920C921C002B05D13E
:1017E000DFF85C5205FB02F505600FE0DFF84052C0
:1017F0002D68AD0305D5DFF8485205FB02F50560FD
:1018000004E0DFF8385205FB02F5056002E0DFF87E
:101810002C520560DFF818522D6815F0F0052900EC
:101820000909DFF820524D5D2C000568E540456050
:10183000DFF8FC512D6815F4E0652900090ADFF88E
:1018400004524D5D2C004568E5408560DFF8E051AD
:101850002D6815F460552900C90ADFF8E8514D5D7F
:101860002C004568E540C560DFF8C4512D6815F4CB
:1018700040452900890BDFF8D0514D5D2C00C5682B
:10188000B5FBF4F5056130BC704738B504000D00B8
:10189000DFF8B801044201D1002C05D140F22A4101
:1018A0000FF2C810FFF7D6FEEDB2002D08D0EDB252
:1018B000012D05D040F22B410FF2B010FFF7CAFE08
:1018C000EDB2002D07D0DFF8880100682043DFF873
:1018D0008011086005E0DFF878010068A0435C49EA
:1018E000086031BD38B504000D005A48044201D1EA
:1018F000002C05D140F249410FF27010FFF7AAFE0B
:10190000EDB2002D08D0EDB2012D05D040F24A41D4
:101910000FF25810FFF79EFEEDB2002D05D04E4895
:10192000006820434C49086004E04B480068A0432D
:101930004949086031BD38B504000D0047480442EC
:1019400001D1002C05D14FF48D610FF22010FFF76B
:1019500081FEEDB2002D08D0EDB2012D05D040F290
:1019600069410FF20810FFF775FEEDB2002D05D0AA
:101970003B48006820433A49086004E03848006862
:10198000A0433749086031BD38B504000D00314827
:10199000044201D1002C05D140F2A3410FF2CC004A
:1019A000FFF758FEEDB2002D08D0EDB2012D05D0A5
:1019B00040F2A4410FF2B400FFF74CFEEDB2002D4F
:1019C00005D02848006820432649086004E02548DF
:1019D0000068A0432349086031BD38B504000D00FC
:1019E0001E48044201D1002C05D140F2C2410FF241
:1019F0007C00FFF72FFEEDB2002D08D0EDB2012DD7
:101A000005D040F2C3410FF26400FFF723FEEDB2B0
:101A1000002D05D01448006820431349086004E0F5
:101A200011480068A0431049086031BD0010024011
:101A300004100240201002403C04424200127A008E
:101A400000093D00DC1F002000200020A8FAFFFF55
:101A5000141002400200C0FF18100240003601813D
:101A60001C1002400C10024010100240453A5C79F4
:101A7000756E5CB0D9B6C8D4C65CB9A4D7F7CEC46D
:101A8000B5B55CB2E2BFD8322E305C534F555243ED
:101A9000455C7770613930302D61692056302E35C4
:101AA0005C53544D3332463130785F537464506523
:101AB000726970685F4472697665725C7372635CA8
:101AC00073746D3332663130785F7263632E6300F6
:101AD00080B54E48006850F001004C4908604C4801
:101AE00000684C4908404A490860484800684A492B
:101AF0000840464908604548006830F48020434962
:101B000008604348006830F4FE00414908604348DB
:101B10005FF41F01016000F005F841485FF00061CB
:101B2000016001BD80B500F001F801BD82B0002068
:101B30000190002000903548006850F4803033490F
:101B400008603248006810F4003000900198401C92
:101B500001900098002803D10198B0F5A06FF0D152
:101B60002A480068800302D50120009001E000208F
:101B700000900098012847D12A48006850F01000D2
:101B800028490860274800688008800025490860C7
:101B90002448006850F00200224908601C481C4993
:101BA000096801601A481A49096801601848006804
:101BB00050F48060164908601548006830F47C10C5
:101BC000134908601248006850F4A81010490860D2
:101BD0000E48006850F080700C4908600B4800689F
:101BE0008001FBD50A480068800880000849086029
:101BF0000748006850F00200054908600448006882
:101C000010F00C000828F9D102B070470010024013
:101C1000041002400000FFF8FFFFF6FE081002402B
:101C200008ED00E00020024040B2002809D540B293
:101C300010F00F02DFF8383AD2180B0102F8043C1A
:101C400004E040B2DFF8B02A0B018354704710B5AE
:101C50000400B4F1807F01D3012013E02002000AC8
:101C6000401EDFF8981A08600F215FF0FF30FFF781
:101C7000DBFFDFF88C0A00210160DFF8880A07210A
:101C80000160002010BD80B5DFF87C0A00210160F2
:101C9000DFF8740A01210171DFF86C0A002141713B
:101CA000DFF8640A5FF460218160DFF85C0A0021DC
:101CB000C160DFF8540A01210174DFF84C1ADFF823
:101CC0004C0A02F04FFC0321DFF8400A02F0DEFE6E
:101CD000002301220B21DFF8340A02F001FE002369
:101CE00002220C21DFF8240A02F0FAFD002303226D
:101CF0000D21DFF8180A02F0F3FD4FF4E041DFF8A0
:101D00000C0A02F09DFDDFF8080A00210160DFF8EF
:101D1000000A01210171DFF8F80900214171DFF8A3
:101D2000F0095FF460218160DFF8E4090021C160FF
:101D3000DFF8DC0901210174DFF8D419DFF8D409D8
:101D400002F010FC0421DFF8CC0902F09FFE002312
:101D500001220421DFF8BC0902F0C2FD00230222A7
:101D60000521DFF8B00902F0BBFD002303220721A3
:101D7000DFF8A00902F0B4FD002304220621DFF8F9
:101D8000940902F0ADFD4FF4E041DFF8880902F05C
:101D900057FD0121DFF8740902F0B2FCDFF86C098D
:101DA00002F0DCFCDFF8640902F0F1FC0028F9D154
:101DB000DFF8580902F00BFDDFF8500902F020FDB2
:101DC0000028F9D10121DFF84C0902F099FCDFF875
:101DD000440902F0C3FCDFF83C0902F0D8FC0028FB
:101DE000F9D1DFF8300902F0F2FCDFF8280902F03F
:101DF00007FD0028F9D101BD80B54FF48040FFF701
:101E000076FC01214120FFF740FD0121DFF80809A0
:101E1000FFF791FD012140F27D60FFF763FD01BDF9
:101E200080B5DFF8F8084FF480610180DFF8EC0836
:101E300003218170DFF8E4081821C170DFF8DC1895
:101E4000DFF8DC0802F08CFEDFF8D0084FF4006108
:101E50000180DFF8C8080421C170DFF8C018DFF87E
:101E6000C00802F07DFE0121DFF8B80803F02CF86D
:101E7000DFF8A80840210180DFF8A0080421C17024
:101E8000DFF89818DFF8A00802F06AFEDFF88C0887
:101E90004FF6FF710180DFF8840801218170DFF8BF
:101EA0007C080421C170DFF87418DFF8800802F0A4
:101EB00057FEDFF868084FF470510180DFF85C08C6
:101EC00003218170DFF854081021C170DFF84C182D
:101ED000DFF85C0802F044FEDFF84008F0210180E2
:101EE000DFF838080021C170DFF83018DFF8440847
:101EF00002F036FEDFF824080E210180DFF81C080E
:101F00000021C170DFF81418DFF81C0802F028FE69
:101F10004FF47051DFF8180802F06FFF01BD80B573
:101F200000215FF0006003F09CF94FF4A06003F023
:101F30002DF9DFF804081C210170DFF8FC070021EF
:101F40004170DFF8F40700218170DFF8EC07012110
:101F5000C170DFF8E40703F035F9DFF8DC07322160
:101F60000170DFF8D40701218170DFF8CC0701216F
:101F7000C170DFF8C40703F025F9DFF8BC07FF21C3
:101F80000170DFF8B40702218170DFF8AC0701218E
:101F9000C170DFF8A40703F015F9DFF89C072721CB
:101FA0000170DFF8940701214170DFF88C070021F0
:101FB0008170DFF884070121C170DFF87C0703F02E
:101FC00001F9DFF874070C210170DFF86C070121BB
:101FD0008170DFF864070121C170DFF85C0703F04E
:101FE000F1F8DFF854071D210170DFF84C070221DA
:101FF0008170DFF844070121C170DFF83C0703F06E
:10200000E1F801BDE0B55FF08040FEF791F80920EE
:10201000ADF800000020ADF8020040F2D560ADF848
:1020200004000020ADF8060000208DF8080000A98B
:102030005FF08040FEF7B4F901215FF08040FEF7C9
:102040005AFE1F215FF08040FFF7DCF801220121DA
:102050005FF08040FEF70EFD01215FF08040FEF74B
:10206000A3FC07BD80B5DFF8DC0600684FF47A7189
:10207000B0FBF1F0FFF7EBFD002800D0FEE701BD5B
:1020800000B585B0012240F22F21DFF8BC06FEF733
:102090007FFD0C20ADF804000220ADF80600012001
:1020A000ADF808000020ADF80A000F20ADF80C00D4
:1020B00001A9DFF89406FEF729FB0820ADF800001F
:1020C00048208DF8030003208DF8020000A9DFF8F6
:1020D000640602F045FD1F21DFF86C06FFF792F859
:1020E00001221021DFF86006FEF7C4FC0121DFF8B1
:1020F0005806FEF759FC05B000BD1FB5040000945A
:102100000020ADF804000020ADF806000020ADF876
:1021100008000020ADF80C000C20ADF80A0000A962
:10212000DFF8280603F0F8F801220221DFF8200684
:1021300000F0EFFD01228021DFF8100603F01FFA06
:1021400001224021DFF8040603F019FA0121DFF82B
:10215000FC0503F0DDF94021DFF8F00503F060FA3B
:102160001FBD00B58BB0DFF8E80500F0CFFBDFF84E
:10217000E4050090DFF8C8050190102002904FF4AC
:10218000807003900020049080200590002006902D
:1021900000200790002008904FF400500990002084
:1021A0000A9000A9DFF8A80500F090FCDFF8A80568
:1021B00000F0ACFBDFF89C050090DFF8A005019073
:1021C000002002904FF4967003900020089000A920
:1021D000DFF8840500F07AFC01220221DFF85C05BB
:1021E00000F097FD01220221DFF8640500F091FD67
:1021F0000BB000BD00B58BB04FF6FF70ADF810000E
:1022000040F2CF20ADF80C000020ADF81200002005
:10221000ADF80E0003A9DFF84805FEF7C1F800206D
:10222000ADF818000020ADF81A00DFF83805008876
:10223000ADF81E000220ADF8200006A9DFF8200549
:10224000FEF769F90020ADF800000020ADF80200AB
:102250000120ADF804000020ADF806000020ADF824
:10226000080000A9DFF8F804FEF750FA5021DFF863
:10227000F004FEF7EDFC0421DFF8E404FEF7BCFDFA
:102280000121DFF8DC04FEF7BDFF01220221DFF8A7
:10229000D004FEF7EFFB0BB000BD70B504000D00DD
:1022A0001600290089B2200002F035FD012852D025
:1022B000F6B20320DFF8B01400FB061040780428C3
:1022C00007D3F6B20320DFF8A01400FB06100021AC
:1022D0000170F6B20320DFF8901400FB061040787E
:1022E0000A280FD2F6B20320DFF87C1400FB061098
:1022F0004078401CF6B20321DFF86C2401FB062174
:1023000048707AE0F6B20320DFF85C1400FB061098
:102310008078012871D0F6B20320DFF84C1400FB5E
:1023200006108078002804D001213000C0B201F0EE
:10233000EBFDF6B20320DFF8301400FB061001219C
:102340008170DFF8280400880121B1408843DFF85C
:102350001C14088051E0F6B20320DFF80C1400FBD7
:1023600006100078042807D3F6B20320DFF8F8132C
:1023700000FB061000214170F6B20320DFF8E813DD
:1023800000FB0610007810280FD2F6B20320DFF809
:10239000D81300FB06100078401CF6B20321DFF8CA
:1023A000C82301FB0621087027E0F6B20320DFF8FE
:1023B000B81300FB0610807802281ED0F6B2032066
:1023C000DFF8A41300FB06108078002804D0022157
:1023D0003000C0B201F098FDF6B20320DFF8881398
:1023E00000FB061002218170DFF8800300880121C4
:1023F000B1400843DFF87413088070BD80B5002237
:102400008021DFF82803FFF748FF01224021C74859
:10241000FFF743FF02222021C448FFF73EFF0322BB
:102420001021C248FFF739FF04220821BF48FFF7F7
:1024300034FF05220421BD48FFF72FFF06220221A9
:10244000BA48FFF72AFF07220121B848FFF725FF06
:1024500008224FF40041B548FFF71FFF09224FF44F
:102460008041B248FFF719FF0A224FF40051AF48EC
:10247000FFF713FF0B224FF48051AC48FFF70DFF1D
:102480000C224FF40061A948FFF707FF0D224FF41B
:102490008061A648FFF701FF0E224FF40071A348A8
:1024A000FFF7FBFE0F224FF48071A048FFF7F5FE07
:1024B00001BD10B500200400E4B2042C21D2E4B226
:1024C000AB48205C0321A84A01FB002010F8010C56
:1024D000012810D1E4B2A748205C00280FD1E4B253
:1024E000A548205C00F00EF8002808D0E4B2A3480C
:1024F0000121215403E0E4B29E4800212154641CD0
:10250000DAE710BD10B50400E4B2042C01D30020BA
:1025100043E0E4B29A4810EBC400012100F8081C23
:10252000E4B2012C06D035D3032C1BD00ED3042CDF
:1025300024D02FE09348007850F0010091490870B2
:102540004FF400517A4800F095F825E08D48007866
:1025500050F002008B4908704FF48051744800F02D
:1025600089F819E08748007850F004008549087020
:102570004FF400616E4800F07DF80DE0814800786E
:1025800050F008007F4908704FF48061684800F0FF
:1025900071F801E0002000E0012010BD10B579487D
:1025A0000078002862D000200400E4B2042C5DD240
:1025B000E4B2734810F83400002855D0E4B27048F3
:1025C00010EBC4004068401CE4B26D4911EBC4013B
:1025D0004860E4B26A4810EBC40040680F2843D357
:1025E000E4B26748002100F83410E4B2644810EB0C
:1025F000C40000214160E4B2002C05D0022C1BD0A5
:102600000ED3032C24D02FE05E48007810F0FE009B
:102610005C4908704FF40051454800F034F823E05D
:102620005848007810F0FD00564908704FF480516A
:102630003F4800F028F817E05248007810F0FB00FF
:10264000504908704FF40061394800F01CF80BE065
:102650004C48007810F0F7004A4908704FF4806148
:10266000334800F010F8FFE7641C9EE710BD00003F
:1026700018ED00E038B504000D00290089B22000F3
:1026800002F0EBFB31BD38B504000D00290089B222
:10269000200002F0B2FB31BD10B582B00400002072
:1026A000009040F20110A4B2844201D3002021E046
:1026B0003548012101803548A4B204600121244835
:1026C00000F0D4FA00983249884201D2012000E09B
:1026D00000202D49097811F00101014203D0009832
:1026E000401C0090EEE700982949884201D1002063
:1026F00000E0012016BD000000E400E014E000E06E
:1027000018E000E010E000E0482B00200024014029
:102710005C2B0020002801400B000400882B0020C7
:10272000000C0140000C1A00001001400014014090
:1027300000180140000801408C2B00206C00024072
:102740003828002004200020000C004000480040F1
:102750001C00024004480040300002400C270020CA
:102760000004004008200020182A0020982B002098
:10277000FC1F0020902B0020F81F0020702B002051
:10278000282B0020A02B00209A2B002020000240A4
:10279000FFFF010080B501215FF0C050FFF7CBF8CB
:1027A000012003F079F85FF48030FEF765FF4FF405
:1027B0004070FEF7BBFF0120FEF7D4FF03F000F9E5
:1027C00003F0F9F84FF2234003F0D2F803F0F3F8E6
:1027D00001BD00002DE9F04104000D0016005FF07E
:1027E0000108414803F006FA052802D0342003F01E
:1027F000C7F9200003F03BF900200700BFB2B6B2D2
:10280000B74218D2384803F0F5F9052802D0342031
:1028100003F0B6F9BFB2B81055F82010BFB238199E
:1028200003F061F9042802D118F0010801E000204A
:1028300080463F1DE2E74046C0B2BDE8F08130B4BB
:10284000030000200400A4B292B2944209D2A4B2C0
:10285000A010A4B2A51053F8255041F82050241D13
:10286000F1E7002030BC704780B503F0F5F81F4851
:102870000078C0B2FF2810D01D480078C0B2FF28F1
:102880000BD01C480078C0B2FF2806D01A48007848
:10289000C0B2FF2801D0012000E00020002821D094
:1028A000122216491148FFF7CAFF0422144915489D
:1028B000FFF7C5FF0422124900A803F0E7F99DF8CD
:1028C0000000FF280ED19DF80100FF280AD19DF8D5
:1028D0000200FF2806D19DF80300FF2802D10A4814
:1028E0000021C16501BD0000A086010000D00308E1
:1028F00001D0030802D0030803D00308C81F00203A
:10290000142A002000E00308B829002010B50400B4
:10291000DFF86005844230D0DFF85C0584422CD0BB
:10292000DFF85805844228D0DFF85405844224D0CB
:10293000DFF85005844220D0DFF84C0584421CD0DB
:10294000DFF84805844218D0DFF84405844214D0EB
:10295000DFF84005844210D0DFF83C0584420CD0FB
:10296000DFF83805844208D0DFF83405844204D00B
:102970006E210FF24050FEF76DFE20684FF6FE719B
:102980000840206000202060002060600020A060DF
:102990000020E060DFF8DC04844208D1DFF80405A1
:1029A000006850F00F00DFF8FC1408608DE0DFF8DD
:1029B000C804844208D1DFF8EC04006850F0F0004D
:1029C000DFF8E014086080E0DFF8B004844208D14A
:1029D000DFF8D004006850F47060DFF8C8140860B5
:1029E00073E0DFF89C04844208D1DFF8B804006883
:1029F00050F47040DFF8AC14086066E0DFF884043F
:102A0000844208D1DFF89C04006850F47020DFF89D
:102A10009414086059E0DFF87004844208D1DFF8AC
:102A20008404006850F47000DFF8781408604CE00B
:102A3000DFF85804844208D1DFF86804006850F0D9
:102A40007060DFF8601408603FE0DFF844048442FF
:102A500008D1DFF85404006850F00F00DFF8481484
:102A6000086032E0DFF82C04844208D1DFF8380433
:102A7000006850F0F000DFF83014086025E0DFF85F
:102A80001804844208D1DFF82004006850F4706014
:102A9000DFF81414086018E0DFF80004844208D15D
:102AA000DFF80404006850F47040DFF8FC1308609D
:102AB0000BE0DFF8EC03844207D1DFF8EC03006899
:102AC00050F47020DFF8E013086010BD70B504000A
:102AD0000D000026DFF89C03844230D0DFF8980315
:102AE00084422CD0DFF89403844228D0DFF890038E
:102AF000844224D0DFF88C03844220D0DFF888039E
:102B000084421CD0DFF88403844218D0DFF88003AD
:102B1000844214D0DFF87C03844210D0DFF87803BD
:102B200084420CD0DFF87403844208D0DFF87003CD
:102B3000844204D0CE210FF27C30FEF78BFDA868D2
:102B4000102807D0A868002804D0CF210FF26430E5
:102B5000FEF780FDE868002803D0E868B0F5803F04
:102B600004D3D0210FF24C30FEF774FD28694028C1
:102B700007D02869002804D0D1210FF23830FEF7A1
:102B800069FD6869802807D06869002804D0D221CF
:102B90000FF22030FEF75EFDA86900280ED0A8696C
:102BA0004FF48071884209D0A8694FF400718842BF
:102BB00004D0D3210FF2FC20FEF74CFDE869002879
:102BC0000CD0E869B0F5806F08D0E869B0F5006F07
:102BD00004D0D4210FF2DC20FEF73CFD286A202827
:102BE00007D0286A002804D0D5210FF2C820FEF7AC
:102BF00031FD686AB0F5405F0FD0686AB0F5005FDC
:102C00000BD0686AB0F5805F07D0686A002804D0EE
:102C1000D6210FF2A020FEF71DFDA86AB0F5804F67
:102C200007D0A86A002804D0D7210FF28820FEF729
:102C300011FD20680600DFF874020640A868296AC2
:102C400008432969084369690843A9690843E96990
:102C50000843696A0843A96A084306432660E8688E
:102C600060602868A0606868E06070BD38B50400E6
:102C70000D00DFF80002844231D0DFF8FC0184420D
:102C80002DD0DFF8F801844229D0DFF8F401844226
:102C900025D0DFF8F001844221D0DFF8EC01844236
:102CA0001DD0DFF8E801844219D0DFF8E401844246
:102CB00015D0DFF8E001844211D0DFF8DC01844256
:102CC0000DD0DFF8D801844209D0DFF8D401844266
:102CD00005D04FF494710FF2DC10FEF7BBFCEDB29F
:102CE000002D08D0EDB2012D05D040F229110FF2D0
:102CF000C410FEF7AFFCEDB2002D04D0206850F0F8
:102D00000100206004E020684FF6FE71084020605A
:102D100031BD70B504000D001600DFF85801844283
:102D200031D0DFF8540184422DD0DFF850018442C5
:102D300029D0DFF84C01844225D0DFF848018442D5
:102D400021D0DFF8440184421DD0DFF840018442E5
:102D500019D0DFF83C01844215D0DFF838018442F5
:102D600011D0DFF8340184420DD0DFF83001844205
:102D700009D0DFF82C01844205D04FF4A4710FF282
:102D80003410FEF767FC35F00E00002801D1002D4D
:102D900005D140F249110FF21C10FEF75BFCF6B2B0
:102DA000002E08D0F6B2012E05D04FF4A5710FF217
:102DB0000410FEF74FFCF6B2002E03D02068284323
:102DC000206002E02068A843206070BD10B50400B8
:102DD000DFF8A000844231D0DFF89C0084422DD07F
:102DE000DFF89800844229D0DFF89400844225D08F
:102DF000DFF89000844221D0DFF88C0084421DD09F
:102E0000DFF88800844219D0DFF88400844215D0AE
:102E1000DFF88000844211D0DFF87C0084420DD0BE
:102E2000DFF87800844209D0DFF87400844205D0CE
:102E300040F275110FF27C00FEF70CFC606880B266
:102E400010BD10B5040014F0704F02D018480442B1
:102E500001D1002C05D14FF403710FF25800FEF799
:102E6000F9FBE00002D51048046001E00D48046061
:102E700010BD0000080002401C000240300002406B
:102E800044000240580002406C00024080000240B2
:102E9000080402401C040240300402404404024082
:102EA0005804024004000240040402400F80FFFF67
:102EB0000000F0EF453A5C79756E5CB0D9B6C8D4C5
:102EC000C65CB9A4D7F7CEC4B5B55CB2E2BFD83200
:102ED0002E305C534F555243455C7770613930302A
:102EE0002D61692056302E355C53544D33324631B6
:102EF00030785F5374645065726970685F447269BA
:102F00007665725C7372635C73746D3332663130F4
:102F1000785F646D612E63002DE9F84380460C00F4
:102F2000002600200700402F19DA8020DFF87411F6
:102F300000FB081030F9170002F0B4FE310002F077
:102F4000C9FE8146781C02F0ADFE0100484602F041
:102F500033FF310002F0AEFF06007F1CE3E73000D4
:102F600002F0EAFFA08300200500402D1EDA802039
:102F7000DFF8301100FB081030F91500B4F91C100F
:102F8000401A8021DFF81C2101FB082131F91510BE
:102F9000B4F91C20891A484302F0F0FFD4E9002359
:102FA00003F004F8C4E900016D1CDEE7D4E9000178
:102FB00000225FF0804303F06DF80022DFF8E83074
:102FC00003F03AF9C4E90001D4E9000103F058FA2A
:102FD00003F09EFA03F0D6FAC4E90001BDE8F183DC
:102FE0000CB42DE9F04180460F0006A80600D7E991
:102FF0000001DFF8302CDFF8303C03F0EBFA29D881
:1030000000200400B8F10100844221DA3068050094
:10301000361DD5E90001DFF80C2CDFF80C3C03F07D
:10302000D9FA13D8B868A96803F0ECFA05D2A868F1
:10303000B96802F04FFEA86008E0DFF8E40BB96859
:1030400002F048FEA96802F035FFA860641CD9E7C9
:103050000020B860BDE8F0015DF80CFBF0B400247E
:103060002300DBB2402B1AD2DBB28024DFF8BC5B3A
:1030700004FB0254DBB28025DFF8B06B05FB006572
:1030800035F81350DBB28026DFF8A07B06FB017613
:1030900036F81360AD1B24F813505B1CE1E7F0BC5D
:1030A000704700000C20002080848E41F0B583B072
:1030B000040001200500202006003F2D1DDAB54246
:1030C0000FDA00A914EBC60000F056F814EBC601A5
:1030D00014EBC50000F050F814EBC50100A800F097
:1030E0004BF820200700BE4204DBF61B022097FBB2
:1030F000F0F7F8E7BE196D1CDFE7F7BDF0B5040087
:103100000D0016002168286803F08EFA0700616838
:10311000686803F089FA0100380002F0DBFD3060D6
:103120002168686803F080FA07006168286803F086
:103130007BFA390002F0BEFE7060F0BD70B504008D
:103140000D0016002168286802F0B4FE3060616846
:10315000686802F0AFFE706070BD70B504000D00CD
:1031600016002068296802F0B5FD30606068696863
:1031700002F0B0FD706070BD02680A6042684A608B
:1031800070472DE9F34FADF50B7D0020DFF8A01A55
:1031900003F0B6FA8046894600205FF0804103F0D4
:1031A000AFFA02000B004046494603F045F803F031
:1031B000ABFA0390002000900098402818DA00989D
:1031C0008B998022DFF8643A02FB013131F910005B
:1031D00002F068FD00990AAA42F8310000980AA995
:1031E00011EBC000002141600098401C0090E3E713
:1031F000012002900398029988425EDB0398401CEC
:103200000299401A02F0BAFE02000B0000205FF0A3
:10321000804103F0C1FC03F077FA8146022099FB5C
:10322000F0F801200400A04543DB601E02F0A6FE7A
:1032300082468B460298401E02F0A0FE02000B0060
:1032400000205FF0804103F0A7FC52465B4602F08D
:1032500021FF03F059FA8246601E05003F2D26DA51
:1032600018EB050B08AA0AA810EBCB010AA810EB73
:10327000C500FFF763FF06AA0AA810EBCB010AA856
:1032800010EBC500FFF769FF0AA810EBCB02DFF8CF
:10329000FC0B10EBCA0106A8FFF730FF0AA810EBE1
:1032A000C50108A8FFF768FF19EB0505D6E7641C00
:1032B000B9E70298401C02909CE70AA8FFF7F6FEC7
:1032C00000200600152E80F2ED800AA850F8360086
:1032D0005FF0894102F070FD0AA941F836000AA8A2
:1032E00050F83600DFF8301902F066FD0AA941F8FF
:1032F00036008B98DFF8981B31F8100002F0DCFCE8
:103300000AA951F8361003F08FF903F03BF90022B7
:10331000DFF8803B02F090FF03F0B2F80AA941F811
:1033200036000AA810EBC60040685FF0894102F041
:1033300043FD0AA911EBC60148600AA810EBC600BC
:103340004068DFF8D41802F037FD0AA911EBC60176
:1033500048608B98DFF8381B31F8100002F0ACFCA5
:103360000AA911EBC601496803F05EF903F00AF9F6
:103370000022DFF8203B02F05FFF03F081F80AA98A
:1033800011EBC60148600AA850F836000AA951F8A6
:10339000361003F049F980460AA810EBC6004068D1
:1033A0000AA911EBC601496803F03EF9414602F053
:1033B00081FD03F0ADF803F0E5F8CDE90401DDE9A6
:1033C0000401DFF8D42A12EBC60CDCE9002302F07A
:1033D00033FFCDE9040128208C9900FB0610DDE9BC
:1033E0000423C0E9002328208C9900FB06100AA9B9
:1033F00051F83610416128208C9900FB06100AA96B
:1034000011EBC6014968816128208C9900FB0612E6
:10341000D2E900010022002303F0DCF83AD20AA826
:1034200050F8360003F0AEF828228C9B02FB063CD5
:10343000DCE9002302F000FF03F022F803F0C4FDF2
:10344000DFF8D81703F0F0F803F09CF8DFF84C2A07
:10345000DFF84C3A02F0F0FE03F012F828218C9AC3
:1034600001FB062188600AA810EBC6004068002115
:1034700003F0C8F814D2DFF8A80728218C9A01FBC2
:103480000621896802F026FC28218C9A01FB06217E
:10349000886005E028208C9900FB061000218160DF
:1034A000761C0FE702200190019815281FDA3800DA
:1034B00003F068F880468946019828218C9A01FB20
:1034C0000020D0E90023019828218C9F01FB007780
:1034D000D7E9000102F0DEFD42464B4602F066FDF0
:1034E00002F0CEFF07000198401C0190DCE7380095
:1034F00003F00EF80700380003F044F88C9FD7E97A
:103500000A2302F099FE02F0BBFF07008C98876443
:103510000DF50D7DBDE8F08F2DE9F04387B0040077
:10352000072201210020FFF799FD08220221012036
:10353000FFF794FD092200210220FFF78FFD14F10F
:1035400008010020FFF71DFEA06B03F01BF802002E
:103550000B000020DFF84C1902F028FD02F090FF6C
:10356000A06304F250310120FFF70BFE14F5D36184
:103570000220FFF706FE41F2B83001190720FFF7DD
:1035800000FE14F5B8510820FFF7FBFD41F6482076
:1035900001190920FFF7F5FD14F51E610320FFF75F
:1035A000F0FD04F628510420FFF7EBFD41F2700016
:1035B00001190520FFF7E5FD14F130010020FFF7A8
:1035C000ABFC04F278310120FFF7A6FC14F5D861BA
:1035D0000220FFF7A1FC14F59F510720FFF79CFC88
:1035E00041F2287001190820FFF796FC41F670207F
:1035F00001190920FFF790FC04F608210320FFF7CA
:103600008BFC14F555610420FFF786FC41F298000D
:1036100001190520FFF780FCDFF88C08006802F034
:10362000ADFC02000B000020DFF8801802F004FE61
:1036300002F026FF41F61C61085141F29800001982
:10364000059014F55560049004F60820039041F6A7
:1036500070200019029041F228700019019014F5B1
:103660009F50009014F5D86304F2783214F13001C1
:103670000920FFF7B5FC616CD4F81C0A02F0D4FFF6
:103680008046A16CD4F8200A02F0CEFF414602F039
:1036900011FC8046D4F88C13D4F8640D02F0C4FFFA
:1036A000414602F007FC8046D4F89013D4F8680D28
:1036B00002F0BAFF414602F0FDFB8046D4F8D41672
:1036C00041F2AC00005902F0AFFF414602F0F2FBBC
:1036D0008046D4F8D81641F2B000005902F0A4FF99
:1036E000414602F0E7FB0500A16CD4F81C0A02F089
:1036F0009BFF8046616CD4F8200A02F095FF010020
:10370000404602F0E7FA8046D4F89013D4F8640DEE
:1037100002F08AFF414602F0CDFB8046D4F88C13BC
:10372000D4F8680D02F080FF0100404602F0D2FAA2
:103730008046D4F8D81641F2AC00005902F074FF6C
:10374000414602F0B7FB8046D4F8D41641F2B000EF
:10375000005902F069FF0100404602F0BBFA060082
:1037600014F5EF50056041F6E4500651D4E90C0120
:10377000DFF83C27DFF83C3702F02CFF14D9D4E9FE
:10378000DE01DFF82C27DFF82C3702F023FF0BD9FE
:1037900014F5D862D2E90001DFF81427DFF81437F6
:1037A00002F018FF00F25281208806283CD32088BE
:1037B00002F0EEFB02000B00DFF8FC06DFF8FC165F
:1037C00002F068FC04F6082CDCE9002303F05EFC40
:1037D00051D3208802F0DCFB02000B00DFF8D80692
:1037E000DFF8D81602F056FC14F5556CDCE900231E
:1037F00003F04CFC3FD3208802F0CAFB02000B0010
:10380000DFF8B406DFF8B41602F044FC41F2980287
:1038100012EB040CDCE9002303F038FC2BD341F657
:1038200018600021015115E104F60822D2E90001D7
:10383000DFF88C26DFF88C3602F0CCFE1BD914F5AD
:103840005562D2E90001DFF87826DFF8783602F019
:10385000C1FE10D941F298000219D2E90001DFF847
:103860006026DFF8603602F0B5FE04D941F6186034
:1038700000210151EEE0DFF85006008880B2401CC4
:10388000C0004FF42F7190FBF1F002F00BFA07002B
:103890002800290002F0C8FE80462800290002F016
:1038A000C3FE81463000310002F0BEFE494602F000
:1038B00001FB0100404602F07FFA02F029FE41F6CA
:1038C000186108512800290002F0AEFE8046300041
:1038D000310002F0A9FE414602F0ECFA5FF07E51A1
:1038E00002F090FE03D241F6186000210151280039
:1038F000DFF8D81503F0E2FB1DD82800390002F0EC
:1039000093FEDFF8CC1502F08FFEDFF8C81502F049
:1039100053FA02F037FE02000B0041F6E85010EBBC
:10392000040CDCE9000102F041FB41F6E8521219F7
:10393000C2E9000122E028005FF0404102F062FE8F
:103940001CD22800390002F06FFEDFF8841502F067
:103950006BFEDFF8801502F02FFA02F013FE020072
:103960000B0041F6F05010EB040CDCE9000103F011
:10397000B7FB41F6F0521219C2E900013000DFF83E
:103980004C1503F09BFB1AD83000390002F04CFEB6
:10399000DFF83C1502F048FEDFF8381502F00CFAAB
:1039A00002F0F0FD02000B0014F5F05CDCE9000110
:1039B00002F0FCFA14F5F052C2E9000122E03000F6
:1039C0005FF0404102F01EFE1CD23000390002F0D0
:1039D0002BFEDFF8FC1402F027FEDFF8F81402F0EB
:1039E000EBF902F0CFFD02000B0041F6086010EB8E
:1039F000040CDCE9000103F073FB41F608621219C4
:103A0000C2E9000141F6E8500019D0E9002341F66F
:103A1000F05010EB040CDCE9000102F0C7FA41F6AB
:103A2000F8521219C2E9000114F5F050D0E9002350
:103A300041F6086010EB040CDCE9000102F0B6FA74
:103A400041F610621219C2E9000103E041F6186064
:103A50000021015107B0BDE8F08338B50400D4F867
:103A60001C1AD4F8640D02F025FA41F2AC01095990
:103A700002F020FA41F6CC51085141F6CC500059E1
:103A8000DFF8541402F098F941F6CC510851D4F8FB
:103A9000201AD4F8680D02F00DFA41F2B00109596C
:103AA00002F008FA41F6D051085141F6D0500059C1
:103AB000DFF8241402F080F941F6D051085141F6A4
:103AC000D050015941F6D050005902F0ADFD05002B
:103AD00041F6CC50015941F6CC50005902F0A4FDFA
:103AE000290002F0E7F902F013FD02F04BFD41F668
:103AF000B8521219C2E9000131BD70B50600D6F8FE
:103B0000641D41F2AC00805902F0D4F95FF08041AD
:103B100002F052F90100D6F81C0A02F0DBF802F0BC
:103B200031FD04000D00D6F8680D41F2B00189594D
:103B300002F0D0F802F026FDDFF8A023DFF8A03372
:103B400002F0A8FA22002B0002F030FA02F098FCF2
:103B500041F6A451885141F6A4508059DFF87813FA
:103B600002F02AF941F6A4518851D6F8681D41F2B5
:103B7000B000805902F09EF95FF0804102F01CF91C
:103B80000100D6F8200A02F0A5F802F0FBFC0400C0
:103B90000D00D6F8640D41F2AC01895902F09AF893
:103BA00002F0F0FCDFF83423DFF8343302F072FA6D
:103BB00002000B002000290003F092FA02F060FCE2
:103BC00041F6A851885141F6A8508059C24902F0E7
:103BD000F3F841F6A851885141F6A850815941F6B1
:103BE000A850805902F020FD040041F6A4508159EC
:103BF00041F6A450805902F017FD210002F05AF955
:103C000002F086FC02F0BEFC41F690529219C2E925
:103C1000000170BD000000000000FA4600003443BF
:103C20000000B4439B9999999999B93F0C200020C1
:103C300000005040F0B506000C00350094480088A4
:103C400002F0A6F9D4E90C2302F024FA0022A54BD5
:103C500002F020FA0022A44B02F0EEFA02F010FC6F
:103C60003060361DA06B3060361D8948408802F0F8
:103C70008FF9D4E9DE2302F00DFA0022994B02F00D
:103C800009FA0022984B02F0D7FA02F0F9FB3060F3
:103C9000361DD4F880033060361D7D48808802F0E0
:103CA00077F914F5D867D7E9002302F0F3F9002279
:103CB0008C4B02F0EFF900228B4B02F0BDFA02F0C0
:103CC000DFFB3060361DD4F8C8063060361D704802
:103CD000C08802F05DF904F60827D7E9002302F056
:103CE000D9F90022814B02F0D5F90022804B02F075
:103CF000A3FA02F0C5FB3060361DD4F8100A30601C
:103D0000361D6348008902F043F914F55567D7E979
:103D1000002302F0BFF90022744B02F0BBF900222D
:103D2000734B02F089FA02F0ABFB3060361DD4F819
:103D3000580D3060361D5648408902F029F941F28D
:103D400098021719D7E9002302F0A4F90022674B63
:103D500002F0A0F90022664B02F06EFA02F090FB2E
:103D60003060361D14F5855000683060361D4848B7
:103D7000808902F00DF914F59F57D7E9002302F06E
:103D800089F90022574B02F085F90022564B02F0C8
:103D900053FA02F075FB3060361D3D48C08902F0D1
:103DA000F7F841F228721719D7E9002302F072F9E7
:103DB00000224C4B02F06EF900224B4B02F03CFA11
:103DC00002F05EFB3060361D3148008A02F0E0F8F8
:103DD00041F670221719D7E9002302F05BF900229F
:103DE000404B02F057F900223F4B02F025FA02F057
:103DF00047FB3060361D28683E4903F05FF905D85F
:103E000041F61C6000593060361D02E00020306031
:103E1000361D14F5EF500168374802F005FC3749AC
:103E200001F0CAFF3060361D41F6E45001593248B6
:103E300002F0FAFB314901F0BFFF3060361D41F658
:103E4000186000593060361D41F6B8500019D0E9AD
:103E5000002300202A4902F01DF90022294B02F01C
:103E6000EBF902F00DFB3060361D41F69050001961
:103E7000D0E900230020224902F00CF90022214B56
:103E800002F0DAF902F0FCFA3060F0BD201E0020EA
:103E9000C81F002000408F40201F00204AD8124D2C
:103EA000FB210940000012C0802B0020006AF8406E
:103EB0000BD7A3703D0AC73F7B14AE47E17A843F1E
:103EC000B91E85EB51B89E3F2C0000400100004018
:103ED0000000C84200BA5B4A0000404083C0CAA14B
:103EE00045B6EB3F0000084000804A400000F03F2C
:103EF000000069400100204100401C4600007C4257
:103F00000000394000001C4030B585B004000D00B1
:103F10008DF800508DF8014001F013FD029003F080
:103F2000A8F9ADF80C0000A800F002F805B030BD0B
:103F300010B5040042480078202802D340480021F0
:103F400001700FF20810027821003D4800783D4BC7
:103F500013EB001001F09AFE39480078401C3849F4
:103F6000087039480078401C3749087010BD364841
:103F70000078704770B504000D000026002C01D1B8
:103F8000FF205CE02E4800782F49097888423ED215
:103F90002D4800782A490978401A0600F6B2EDB299
:103FA000AE4223D2F6B20FF2A400007800FB06F274
:103FB000F6B27042234911EB001000F200212000FC
:103FC00001F064FEEDB2F6B2A81B0FF28001097891
:103FD00001FB00F21B49F6B20FF27000007800FB03
:103FE00006F014EB001001F051FE21E0EDB20FF2EB
:103FF0005C00007800FB05F2F6B27042114911EB4B
:10400000001000F20021200001F040FE10E0EDB2AF
:104010000FF23800007800FB05F2094800780A49E1
:104020000978401A074911EB0011200001F02EFE1B
:1040300005480078401B044908700348007870BDAB
:10404000A12B00200C250020A22B00201000000036
:1040500038B50400DFF81004A5210170DFF808046A
:104060005A214170DFF80004C22181706022DFF81C
:10407000FC13DFF8FC0301F009FE6421DFF8E8031C
:1040800000F03AFA0500ADB2012D03D3280080B24A
:10409000FEF702FB4FF480720021DFF8CC0303F03F
:1040A000FAF831BD38B50400DFF8BC03A521017072
:1040B000DFF8B4035A214170DFF8AC03C5218170E9
:1040C0000222DFF8B013DFF8A80301F0DFFD0621BC
:1040D000DFF8940300F010FA0500ADB2012D03D310
:1040E000280080B2FEF7D8FA4FF480720021DFF882
:1040F000780303F0D0F831BD1FB5DFF86C03A521BC
:104100000170DFF864035A214170DFF85C03CB21B2
:10411000817010200400A4B2220000A9DFF850032F
:1041200001F0B4FD211D89B2DFF83C0300F0E4F991
:104130000400A4B2012C03D3200080B2FEF7ACFA35
:104140004FF480720021DFF8200303F0A4F81FBDB4
:10415000F8B50400002006000500E4B2012C0FD3DE
:10416000E4B20A2C0CD20222DFF80C13E4B2DFF81E
:104170000C0310EB4400801E01F088FD01200600B6
:10418000E4B20A2C0ED100200700FFB2092F07D29B
:10419000FFB2BA484FF47A7120F817107F1CF4E789
:1041A00001200600F6B2002E05D01222B349B44811
:1041B000FEF710FB0500EDB2002D01D0012000E05C
:1041C0000020C0B2F2BD10B5A848006802F0DAF9CC
:1041D00002000B00AB48AC4902F02EF80022AB4BBA
:1041E00001F058FF0022AA4B01F0E0FE02F08CFA29
:1041F000A24908809D48806802F0C4F902000B00C3
:10420000A048A14902F018F80022A04B01F042FF9B
:1042100000229F4B01F0CAFE02F076FA97494880CF
:104220009248006902F0AEF902000B0095489649E9
:1042300002F002F80022954B01F02CFF0022944B73
:1042400001F0B4FE02F060FA8C49888087488069EA
:1042500002F098F902000B0000208E4901F0ECFFFB
:1042600000228A4B01F016FF0022894B01F09EFECE
:1042700002F04AFA8149C8807C48006A02F082F95B
:1042800002000B000020834901F0D6FF00227F4B83
:1042900001F000FF00227E4B01F088FE02F034FAAC
:1042A000764908817148806A02F06CF902000B00BF
:1042B0000020784901F0C0FF0022744B01F0EAFEB3
:1042C0000022734B01F072FE02F01EFA6B49488126
:1042D0006648006B02F056F902000B0000206E49A0
:1042E00001F0AAFF0022694B01F0D4FE0022684BC6
:1042F00001F05CFE02F008FA604988815B48406B7F
:1043000002F040F902000B000020634901F094FF25
:1043100000225E4B01F0BEFE00225D4B01F046FE26
:1043200002F0F2F95549C8815048806B02F02AF931
:1043300002000B000020584901F07EFF0022534B81
:1043400001F0A8FE0022524B01F030FE02F0DCF931
:104350004A490882122249494948FEF73BFA0400BB
:10436000E4B2002C01D0012000E0002010BD38B5DF
:10437000040020680500280002F071FF012032BD12
:1043800030B5CBB004004548008840F22D1188427A
:1043900001D3002065E0A4B22200414900A801F049
:1043A00075FC3E4800210180A4B2062C12D19DF874
:1043B00000004C2806D19DF80100542802D139484C
:1043C00001210170A4B222000021354802F063FFF0
:1043D000012046E032480078A52805D130484078D1
:1043E0005A2801D1012000E00020002801D100203E
:1043F00037E0210089B200A800F056F8002801D16A
:1044000000202EE09DF80200B32806D0C3280AD071
:10441000C6280ED0CA2810D014E09DF80300FEF77D
:1044200071F8050010E09DF80300FFF791FE05000C
:104430000AE0FFF7C8FE050006E001A8FFF797FFB6
:10444000050001E000200500A4B22200002114486C
:1044500002F021FFEDB2002D01D0012000E000208C
:10446000C0B24BB030BD000038280020B829002071
:104470003C280020982B002010270020C81F002077
:1044800000D003081F85EB51B8DE4C4000408F4040
:104490000000E03F00001440000059409C2B002029
:1044A0000C2700209E2B0020F8B504000D0040F2E0
:1044B0002D10ADB2854201D300201CE0ADB2A81E84
:1044C000042190FBF1F006000222ADB22819811EF2
:1044D00000A801F0DBFB02F0E9FEB6B231002000DB
:1044E00002F0E8FE0700BDF80000BFB2B84201D0FC
:1044F000002000E00120F2BDF8B504000D00ADB2CF
:10450000042095FBF0F101FB1051002909D0ADB258
:10451000042095FBF0F0401C0600B6B2B000070086
:1045200005E0ADB2042095FBF0F006002F0040F24C
:104530002B10BFB2874201D3002011E002F0B6FE7B
:10454000B6B23100200002F0B5FEADF80000022244
:1045500000A9BFB2381901F099FBBF1C380080B226
:10456000F2BD0000F8B504000D0000260027DFF8BA
:10457000600384420CD0DFF85C03844208D0DFF88B
:104580005803844204D0DE21DFF85003FDF762F8BF
:104590002868002828D02868B0F5803F24D02868F3
:1045A000B0F5003F20D02868B0F5403F1CD0286807
:1045B000B0F5802F18D02868B0F5A02F14D0286847
:1045C000B0F5C02F10D02868B0F5E02F0CD02868C7
:1045D000B0F5002F08D02868B0F5102F04D0DF21E7
:1045E000DFF8F802FDF736F82879002807D0287997
:1045F000012804D0E021DFF8E402FDF72BF8687908
:10460000002807D06879012804D0E121DFF8CC0226
:10461000FDF720F8A868002837D0A868B0F5003F5B
:1046200033D0A868B0F5802F2FD0A868B0F5C02F80
:104630002BD0A868B0F5002F27D0A868B0F5202FA0
:1046400023D0A868B0F5402F1FD0A868B0F5602F20
:104650001BD0A868002818D0A868B0F5003F14D077
:10466000A868B0F5C02F10D0A868B0F5002F0CD006
:10467000A868B0F5202F08D0A868B0F5402F04D066
:10468000E221DFF85802FCF7E5FFE868002808D0CF
:10469000E868B0F5006F04D0E321DFF84002FCF7D2
:1046A000D9FF287C012802D3287C112804D3E421D7
:1046B000DFF82802FCF7CEFF60680600DFF8280468
:1046C00006402868297950EA012006436660A06800
:1046D0000600DFF818040640E868A968084369790D
:1046E00050EA41000643A660E06A060036F4700610
:1046F000287C401E0743FFB256EA0756E662F1BD2A
:1047000038B504000D00DFF8C80184420DD0DFF891
:10471000C401844209D0DFF8C001844205D040F2D0
:104720002D11DFF8B801FCF795FFEDB2002D08D090
:10473000EDB2012D05D04FF49771DFF8A001FCF721
:1047400089FFEDB2002D04D0A06850F00100A060F8
:1047500003E0A06840084000A06031BD10B504002F
:10476000DFF86C0184420DD0DFF86801844209D083
:10477000DFF86401844205D040F27D110FF2703001
:10478000FCF768FFA06850F00800A06010BD38B5C5
:1047900004000025DFF8380184420DD0DFF8340131
:1047A000844209D0DFF83001844205D040F28B11F9
:1047B0000FF23C30FCF74EFFA068000702D5012045
:1047C000050001E0002005002800C0B232BD10B590
:1047D0000400DFF8FC0084420DD0DFF8F8008442CA
:1047E00009D0DFF8F400844205D040F2A3110FF2A3
:1047F0000030FCF72FFFA06850F00400A06010BD4F
:1048000038B504000025DFF8C80084420DD0DFF879
:10481000C400844209D0DFF8C000844205D040F2D1
:10482000B1110FF2CC20FCF715FFA068400702D5AC
:104830000120050001E0002005002800C0B232BDC3
:1048400070B504000D000026214884420CD0214898
:10485000844209D0DFF8FC02844205D040F22231C4
:104860000FF28C20FCF7F6FE002D29D0B5F5805F05
:1048700026D0B5F5005F23D0B5F5405F20D0B5F563
:10488000804F1DD0B5F5A04F1AD0B5F5C04F17D049
:10489000B5F5E04F14D0B5F5005F11D0B5F5405F28
:1048A0000ED0B5F5804F0BD0B5F5A04F08D0B5F5BB
:1048B000C04F05D040F223310FF23420FCF7CAFE7E
:1048C000A068060036F4E0462E43A66070BD0000E6
:1048D0000024014000280140003C0140F04A00084B
:1048E0002DE9F04704000D0016001F005FF00008DE
:1048F0005FF000095FF0000ADFF85C0284420DD02F
:10490000DFF85802844209D0DFF84802844205D01B
:1049100040F2A5310FF2D810FCF79CFEEDB2002D4D
:1049200038D0EDB2012D35D0EDB2022D32D0EDB23E
:10493000032D2FD0EDB2042D2CD0EDB2052D29D0B2
:10494000EDB2062D26D0EDB2072D23D0EDB2082D05
:1049500020D0EDB2092D1DD0EDB20A2D1AD0EDB246
:104960000B2D17D0EDB20C2D14D0EDB20D2D11D0B2
:10497000EDB20E2D0ED0EDB20F2D0BD0EDB2102DED
:1049800008D0EDB2112D05D040F2A6310FF2601023
:10499000FCF760FEF6B2012E02D3F6B2052E05D367
:1049A00040F2A7310FF24810FCF754FEFFB2002F7F
:1049B0001AD0FFB2012F17D0FFB2022F14D0FFB2CE
:1049C000032F11D0FFB2042F0ED0FFB2052F0BD052
:1049D000FFB2062F08D0FFB2072F05D04FF46A713F
:1049E0000FF20C10FCF736FEEDB20A2D17D3E0687B
:1049F00080460720B5F10A010322514388408146D1
:104A000038EA0908FFB2B5F10A000321484317FA52
:104A100000F0814659EA0808C4F80C8014E02069C7
:104A200080460720032101FB05F18840814638EAD2
:104A30000908FFB2032000FB05F017FA00F08146D9
:104A400059EA0808C4F81080A06B8046C8F30150EA
:104A500082461F20F6B2F11CB1EB0A01491E052265
:104A600051438840814638EA0908EDB2F6B2F01C9D
:104A7000B0EB0A00401E0521484315FA00F08146BC
:104A800059EA0808C4F83880BDE8F087F8B5040092
:104A90000D0000270026DFF8C00084420DD0DFF8AB
:104AA000BC00844209D0DFF8AC00844205D040F25B
:104AB000E5310FF23C00FCF7CDFDEDB2012D02D344
:104AC000EDB2052D05D340F2E6310FF22400FCF7DC
:104AD000C1FDA06B070037F44017EDB2681E060059
:104AE00057EA0657A763F1BDFFFEF0FFFDF7F1FFA0
:104AF000453A5C79756E5CB0D9B6C8D4C65CB9A4C9
:104B0000D7F7CEC4B5B55CB2E2BFD8322E305C5315
:104B10004F555243455C7770613930302D616920C3
:104B200056302E355C53544D3332463130785F5316
:104B300074645065726970685F4472697665725C0E
:104B40007372635C73746D3332663130785F6164A5
:104B5000632E6300003C0140002401400028014016
:104B60002DE9F84F04000D00002600275FF0000833
:104B70005FF000095FF0000A5FF0000BDFF8300320
:104B800084421CD0DFF82C03844218D0DFF82803BD
:104B9000844214D0DFF82403844210D0DFF82003CD
:104BA00084420CD0DFF81C03844208D0DFF8E00414
:104BB000844204D0B1210FF26C50FCF74BFDE87831
:104BC000002819D0E878042816D0E878282813D0CF
:104BD000E878482810D0E87814280DD0E878102814
:104BE0000AD0E8781C2807D0E878182804D0B22129
:104BF0000FF23050FCF72EFD2888002804D1B32195
:104C00000FF22050FCF726FDE87810F00F000600A8
:104C1000E878C0060FD5A87801280AD0A87802281D
:104C200007D0A878032804D0BA210FF2F840FCF787
:104C300011FDA87806432878000631D02068824606
:104C400000208046B8F1080F28D2012010FA08F0A1
:104C50008146288819EA000007004F451BD15FEA0A
:104C6000880081460F2010FA09F083463AEA0B0AC1
:104C700016FA09F050EA0A0AE878282804D1012037
:104C800010FA08F0606106E0E878482803D10120B6
:104C900010FA08F0206118F10108D3E7C4F800A069
:104CA00028884FF48071884233D3606882460020A0
:104CB0008046B8F1080F2AD2012018F10801884077
:104CC0008146288819EA000007004F451CD15FEA99
:104CD000880081460F2010FA09F083463AEA0B0A51
:104CE00016FA09F050EA0A0AE878282804D10120C7
:104CF00018F1080188406061E878482804D1012053
:104D000018F108018840206118F10108D1E7C4F8C2
:104D100004A0BDE8F18F70B504000D000026DFF897
:104D2000900184421DD0DFF88C01844219D0DFF855
:104D30008801844215D0DFF88401844211D0DFF865
:104D4000800184420DD0DFF87C01844209D0DFF875
:104D50004003844205D040F21D110FF2C830FCF729
:104D600079FCADB2012D3CD0ADB2022D39D0ADB23F
:104D7000042D36D0ADB2082D33D0ADB2102D30D0C9
:104D8000ADB2202D2DD0ADB2402D2AD0ADB2802DA8
:104D900027D04FF48070ADB2854222D04FF400701E
:104DA000ADB285421DD0ADB2B5F5806F19D0ADB2B0
:104DB000B5F5006F15D0ADB2B5F5805F11D0ADB2CD
:104DC000B5F5005F0DD0ADB2B5F5804F09D0ADB2ED
:104DD000B5F5004F05D04FF48F710FF24830FCF756
:104DE00039FCA06880B2284202D00120060001E010
:104DF000002006003000C0B270BD38B504000D00C0
:104E0000DFF8AC0084421CD0DFF8A800844218D040
:104E1000DFF8A400844214D0DFF8A000844210D050
:104E2000DFF89C0084420CD02648844209D0DFF889
:104E30006002844205D04FF4B4710FF2E820FCF711
:104E400009FCADB2002D05D140F269110FF2D4205A
:104E5000FCF700FCADB2256131BD38B504000D0092
:104E60001348844218D01348844215D01248844213
:104E700012D0124884420FD0114884420CD01148FD
:104E8000844209D0DFF80802844205D04FF4BC7197
:104E90000FF29020FCF7DEFBADB2002D05D140F201
:104EA00079110FF28020FCF7D5FBADB2656131BD01
:104EB00000080140000C01400010014000140140B6
:104EC00000180140001C01402DE9F84304000D00CA
:104ED000002600275FF000085FF00009012C00F0B9
:104EE0008680022C00F08380042C00F08080082C47
:104EF0007DD0684884427AD06748844277D067483A
:104F0000844274D06648844271D0664884426ED030
:104F1000654884426BD06548844268D064488442C6
:104F200065D06448844262D0B4F5805F5FD0B4F548
:104F3000EA1F5CD0B4F5EB1F59D0B4F5004F56D042
:104F40005D48844253D05D48844250D05C488442DE
:104F50004DD05C4884424AD05B48844247D0B4F18B
:104F6000201F44D05948844241D0594884423ED001
:104F7000584884423BD05848844238D057488442ED
:104F800035D05748844232D0B4F5011F2FD0554850
:104F900084422CD05448844229D05448844226D09C
:104FA0005348844223D05348844220D052488442FC
:104FB0001DD0524884421AD05148844217D05148DB
:104FC000844214D05048844211D0504884420ED0BC
:104FD0004F4884420BD04F48844208D04E48844208
:104FE00005D040F227210FF23C10FCF733FBEDB265
:104FF000002D08D0EDB2012D05D04FF40A710FF24B
:105000002410FCF727FB002C03D544480068804699
:1050100002E0434800688046C4F303408146A0B2E2
:10502000060014F44010B0F5401F08D138F0706845
:105030003B48006830F070603949086013E0E002D6
:1050400008D5032010FA09F0070038EA070858F0DD
:10505000706808E0600DC0B2000116FA00F038EA8E
:10506000000858F07068EDB2002D06D0600DC0B297
:10507000000116FA00F050EA0808002C03D5274872
:10508000C0F8008002E02648C0F80080BDE8F18347
:1050900000200140100014003000140040001600F1
:1050A000C0001600000118000002180000031800DC
:1050B00000081A00000C1A00010020000200200065
:1050C0000400200008002000100020004000200004
:1050D0000001300000023000000430000010200009
:1050E00000202000010000800200008004000080F9
:1050F0000800008010000080200000804000008038
:105100008000008000010080000200800004008018
:105110000008008000100080002000801C0001407A
:1051200004000140453A5C79756E5CB0D9B6C8D4CC
:10513000C65CB9A4D7F7CEC4B5B55CB2E2BFD8326D
:105140002E305C534F555243455C77706139303097
:105150002D61692056302E355C53544D3332463123
:1051600030785F5374645065726970685F44726927
:105170007665725C7372635C73746D333266313062
:10518000785F6770696F2E630000000010B504003F
:10519000B4F5E06F11D0B4F5C06F0ED0B4F5A06FC8
:1051A0000BD0B4F5806F08D04FF44070844204D027
:1051B00062210FF20810FCF74DFA384820433849B5
:1051C000086010BDF8B50400002500260F27E07820
:1051D000002807D0E078012804D074210FF2DC0009
:1051E000FCF738FA6078102804D375210FF2CC0050
:1051F000FCF730FAA078102804D376210FF2BC0017
:10520000FCF728FAE078002820D02548006810F440
:10521000E060D0F5E060000A0500D5F1040006006A
:10522000EF406078B0400500A078384005432D017C
:1052300020781C494554207840111B4901222378CD
:1052400013F01F039A4041F8202009E02078401114
:1052500016490122237813F01F039A4041F82020B9
:10526000F1BD38B504000D00B4F1005F07D0B4F112
:10527000006F04D09D210FF24400FCF7EBF90C48BD
:10528000854204D39E210FF23400FCF7E3F909486C
:10529000284020430849086031BD00000000FA059D
:1052A0000CED00E000E400E000E100E080E100E05F
:1052B000FFFF0F0080FFFF1F08ED00E0453A5C791B
:1052C000756E5CB0D9B6C8D4C65CB9A4D7F7CEC4E5
:1052D000B5B55CB2E2BFD8322E305C534F55524365
:1052E000455C7770613930302D61692056302E353C
:1052F0005C53544D3332463130785F53746450659B
:10530000726970685F4472697665725C7372635C1F
:105310006D6973632E6300002DE9F04786B00400C9
:105320000D00002600275FF000085FF000095FF025
:10533000000ADFF8D002844214D0DFF8CC028442A5
:1053400010D0DFF8C80284420CD0DFF8C4028442D7
:1053500008D0DFF8C402844204D0B521DFF8B402DB
:10536000FCF778F92868002804D02868DFF8AC1228
:10537000884204D3B621DFF89C02FCF76BF9A888B9
:10538000002808D0A888B0F5805F04D0B721DFF8E6
:105390008402FCF75FF9E888002810D0E888B0F5AF
:1053A000805F0CD0E888B0F5005F08D0E888B0F5E1
:1053B000405F04D0B821DFF85C02FCF74BF9288984
:1053C00000280CD02889B0F5806F08D02889B0F566
:1053D000C06F04D0B921DFF83C02FCF73BF96889C3
:1053E0004FF6F371084202D16889002804D1BA212E
:1053F000DFF82002FCF72EF9A889002813D0A8892D
:105400004FF4807188420ED0A8894FF40071884211
:1054100009D0A8894FF44071884204D0BB21DFF83D
:10542000F401FCF717F9A889002810D0DFF8D4019F
:1054300084420CD0DFF8D001844208D0DFF8CC01E0
:10544000844204D0BF21DFF8CC01FCF703F9A24667
:10545000208A06004CF6FF700640E8880643268244
:10546000A08906004EF6F3100640A8882989084353
:10547000698908430643A681A08A06004FF6FF40CB
:105480000640A8890643A68200A8FCF77EF9DFF84B
:105490007401824502D10398070001E002980700D9
:1054A000A089000408D5192000FB07F029684900ED
:1054B000B0FBF1F0804607E0192000FB07F02968F7
:1054C0008900B0FBF1F080466420B8FBF0F00001E9
:1054D00006003009642101FB10808146A089000488
:1054E00009D55FEAC90032306421B0FBF1F010F059
:1054F0000700064308E05FEA091032306421B0FB80
:10550000F1F010F00F000643268106B0BDE8F087E9
:1055100038B504000D00DFF8EC00844215D0DFF848
:10552000E800844211D0DFF8E40084420DD0DFF8B7
:10553000E000844209D0DFF85003844205D040F2F5
:105540005F110FF2D820FCF785F8EDB2002D08D0DE
:10555000EDB2012D05D04FF4B0710FF2C020FCF771
:1055600079F8EDB2002D04D0A08950F40050A0814C
:1055700004E0A0894DF6FF710840A08131BD70B5EF
:1055800004000D001600DFF87C00844215D0DFF81F
:105590007800844211D0DFF8740084420DD0DFF827
:1055A0007000844209D0DFF8E002844205D04FF455
:1055B000E0710FF26820FCF74DF84FF63F7005429E
:1055C00002D1ADB2002D05D140F2C1110FF24C2035
:1055D000FCF740F8F6B2002E08D0F6B2012E05D046
:1055E0004FF4E1710FF23420FCF734F8F6B2002EDC
:1055F00003D0A08A2843A08202E0A08AA843A08208
:1056000070BD0000003801400044004000480040E8
:10561000004C00401C5800080050004021AA4400E3
:1056200070B504000D000026DFF86002844215D03A
:10563000DFF85C02844211D0DFF8480284420DD0CA
:10564000DFF85002844209D0DFF83C02844205D0E2
:1056500040F26B310FF2C410FBF7FCFFADB2012D2D
:1056600024D0ADB2802D21D0ADB2402D1ED0ADB230
:10567000202D1BD0ADB2102D18D04FF48070ADB2DC
:10568000854213D04FF40070ADB285420ED0ADB25A
:10569000082D0BD0ADB2042D08D0ADB2022D05D02F
:1056A0004FF45B710FF27410FBF7D4FF4FF40070EE
:1056B000ADB285420ED1754884420BD07448844205
:1056C00008D07048844205D04FF45C710FF24C1042
:1056D000FBF7C0FF2088284202D00120060001E02D
:1056E000002006003000C0B270BD2DE9F843040070
:1056F0000D00002600275FF000085FF000096348F6
:10570000844211D0624884420ED05E4884420BD05D
:105710006048844208D05C48844205D040F2BE31E3
:105720000FF2F800FBF796FFADB2282D32D040F211
:105730002770ADB285422DD040F22660ADB28542D1
:1057400028D040F22550ADB2854223D040F224400B
:10575000ADB285421ED040F64600ADB2854219D0AA
:1057600040F66A10ADB2854214D04FF45870ADB215
:1057700085420FD04FF41870ADB285420AD04FF475
:10578000B070ADB2854205D040F2BF310FF28C004F
:10579000FBF760FF40F66A10ADB285420ED13B4880
:1057A00084420BD03A48844208D03648844205D01F
:1057B00040F2C3310FF26400FBF74CFF2800C0B287
:1057C0004009C0B28046ADB215F01F0007000120AD
:1057D00010FA07F7B8F1010F02D1A089074007E0DE
:1057E000B8F1020F02D1208A074001E0A08A0740E9
:1057F000ADB2280A80B20600012010FA06F6208811
:105800000640002F04D0002E02D00120814601E086
:10581000002081464846C0B2BDE8F283453A5C7933
:10582000756E5CB0D9B6C8D4C65CB9A4D7F7CEC47F
:10583000B5B55CB2E2BFD8322E305C534F555243FF
:10584000455C7770613930302D61692056302E35D6
:105850005C53544D3332463130785F537464506535
:10586000726970685F4472697665725C7372635CBA
:1058700073746D3332663130785F75736172742E74
:105880006300000000480040005000400038014024
:1058900000440040004C004010B50400E4B2002C6D
:1058A00007D0E4B2012C04D07E210FF21400FBF7E4
:1058B000D1FE0248E4B2046010BD000020000E4298
:1058C000453A5C79756E5CB0D9B6C8D4C65CB9A4EB
:1058D000D7F7CEC4B5B55CB2E2BFD8322E305C5338
:1058E0004F555243455C7770613930302D616920E6
:1058F00056302E355C53544D3332463130785F5339
:1059000074645065726970685F4472697665725C30
:105910007372635C73746D3332663130785F7077A5
:10592000722E63002C48008850F010002A4908802D
:105930007047294800884FF6EF71084026490880D3
:10594000704700202549098808002549098889B23F
:1059500080B250EA0140704710B50400FFF7E2FF43
:10596000200C1F4908801D480480FFF7E2FF10BD8E
:1059700010B50400B4F5801F04D3A2210FF2740007
:10598000FBF768FEFFF7CEFF200C10F00F00154963
:10599000088015480480FFF7CCFF10BD0020134994
:1059A000098889B211F00F0109040800104909881B
:1059B00089B208437047084800888006FBD57047C5
:1059C000054800884FF6F7710840034908800248EF
:1059D00000880007FBD57047042800401C280040C1
:1059E00018280040082800400C28004010280040DB
:1059F00014280040453A5C79756E5CB0D9B6C8D4BD
:105A0000C65CB9A4D7F7CEC4B5B55CB2E2BFD83294
:105A10002E305C534F555243455C777061393030BE
:105A20002D61692056302E355C53544D333246314A
:105A300030785F5374645065726970685F4472694E
:105A40007665725C7372635C73746D333266313089
:105A5000785F7274632E6300DFF87C01DFF87C11DD
:105A60000160DFF87401DFF878110160704738B524
:105A700004000425B4F1006F03D3DFF86C01844205
:105A800005D34FF4D3710FF29C10FBF7E3FD5FF4E5
:105A9000302000F0AFF80500EDB2042D20D1DFF882
:105AA0004401006850F00200DFF838110860DFF8A8
:105AB0003C010460DFF82C01006850F04000DFF882
:105AC000241108605FF4302000F094F80500DFF83E
:105AD0001401006841F6FD710840DFF80811086004
