:020000040800F2
:10000000A02F002055860008A5830008A7830008BC
:10001000A9830008AB830008AD830008000000003E
:10002000000000000000000000000000AF83000896
:10003000B183000800000000B3830008B583000806
:1000400095860008998600089D860008A18600080C
:10005000A5860008A9860008AD860008B1860008BC
:10006000B5860008B9860008BD860008C18600086C
:1000700033840008C9860008CD860008D1860008B0
:10008000D5860008D9860008DD860008E1860008CC
:10009000E5860008E9860008ED860008F18600087C
:1000A000F5860008F9860008FD860008018700082B
:1000B000BD830008578400080D87000811870008D9
:1000C00015870008198700081D8700082187000888
:1000D00025870008298700082D870008F983000874
:1000E00035870008398700083D87000841870008E8
:1000F00045870008498700084D8700085187000898
:100100005587000859870008DD83000861870008CB
:1001100065870008698700086D87000871870008F7
:1001200075870008798700087D87000881870008A7
:1001300010B50400DFF89405844243D0B4F1804F39
:1001400040D0DFF88C0584423CD0DFF8880584423B
:1001500038D0DFF88405844234D0DFF8800584424B
:1001600030D0DFF87C0584422CD0DFF8780584425B
:1001700028D0DFF87405844224D0DFF8700584426B
:1001800020D0DFF86C0584421CD0DFF8680584427B
:1001900018D0DFF86405844214D0DFF8600584428B
:1001A00010D0DFF85C0584420CD0DFF8580584429B
:1001B00008D0DFF8EC07844204D07C21DFF8480542
:1001C00001F018FADFF8040584420AD101214FF446
:1001D000006001F0A9FB00214FF4006001F0A4FBD6
:1001E000DDE0B4F1804F08D10121012001F0C5FB11
:1001F0000021012001F0C1FBD1E0DFF8D4048442EA
:1002000008D10121022001F0B8FB0021022001F0F9
:10021000B4FBC4E0DFF8BC04844208D1012104200F
:1002200001F0ABFB0021042001F0A7FBB7E0DFF8F1
:10023000A804844208D10121082001F09EFB00217E
:10024000082001F09AFBAAE0DFF89004844208D16C
:100250000121102001F091FB0021102001F08DFB05
:100260009DE0DFF87C04844208D10121202001F0C8
:1002700084FB0021202001F080FB90E0DFF8640483
:1002800084420AD101214FF4005001F04DFB0021BE
:100290004FF4005001F048FB81E0DFF84C04844249
:1002A0000AD101215FF4002001F03EFB00215FF440
:1002B000002001F039FB72E0DFF8300484420AD1FB
:1002C00001215FF4801001F02FFB00215FF480100A
:1002D00001F02AFB63E0DFF8180484420AD101210F
:1002E0005FF4001001F020FB00215FF4001001F02A
:1002F0001BFB54E0DFF8FC03844208D101214020BD
:1003000001F03BFB0021402001F037FB47E0DFF824
:10031000E803844208D10121802001F02EFB002156
:10032000802001F02AFB3AE0DFF8D00384420AD1B2
:1003300001214FF4807001F020FB00214FF4807008
:1003400001F01BFB2BE0DFF8B80384420AD1012146
:100350005FF4803001F0E8FA00215FF4803001F0B2
:10036000E3FA1CE0DFF89C0384420AD101215FF428
:10037000003001F0D9FA00215FF4003001F0D4FA26
:100380000DE0DFF81C06844209D101215FF48020D2
:1003900001F0CAFA00215FF4802001F0C5FA10BD17
:1003A00070B504000D000026DFF82003844243D01E
:1003B000B4F1804F40D0DFF8180384423CD0DFF81E
:1003C0001403844238D0DFF81003844234D0DFF8BD
:1003D0000C03844230D0DFF8080384422CD0DFF8CD
:1003E0000403844228D0DFF80003844224D0DFF8DD
:1003F000FC02844220D0DFF8F80284421CD0DFF8EF
:10040000F402844218D0DFF8F002844214D0DFF8FE
:10041000EC02844210D0DFF8E80284420CD0DFF80E
:10042000E402844208D0DFF87C05844204D0E52150
:10043000DFF8D40201F0DEF86888002810D0688860
:1004400010280DD0688820280AD06888402807D056
:100450006888602804D0E621DFF8AC0201F0CAF811
:10046000E88800280ED0E8884FF48071884209D0CF
:10047000E8884FF40071884204D0E721DFF8880251
:1004800001F0B8F820880600DFF84002844212D05C
:10049000DFF8500284420ED0B4F1804F0BD0DFF869
:1004A0003002844207D0DFF82C02844203D0DFF808
:1004B0002802844204D14FF68F70064068880643B4
:1004C000DFF81802844208D0DFF81402844204D016
:1004D0004FF6FF400640E88806432680A888A0859E
:1004E00028882085DFF8E40184420FD0DFF8F4018A
:1004F00084420BD0DFF80802844207D0DFF8040200
:10050000844203D0DFF89C04844201D1287A2086FB
:100510000120A08270BD2DE9F04104000D000026ED
:1005200000275FF00008DFF8A401844224D0B4F172
:10053000804F21D0DFF8980184421DD0DFF894016C
:10054000844219D0DFF89001844215D0DFF894017D
:10055000844211D0DFF8900184420DD0DFF894017D
:10056000844209D0DFF89801844205D040F26D1131
:10057000DFF8940101F03EF82888002814D028887C
:10058000102811D0288820280ED0288830280BD099
:100590002888602808D02888702805D04FF4B771C3
:1005A000DFF8640101F026F86888002808D0688820
:1005B000012805D040F26F11DFF84C0101F01AF864
:1005C0002889002808D02889022805D04FF4B8715E
:1005D000DFF8340101F00EF8208C4FF6EF7108407F
:1005E0002084208C0700A0888046208B060048F6D7
:1005F000FF7006404FF6FF400640288856EA002666
:100600004FF6DF700740288957EA0017688857EAD5
:100610000017DFF8B800844203D0DFF8C800844236
:100620004BD1A888002808D0A888042805D040F21B
:100630008D11DFF8D40000F0DDFF6889002808D0B4
:100640006889082805D04FF4C771DFF8BC0000F0B6
:10065000D1FFE8894FF40071884207D0E88900286B
:1006600004D040F28F11284800F0C4FFA8894FF44D
:100670008071884207D0A889002804D04FF4C8713F
:10068000214800F0B7FF4FF67F700740688957EAAE
:1006900000174FF6BF700740A88857EA00174FF6BB
:1006A000FF3010EA08084FF2FF7010EA0808A88926
:1006B00058EA8008E88958EA8008A4F8048026836C
:1006C000E88820872784BDE8F0810000002C0140E5
:1006D0000004004000080040000C004000100040F2
:1006E0000014004000340140004C01400050014023
:1006F0000054014000180040001C00400020004051
:1007000000400140004401401C68000838B5040066
:100710000D00288800280ED0288804280BD02888AF
:10072000082808D028880C2805D04FF41371DFF86A
:100730005C0400F05FFFA88801280BD0A88802287D
:1007400008D0A888032805D040F24D21DFF83C04EA
:1007500000F050FFE88800280ED0E88804280BD06D
:10076000E888082808D0E8880C2805D040F24E21F7
:10077000DFF8180400F03EFF2889102805D340F266
:100780004F21DFF8080400F035FFDFF8CC03844286
:1007900012D0DFF8C80384420ED0B4F1804F0BD0E2
:1007A000DFF8BC03844207D0DFF8B803844203D0EB
:1007B000DFF8B40384420CD16888002818D0688818
:1007C000022815D04FF41571DFF8C00300F012FFB6
:1007D0000EE0688800280BD06888022808D0688856
:1007E0000A2805D04FF41671DFF8A00300F002FFCD
:1007F000288800284AD1DFF8600384423BD0B4F156
:10080000804F38D0DFF85803844234D0DFF85403E7
:10081000844230D0DFF8500384422CD0DFF83C0310
:10082000844228D0DFF84403844224D0DFF8400318
:10083000844220D0DFF83C0384421CD0DFF8380328
:10084000844218D0DFF83403844214D0DFF8300338
:10085000844210D0DFF82C0384420CD0DFF8280348
:10086000844208D04E48844205D04FF41771DFF817
:100870001C0300F0BFFE2B89AA886988200000F0C5
:100880000CFDE988200000F007FB88E02888042898
:1008900033D1DFF8C402844224D0B4F1804F21D098
:1008A000DFF8BC0284421DD0DFF8B802844219D0C0
:1008B000DFF8B402844215D0DFF8A002844211D0E0
:1008C000DFF8A80284420DD0DFF8AC02844209D0E0
:1008D000DFF8B002844205D040F26621DFF8AC02B6
:1008E00000F088FE2B89AA886988200000F00AFDA4
:1008F000E988200000F02FFB51E02888082827D144
:10090000DFF85402844218D0B4F1804F15D0DFF8DC
:100910005002844211D0DFF84C0284420DD0DFF83F
:100920004802844209D0DFF83402844205D04FF4F3
:100930001C71DFF8580200F05DFE2B89AA886988D7
:10094000200000F01BFDE988200000F04CFB26E0B1
:10095000DFF80402844218D0B4F1804F15D0DFF8DC
:100960000002844211D0DFF8FC0184420DD0DFF890
:10097000F801844209D0DFF8E401844205D040F256
:100980007A21DFF8080200F035FE2B89AA886988F1
:10099000200000F02EFDE988200000F05BFB31BD57
:1009A000004801400048014038B504000D00DFF860
:1009B000A801844244D0B4F1804F41D0DFF8A001B7
:1009C00084423DD0DFF89C01844239D0DFF89801A1
:1009D000844235D0DFF86C02844231D0DFF86802FF
:1009E00084422DD0DFF87401844229D0DFF87C01E5
:1009F000844225D0DFF87801844221D0DFF87401E9
:100A000084421DD0DFF87001844219D0DFF86C01F8
:100A1000844215D0DFF86801844211D0DFF8640108
:100A200084420DD0DFF86001844209D0DFF81C0257
:100A3000844205D040F22731DFF8500100F0DAFDA2
:100A4000EDB2002D08D0EDB2012D05D04FF44A7162
:100A5000DFF8380100F0CEFDEDB2002D04D0208883
:100A600050F00100208004E020884FF6FE7108401D
:100A7000208031BD70B504000D001600DFF8D800ED
:100A8000844244D0B4F1804F41D0DFF8D400844296
:100A90003DD0DFF8D000844239D0DFF8CC0084426A
:100AA00035D0DFF8A001844231D0DFF89C018442C8
:100AB0002DD0DFF8A800844229D0DFF8B0008442AE
:100AC00025D0DFF8AC00844221D0DFF8A8008442B2
:100AD0001DD0DFF8A400844219D0DFF8A0008442C2
:100AE00015D0DFF89C00844211D0DFF898008442D2
:100AF0000DD0DFF89400844209D0DFF85001844221
:100B000005D040F26931DFF8840000F073FD4FF446
:100B10007F40054202D1ADB2002D05D140F26A31CD
:100B2000DFF8680000F066FDF6B2002E08D0F6B2DD
:100B3000012E05D040F26B31DFF8500000F05AFD75
:100B4000F6B2002E03D0A0892843A08102E0A0893C
:100B5000A843A08170BD0000002C0140003401407A
:100B60000004004000080040000C0040004C014020
:100B7000005001400054014000180040001C00409B
:100B80000020004000400140004401401C68000873
:100B900070B504000D001600DFF81802844241D041
:100BA000B4F1804F3ED0DFF8100284423AD0DFF833
:100BB0000C02844236D0DFF80802844232D0214849
:100BC00084422FD0204884422CD0DFF8F8018442A0
:100BD00028D0DFF8F401844224D0DFF8F801844201
:100BE00020D0DFF8F40184421CD0DFF8E001844219
:100BF00018D0DFF8E801844214D0DFF8E401844221
:100C000010D0DFF8CC0184420CD0DFF8D801844248
:100C100008D00E48844205D040F29941DFF8C8015F
:100C200000F0E8FCB6B2002E08D0B6B2012E05D016
:100C300040F29A41DFF8B00100F0DCFC2585A68285
:100C400070BD00000010004000140040004801404A
:100C500070B504000D000026DFF85801844224D04E
:100C6000B4F1804F21D0DFF8500184421DD0DFF86D
:100C70004C01844219D0DFF84801844215D0DFF8D6
:100C80004401844211D0DFF8400184420DD0DFF8E6
:100C90003C01844209D0DFF83801844205D040F29B
:100CA000CF41DFF8440100F0A5FCADB2002D1AD011
:100CB000ADB2102D17D0ADB2202D14D0ADB2302D65
:100CC00011D0ADB2402D0ED0ADB2502D0BD0ADB283
:100CD000602D08D0ADB2702D05D04FF49A61DFF8C9
:100CE000080100F087FC208906004FF68F7006404F
:100CF0002E43268170BD38B504000D002D48844276
:100D00003DD0B4F1804F3AD02B48844237D02B48A5
:100D1000844234D02A48844231D0DFF8D40084425F
:100D20002DD0DFF8D000844229D02648844226D036
:100D30002548844223D0DFF89C0084421FD0DFF88E
:100D4000980084421BD02148844218D0DFF88C00E0
:100D5000844214D0DFF88800844210D01C488442BA
:100D60000DD0DFF88000844209D0DFF88000844293
:100D700005D040F28251DFF8700000F03BFCEDB28C
:100D8000002D08D0EDB2012D05D040F28351DFF8DF
:100D9000580000F02FFCEDB2002D04D0208850F058
:100DA0008000208004E020884FF67F71084020807A
:100DB00031BD0000002C014000040040000800404C
:100DC000000C004000340140004C0140001800407D
:100DD000004001400050014000540140001C004010
:100DE00000200040004401401C6800080048014009
:100DF000001000400014004038B504000D001D48EC
:100E000084421CD0B4F1804F19D01C48844216D0C3
:100E10001B48844213D01B48844210D01A48844295
:100E20000DD01A4884420AD01948844207D0194884
:100E3000844204D040F6B2010F4800F0DBFBADB2B3
:100E4000042D0DD0ADB2052D0AD0ADB2062D07D0C0
:100E5000ADB2072D04D040F6B301074800F0CAFB3D
:100E600020894FF6F871084020812089284320818D
:100E700031BD0000002C01401C6800080004004047
:100E800000080040000C004000340140004C0140CC
:100E9000001800400040014038B504000D00DFF8A4
:100EA000240284423CD0B4F1804F39D0DFF81802DC
:100EB000844235D0DFF81402844231D0DFF81002CA
:100EC00084422DD0DFF80C02844229D0DFF80C02D6
:100ED000844225D0DFF81002844221D0DFF80C02D2
:100EE00084421DD0DFF8F801844219D0DFF80002F7
:100EF000844215D0DFF8FC01844211D0DFF8E40110
:100F000084420DD0DFF8F001844209D0DFF8C80137
:100F1000844205D040F63211DFF85C0400F06AFB31
:100F2000ADB2002D0ED0ADB2042D0BD0ADB2082D58
:100F300008D0ADB20C2D05D040F63311DFF83804DF
:100F400000F058FB208B4FF6F37108402083208B74
:100F50002843208331BD38B504000D00DFF864015B
:100F6000844224D0B4F1804F21D0DFF85C01844268
:100F70001DD0DFF85801844219D0DFF854018442B3
:100F800015D0DFF85001844211D0DFF850018442BF
:100F90000DD0DFF84C01844209D0DFF848018442CB
:100FA00005D040F64811DFF8D00300F023FBADB2C6
:100FB000002D0ED0ADB2042D0BD0ADB2082D08D04F
:100FC000ADB20C2D05D040F64911DFF8AC0300F0AE
:100FD00011FB208B4FF2FF3108402083208B50EA19
:100FE0000520208331BD38B504000D00354884420A
:100FF00015D0B4F1804F12D0334884420FD033481B
:1010000084420CD03248844209D0DFF8C8008442C0
:1010100005D040F65E11DFF8600300F0EBFAADB2E8
:10102000002D0ED0ADB2042D0BD0ADB2082D08D0DE
:10103000ADB20C2D05D040F65F11DFF83C0300F097
:10104000D9FAA08B4FF6F3710840A083A08B2843F8
:10105000A08331BD38B504000D001A48844214D075
:10106000B4F1804F11D0184884420ED01748844202
:101070000BD01748844208D01648844205D040F669
:101080007411DFF8F40200F0B5FAADB2002D0ED005
:10109000ADB2042D0BD0ADB2082D08D0ADB20C2DE1
:1010A00005D040F67511DFF8D00200F0A3FAA08B4E
:1010B0004FF2FF310840A083A08B50EA0520A083A7
:1010C00031BD0000002C0140000400400008004039
:1010D000000C00400034014000480140004C014039
:1010E0000018004000400140005001400054014001
:1010F000001C004000200040004401402DE9F04168
:1011000004000D00002600275FF00008DFF85803F8
:10111000844243D0B4F1804F40D0DFF85003844282
:101120003CD0DFF84C03844238D0DFF848038442D7
:1011300034D0DFF84403844230D0DFF840038442E7
:101140002CD0DFF83C03844228D0DFF83C038442F3
:1011500024D0DFF84003844220D0DFF83C038442EF
:101160001CD0DFF82803844218D0DFF83003844213
:1011700014D0DFF82C03844210D0DFF8140384422B
:101180000CD0DFF82003844208D0DFF8F802844254
:1011900004D040F64B21784800F02CFAADB2012D76
:1011A00019D0ADB2022D16D0ADB2042D13D0ADB210
:1011B000082D10D0ADB2102D0DD0ADB2202D0AD01B
:1011C000ADB2402D07D0ADB2802D04D040F64C21F9
:1011D000694800F00FFA208A28400700A0892840BB
:1011E0008046BFB2002F07D01FFA88F8B8F1000F71
:1011F00002D00120060001E0002006003000C0B24D
:10120000BDE8F08138B504000D009748844234D021
:10121000B4F1804F31D0954884422ED09448844216
:101220002BD09448844228D09348844225D09348B8
:10123000844222D0924884421FD0934884421CD0DA
:101240009448844219D09448844216D08F488442EE
:1012500013D09248844210D0914884420DD08C48DB
:1012600084420AD08F48844207D08648844204D002
:1012700040F67521404800F0BDF94FF47F4005422B
:1012800002D1ADB2002D04D140F676213A4800F0EB
:10129000B1F9ADB2E843208231BDF0B4002500249D
:1012A000068C4FF6FE773E400684068B3500068C92
:1012B00034004FF60C76354052EA031635436A4E39
:1012C000B0420ED06E4EB0420BD0B0F1804F08D07D
:1012D000664EB04205D0664EB04202D0654EB04276
:1012E00006D14FF6FD76344051F00106344305E057
:1012F0004FF6F576344051F00106344305830484FB
:10130000F0BC7047F0B4002600240025078C4FF68F
:10131000EF7C1CEA07070784078B3E00078C3C0024
:101320000F013D0040F6FF473E4056EA033656EABD
:1013300002264D4FB8420ED0514FB8420BD0B0F1FB
:10134000804F08D0494FB84205D0494FB84202D02B
:10135000484FB84206D14FF6DF773C4055F01007B2
:101360003C4305E04FF65F773C4051F010073C43AB
:1013700006830484F0BC70471C680008F0B40026A3
:1013800000240025078C4FF6FF6C1CEA0707078432
:10139000878B3E00078C3C000F023D004FF60C7718
:1013A0003E4052EA03173E432F4FB8420ED0344F0F
:1013B000B8420BD0B0F1804F08D02C4FB84205D0C6
:1013C0002B4FB84202D02B4FB84207D14FF6FF57F0
:1013D0003C404FF480772F433C4306E04FF2FF57E9
:1013E0003C404FF480770F433C4386830484F0BC39
:1013F0007047F0B4002600240025078C4EF6FF7CD1
:101400001CEA07070784878B3E00078C3C000F030C
:101410003D0040F6FF473E4056EA022656EA0336B4
:10142000114FB8420ED0164FB8420BD0B0F1804FDA
:1014300008D00E4FB84205D00D4FB84202D00D4F24
:10144000B84206D14DF6FF773C4055F480573C43F7
:1014500005E047F6FF573C4051F480573C438683F4
:101460000484F0BC70470000002C014000040040E0
:1014700000080040000C0040001000400014004034
:101480000034014000480140004C01400018004079
:10149000004001400050014000540140001C004049
:1014A000002000400044014030B589B000240025F0
:1014B00000F0DEFA04A800F038F900F06DFC00F04E
:1014C0007FFC00F0B0FB4FF4165000F00BFE00F074
:1014D0003DFE00F084FE00F0C8FD00F088FD00F045
:1014E000B6FD01F035F900F00FFD01F0FDF901F056
:1014F0004EF9384840F21A410180364840F2054121
:101500004180344840F21A418180324840F204411F
:10151000C180304840F2054101812E4840F204412B
:1015200041812C4840F2014181812A4840F2024128
:10153000C181284840F2034101820121264801F07F
:10154000D5FB01212548FFF72FFA00F0B6FF24480C
:1015500000683F2835D1234802F01EF8214802F0E8
:101560000CFB204802F0B9FA1E491F4802F0A2FB0A
:101570001E480078002824D002F039FD002808D049
:10158000012100A802F036FD00A80FC802F000FEFD
:1015900017E0E4B2032094FBF0F100FB11400028B7
:1015A00003D1002002F094FD0AE0E4B2052094FB90
:1015B000F0F100FB1140002802D1002002F0B8FD3C
:1015C000641C0B4800880028BFD00948008802F03E
:1015D00029FFBAE7C81F0020300002400004004085
:1015E0007C2B002000000020B0290020962B00203A
:1015F000942B0020FEE750F8041B61B150F8042B37
:10160000D30744BFA9F101039A18002342F8043B11
:10161000091FFAD1EFE7704710B50400002C0BD07A
:10162000B4F5803F08D0B4F5802F05D04FF4887111
:101630000FF2D830FFF7DEFFDFF89003006830F4D8
:101640008030DFF888130860DFF88003006830F42A
:101650008020DFF8781308602000B0F5803F03D0C9
:10166000B0F5802F09D011E0DFF86003006850F476
:101670008030DFF85813086008E0DFF85003006896
:1016800050F4A020DFF844130860FFE710BD38B520
:1016900004000025002C0ED0B4F5804F0BD0B4F51B
:1016A000004F08D0B4F5404F05D040F201310FF2A1
:1016B0005C30FFF79FFFDFF818030068050035F482
:1016C00040452543DFF80803056031BD10B504002F
:1016D0004FF4807084420DD04FF40070844209D0E2
:1016E0004FF44070844205D040F271310FF21C304B
:1016F000FFF780FFDFF8DC0200682043DFF8D41238
:10170000086010BD10B50400E4B2002C08D0E4B2AB
:10171000012C05D040F27F310FF2F020FFF76AFF75
:10172000DFF8B402E4B2046010BD30B4002100223E
:1017300000230024DFF898522D6815F00C052900CD
:101740000D00002D04D0042D06D0082D08D02EE069
:10175000DFF8885205602DE0DFF88052056029E04F
:10176000DFF86C522D6815F470152A00DFF860520E
:101770002D6815F480352B00920C921C002B05D19E
:10178000DFF85C5205FB02F505600FE0DFF8405220
:101790002D68AD0305D5DFF8485205FB02F505605D
:1017A00004E0DFF8385205FB02F5056002E0DFF8DF
:1017B0002C520560DFF818522D6815F0F00529004D
:1017C0000909DFF820524D5D2C000568E5404560B1
:1017D000DFF8FC512D6815F4E0652900090ADFF8EF
:1017E00004524D5D2C004568E5408560DFF8E0510E
:1017F0002D6815F460552900C90ADFF8E8514D5DE0
:101800002C004568E540C560DFF8C4512D6815F42B
:1018100040452900890BDFF8D0514D5D2C00C5688B
:10182000B5FBF4F5056130BC704738B504000D0018
:10183000DFF8B801044201D1002C05D140F22A4161
:101840000FF2C810FFF7D6FEEDB2002D08D0EDB2B2
:10185000012D05D040F22B410FF2B010FFF7CAFE68
:10186000EDB2002D07D0DFF8880100682043DFF8D3
:101870008011086005E0DFF878010068A0435C494A
:10188000086031BD38B504000D005A48044201D14A
:10189000002C05D140F249410FF27010FFF7AAFE6B
:1018A000EDB2002D08D0EDB2012D05D040F24A4135
:1018B0000FF25810FFF79EFEEDB2002D05D04E48F6
:1018C000006820434C49086004E04B480068A0438E
:1018D0004949086031BD38B504000D00474804424D
:1018E00001D1002C05D14FF48D610FF22010FFF7CC
:1018F00081FEEDB2002D08D0EDB2012D05D040F2F1
:1019000069410FF20810FFF775FEEDB2002D05D00A
:101910003B48006820433A49086004E038480068C2
:10192000A0433749086031BD38B504000D00314887
:10193000044201D1002C05D140F2A3410FF2CC00AA
:10194000FFF758FEEDB2002D08D0EDB2012D05D005
:1019500040F2A4410FF2B400FFF74CFEEDB2002DAF
:1019600005D02848006820432649086004E025483F
:101970000068A0432349086031BD38B504000D005C
:101980001E48044201D1002C05D140F2C2410FF2A1
:101990007C00FFF72FFEEDB2002D08D0EDB2012D37
:1019A00005D040F2C3410FF26400FFF723FEEDB211
:1019B000002D05D01448006820431349086004E056
:1019C00011480068A0431049086031BD0010024072
:1019D00004100240201002403C04424200127A00EF
:1019E00000093D00DC1F0020F81F0020A8FAFFFFBF
:1019F000141002400200C0FF18100240003601819E
:101A00001C1002400C100240101002405A3A5CB008
:101A1000D9B6C8D4C65C61B9A4D7F7CEC4B5B55C95
:101A2000B2E2BFD8322E305C534F555243455C77FB
:101A300070613930302D61692056302E355C535439
:101A40004D3332463130785F53746450657269703B
:101A5000685F4472697665725C7372635C73746DFF
:101A60003332663130785F7263632E6300000000AA
:101A700080B54E48006850F001004C4908604C4861
:101A800000684C4908404A490860484800684A498B
:101A90000840464908604548006830F480204349C2
:101AA00008604348006830F4FE004149086043483C
:101AB0005FF41F01016000F005F841485FF000612C
:101AC000016001BD80B500F001F801BD82B00020C9
:101AD0000190002000903548006850F48030334970
:101AE00008603248006810F4003000900198401CF3
:101AF00001900098002803D10198B0F5A06FF0D1B3
:101B00002A480068800302D50120009001E00020EF
:101B100000900098012847D12A48006850F0100032
:101B20002849086027480068800880002549086027
:101B30002448006850F00200224908601C481C49F3
:101B4000096801601A481A49096801601848006864
:101B500050F48060164908601548006830F47C1025
:101B6000134908601248006850F4A8101049086032
:101B70000E48006850F080700C4908600B480068FF
:101B80008001FBD50A480068800880000849086089
:101B90000748006850F002000549086004480068E2
:101BA00010F00C000828F9D102B070470010024074
:101BB000041002400000FFF8FFFFF6FE081002408C
:101BC00008ED00E00020024040B2002809D540B2F4
:101BD00010F00F02DFF8AC3AD2180B0102F8043C07
:101BE00004E040B2DFF8C02B0B018354704710B5FE
:101BF0000400B4F1807F01D3012013E02002000A29
:101C0000401EDFF8841A08600F215FF0FF30FFF7F5
:101C1000DBFFDFF8780A00210160DFF8B00B072155
:101C20000160002010BD80B5DFF8640A002101606A
:101C3000DFF85C0A01210171DFF8540A00214171CB
:101C4000DFF84C0A5FF460218160DFF8440A00216C
:101C5000C160DFF83C0A01210174DFF8341ADFF8B3
:101C6000E80A02F0D3FC0321DFF8DC0A02F062FF8D
:101C7000002301220B21DFF8D00A02F085FE0023A9
:101C800002220C21DFF8C00A02F07EFE00230322AC
:101C90000D21DFF8B40A02F077FE4FF4E041DFF8DF
:101CA000A80A02F021FEDFF8A40A00210160DFF893
:101CB0009C0A01210171DFF8940A00214171DFF8CB
:101CC0008C0A5FF460218160DFF8800A0021C16026
:101CD000DFF8780A01210174DFF8701ADFF8F00AE2
:101CE00002F094FC0421DFF8E80A02F023FF00234D
:101CF00001220421DFF8D80A02F046FE0023022266
:101D00000521DFF8CC0A02F03FFE00230322072161
:101D1000DFF8BC0A02F038FE002304220621DFF8B7
:101D2000B00A02F031FE4FF4E041DFF8A40A02F0FD
:101D3000DBFD0121DFF8100A02F036FDDFF8080AAA
:101D400002F060FDDFF8000A02F075FD0028F9D10D
:101D5000DFF8F40902F08FFDDFF8EC0902F0A4FDD2
:101D60000028F9D10121DFF8680A02F01DFDDFF833
:101D7000600A02F047FDDFF8580A02F05CFD002817
:101D8000F9D1DFF84C0A02F076FDDFF8440A02F0E0
:101D90008BFD0028F9D101BD80B54FF48040FFF7DD
:101DA00076FC01214120FFF740FD0121DFF8240AE4
:101DB000FFF791FD012140F27D60FFF763FD01BD5A
:101DC00080B5DFF8140A20210180DFF80C0A012118
:101DD0008170DFF8040A0421C170DFF8FC19DFF814
:101DE000FC0902F011FFDFF8F0094FF440510180C7
:101DF000DFF8E40901218170DFF8DC090421C170FA
:101E0000DFF8D419DFF8D80902F0FEFEDFF8C809C0
:101E10004FF480610180DFF8C00903218170DFF891
:101E2000B8091821C170DFF8B019DFF8B40902F061
:101E3000EBFEDFF8A4094FF400610180DFF8980998
:101E40000421C170DFF89019DFF8940902F0DCFE7C
:101E50000121DFF8900903F08BF8DFF87C094021BD
:101E60000180DFF874090421C170DFF86C19DFF814
:101E7000780902F0C9FEDFF86009F0210180DFF87F
:101E800058090021C170DFF85019DFF8600902F02D
:101E9000BBFEDFF844090E210180DFF83C09002178
:101EA000C170DFF83419DFF8400902F0ADFEDFF849
:101EB00028094FF6FF710180DFF81C0901218170AC
:101EC000DFF814090421C170DFF80C19DFF82009CC
:101ED00002F09AFEDFF800094FF470510180DFF83C
:101EE000F80803218170DFF8F0081021C170DFF8D5
:101EF000E818DFF8E80802F087FE4FF47051DFF8C9
:101F0000DC0802F0CEFF01BD80B500215FF000606B
:101F100003F003FA4FF4A06003F094F9DFF8D4085B
:101F20001C210170DFF8CC0800214170DFF8C408E3
:101F300000218170DFF8BC080121C170DFF8B4080E
:101F400003F09CF9DFF8AC0832210170DFF8A40837
:101F500001218170DFF89C080121C170DFF894082D
:101F600003F08CF9DFF88C08FF210170DFF884089A
:101F700002218170DFF87C080121C170DFF874084C
:101F800003F07CF9DFF86C0827210170DFF86408A2
:101F900001214170DFF85C0800218170DFF85408EE
:101FA0000121C170DFF84C0803F068F9DFF844083C
:101FB0000C210170DFF83C0801218170DFF8340842
:101FC0000121C170DFF82C0803F058F9DFF824086C
:101FD0001D210170DFF81C0802218170DFF8140850
:101FE0000121C170DFF80C0803F048F901BDE0B52C
:101FF0005FF08040FEF79CF80920ADF8000000205B
:10200000ADF8020040F2D560ADF804000020ADF854
:10201000060000208DF8080000A95FF08040FEF760
:10202000BFF901215FF08040FEF765FE1F215FF0E0
:102030008040FFF7E7F8012201215FF08040FEF7C2
:1020400019FD01215FF08040FEF7AEFC07BD80B5B1
:10205000DFF8AC0700684FF47A71B0FBF1F0FFF7DE
:10206000C6FD002800D0FEE701BD00B585B0012205
:1020700040F22F21DFF88C07FEF78AFD0C20ADF827
:1020800004000220ADF806000120ADF80800002091
:10209000ADF80A000F20ADF80C0001A9DFF86407C5
:1020A000FEF734FB0820ADF8000048208DF803004F
:1020B00003208DF8020000A9DFF8300702F0A4FD2C
:1020C0001F21DFF84007FFF79DF801221021DFF8FC
:1020D0003407FEF7CFFC0121DFF82807FEF764FC88
:1020E00005B000BD1FB5040000940020ADF8040049
:1020F0000020ADF806000020ADF808000020ADF883
:102100000C000C20ADF80A0000A9DFF8FC0603F073
:102110005DF901220221DFF8F40600F03AFE012207
:102120008021DFF8E40603F084FA01224021DFF881
:10213000D80603F07EFA0121DFF8CC0603F042FA5C
:102140004021DFF8C40603F0C5FA1FBD00B58BB00F
:10215000DFF8B80600F01AFCDFF8B4060090DFF8EC
:102160009C060190102002904FF480700390002094
:102170000490802005900020069000200790002009
:1021800008904FF40050099000200A9000A9DFF851
:102190007C0600F0DBFCDFF87C0600F0F7FBDFF8E4
:1021A00070060090DFF870060190002002904FF456
:1021B000967003900020089000A9DFF8580600F000
:1021C000C5FC01220221DFF8300600F0E2FD012209
:1021D0000221DFF8380600F0DCFD0BB000BD00B5D1
:1021E0008BB04FF6FF70ADF8100040F2CF20ADF885
:1021F0000C000020ADF812000020ADF80E0003A97D
:10220000DFF81806FEF7CCF80020ADF81800002023
:10221000ADF81A00DFF808060088ADF81E000220AD
:10222000ADF8200006A9DFF8F405FEF774F90020E8
:10223000ADF800000020ADF802000120ADF8040068
:102240000020ADF806000020ADF8080000A9DFF876
:10225000CC05FEF75BFA5021DFF8C005FEF7F8FC6D
:102260000421DFF8B805FEF7C7FD0121DFF8AC0552
:10227000FEF7C8FF01220221DFF8A005FEF7FAFBF6
:102280000BB000BD70B504000D001600290089B226
:10229000200002F094FD012852D0F6B20320DFF8AE
:1022A000841500FB06104078042807D3F6B20320FB
:1022B000DFF8701500FB061000210170F6B2032054
:1022C000DFF8601500FB061040780A280FD2F6B23E
:1022D0000320DFF8501500FB06104078401CF6B2D2
:1022E0000321DFF8402501FB062148707AE0F6B2B1
:1022F0000320DFF8301500FB06108078012871D02C
:10230000F6B20320DFF81C1500FB061080780028C9
:1023100004D001213000C0B201F036FEF6B2032035
:10232000DFF8001500FB061001218170DFF8F804CA
:1023300000880121B1408843DFF8EC14088051E0A7
:10234000F6B20320DFF8DC1400FB06100078042846
:1023500007D3F6B20320DFF8CC1400FB06100021EF
:102360004170F6B20320DFF8BC1400FB06100078C1
:1023700010280FD2F6B20320DFF8A81400FB0610D5
:102380000078401CF6B20321DFF8982401FB0621F7
:10239000087027E0F6B20320DFF8881400FB06106F
:1023A000807802281ED0F6B20320DFF8781400FBF4
:1023B00006108078002804D002213000C0B201F05D
:1023C000E3FDF6B20320DFF85C1400FB06100221E7
:1023D0008170DFF8540400880121B1400843DFF820
:1023E0004814088070BD80B500228021DFF8000409
:1023F000FFF748FF01224021DFF8F403FFF742FF17
:1024000002222021DFF8E803FFF73CFF032210211E
:10241000DFF8DC03FFF736FF04220821DFF8D003E2
:10242000FFF730FF05220421DFF8C403FFF72AFF7E
:1024300006220221DFF8B803FFF724FF072201215B
:10244000DFF8AC03FFF71EFF08224FF40041DFF86E
:10245000A003FFF717FF09224FF48041DFF8900334
:10246000FFF710FF0A224FF40051DFF88403FFF753
:1024700009FF0B224FF48051DFF87403FFF702FFCE
:102480000C224FF40061DFF86803FFF7FBFE0D221A
:102490004FF48061DFF85803FFF7F4FE0E224FF48B
:1024A0000071DFF84C03FFF7EDFE0F224FF480714F
:1024B000DFF83C03FFF7E6FE01BD10B50020040085
:1024C000E4B2042C27D2E4B2DFF86003205C0321DD
:1024D000DFF8502301FB002010F8010C022813D173
:1024E000E4B2DFF84C03205C002812D1E4B2DFF83C
:1024F0004403205C00F010F800280AD0E4B2DFF8B2
:1025000038030121215404E0E4B2DFF82403002160
:102510002154641CD4E710BD10B50400E4B2042CAF
:1025200001D3002043E0E4B2C44810EBC400012111
:1025300000F8081CE4B2012C06D035D3032C1BD0C4
:102540000ED3042C24D02FE0BD48007850F00100B9
:10255000BB4908704FF40051A04800F09BF825E0FB
:10256000B748007850F00200B54908704FF4805128
:102570009A4800F08FF819E0B148007850F0040054
:10258000AF4908704FF40061944800F083F80DE003
:10259000AB48007850F00800A94908704FF48061FA
:1025A0008E4800F077F801E0002000E0012010BD27
:1025B00010B5A3480078002862D000200400E4B2DF
:1025C000042C5DD2E4B29D4810F83400002855D0A8
:1025D000E4B29A4810EBC4004068401CE4B297494A
:1025E00011EBC4014860E4B2944810EBC4004068A9
:1025F0000F2843D3E4B29148002100F83410E4B22C
:102600008E4810EBC40000214160E4B2002C05D0DC
:10261000022C1BD00ED3032C24D02FE08848007846
:1026200010F0FE00864908704FF400516B4800F02E
:102630003AF823E08248007810F0FD0080490870E5
:102640004FF48051654800F02EF817E07C48007880
:1026500010F0FB007A4908704FF400615F4800F009
:1026600022F80BE07648007810F0F7007449087003
:102670004FF48061594800F016F8FFE7641C9EE7AC
:1026800010BD000018ED00E014E000E018E000E0EC
:10269000402B002038B504000D00290089B220002D
:1026A00002F02FFC31BD38B504000D00290089B2BD
:1026B000200002F0F6FB31BD10B582B0040000200E
:1026C000009040F20110A4B2844201D3002039E00E
:1026D00000F06CF800995B4A914201D2012100E0C0
:1026E000002190F00100C0B2084203D00098401CC5
:1026F0000090EDE700985349884201D1002021E085
:102700005148012101805148A4B2046001213F4891
:1027100000F0ECFA00984B49884201D2012000E019
:1027200000204949097811F00101014203D00098C5
:10273000401C0090EEE700984249884201D10020F9
:1027400000E0012016BD000000240140542B0020B1
:1027500080B501215FF0C050FFF7BDF8012003F004
:10276000F5F85FF48030FEF757FF4FF44070FEF746
:10277000ADFF0120FEF7C6FF03F07CF903F075F909
:102780004FF2234003F04EF903F06FF901BD80B51D
:102790002021124802F013FB012802D12C4801210C
:1027A00001702B48007802BD00E400E010B54FF442
:1027B00000510B4802F003FB040025480078E4B206
:1027C000844201D1012000E0002010BD10E000E0B3
:1027D000002801400B000400802B0020001801405D
:1027E000000C0140000C1A000010014000080140DC
:1027F00000140140842B00206C000240302800208F
:10280000FC1F0020000C0040004800401C0002405B
:10281000044800403000024004270020000400402B
:1028200000200020102A0020902B0020F41F002000
:10283000882B0020F01F0020682B0020202B002078
:10284000982B0020FFFF0100922B00202000024067
:10285000992B00202DE9F04104000D0016005FF0D7
:102860000108414803F020FA052802D0342003F083
:10287000E1F9200003F055F900200700BFB2B6B21D
:10288000B74218D2384803F00FFA052802D0342096
:1028900003F0D0F9BFB2B81055F82010BFB2381904
:1028A00003F07BF9042802D118F0010801E00020B0
:1028B00080463F1DE2E74046C0B2BDE8F08130B43B
:1028C000030000200400A4B292B2944209D2A4B240
:1028D000A010A4B2A51053F8255041F82050241D93
:1028E000F1E7002030BC704780B503F00FF91F48B6
:1028F0000078C0B2FF2810D01D480078C0B2FF2871
:102900000BD01C480078C0B2FF2806D01A480078C7
:10291000C0B2FF2801D0012000E00020002821D013
:10292000122216491148FFF7CAFF0422144915481C
:10293000FFF7C5FF0422124900A803F0FFF99DF834
:102940000000FF280ED19DF80100FF280AD19DF854
:102950000200FF2806D19DF80300FF2802D10A4893
:102960000021C16501BD0000A086010000D0030860
:1029700001D0030802D0030803D00308C81F0020B9
:102980000C2A002000E00308B029002010B5040044
:10299000DFF86005844230D0DFF85C0584422CD03B
:1029A000DFF85805844228D0DFF85405844224D04B
:1029B000DFF85005844220D0DFF84C0584421CD05B
:1029C000DFF84805844218D0DFF84405844214D06B
:1029D000DFF84005844210D0DFF83C0584420CD07B
:1029E000DFF83805844208D0DFF83405844204D08B
:1029F0006E210FF24050FEF7FDFD20684FF6FE718C
:102A00000840206000202060002060600020A0605E
:102A10000020E060DFF8DC04844208D1DFF8040520
:102A2000006850F00F00DFF8FC1408608DE0DFF85C
:102A3000C804844208D1DFF8EC04006850F0F000CC
:102A4000DFF8E014086080E0DFF8B004844208D1C9
:102A5000DFF8D004006850F47060DFF8C814086034
:102A600073E0DFF89C04844208D1DFF8B804006802
:102A700050F47040DFF8AC14086066E0DFF88404BE
:102A8000844208D1DFF89C04006850F47020DFF81D
:102A90009414086059E0DFF87004844208D1DFF82C
:102AA0008404006850F47000DFF8781408604CE08B
:102AB000DFF85804844208D1DFF86804006850F059
:102AC0007060DFF8601408603FE0DFF8440484427F
:102AD00008D1DFF85404006850F00F00DFF8481404
:102AE000086032E0DFF82C04844208D1DFF83804B3
:102AF000006850F0F000DFF83014086025E0DFF8DF
:102B00001804844208D1DFF82004006850F4706093
:102B1000DFF81414086018E0DFF80004844208D1DC
:102B2000DFF80404006850F47040DFF8FC1308601C
:102B30000BE0DFF8EC03844207D1DFF8EC03006818
:102B400050F47020DFF8E013086010BD70B5040089
:102B50000D000026DFF89C03844230D0DFF8980394
:102B600084422CD0DFF89403844228D0DFF890030D
:102B7000844224D0DFF88C03844220D0DFF888031D
:102B800084421CD0DFF88403844218D0DFF880032D
:102B9000844214D0DFF87C03844210D0DFF878033D
:102BA00084420CD0DFF87403844208D0DFF870034D
:102BB000844204D0CE210FF27C30FEF71BFDA868C2
:102BC000102807D0A868002804D0CF210FF2643065
:102BD000FEF710FDE868002803D0E868B0F5803FF4
:102BE00004D3D0210FF24C30FEF704FD28694028B1
:102BF00007D02869002804D0D1210FF23830FEF721
:102C0000F9FC6869802807D06869002804D0D221BF
:102C10000FF22030FEF7EEFCA86900280ED0A8695C
:102C20004FF48071884209D0A8694FF4007188423E
:102C300004D0D3210FF2FC20FEF7DCFCE869002869
:102C40000CD0E869B0F5806F08D0E869B0F5006F86
:102C500004D0D4210FF2DC20FEF7CCFC286A202817
:102C600007D0286A002804D0D5210FF2C820FEF72B
:102C7000C1FC686AB0F5405F0FD0686AB0F5005FCC
:102C80000BD0686AB0F5805F07D0686A002804D06E
:102C9000D6210FF2A020FEF7ADFCA86AB0F5804F58
:102CA00007D0A86A002804D0D7210FF28820FEF7A9
:102CB000A1FC20680600DFF874020640A868296AB3
:102CC00008432969084369690843A9690843E96910
:102CD0000843696A0843A96A084306432660E8680E
:102CE00060602868A0606868E06070BD38B5040066
:102CF0000D00DFF80002844231D0DFF8FC0184428D
:102D00002DD0DFF8F801844229D0DFF8F4018442A5
:102D100025D0DFF8F001844221D0DFF8EC018442B5
:102D20001DD0DFF8E801844219D0DFF8E4018442C5
:102D300015D0DFF8E001844211D0DFF8DC018442D5
:102D40000DD0DFF8D801844209D0DFF8D4018442E5
:102D500005D04FF494710FF2DC10FEF74BFCEDB28E
:102D6000002D08D0EDB2012D05D040F229110FF24F
:102D7000C410FEF73FFCEDB2002D04D0206850F0E7
:102D80000100206004E020684FF6FE7108402060DA
:102D900031BD70B504000D001600DFF85801844203
:102DA00031D0DFF8540184422DD0DFF85001844245
:102DB00029D0DFF84C01844225D0DFF84801844255
:102DC00021D0DFF8440184421DD0DFF84001844265
:102DD00019D0DFF83C01844215D0DFF83801844275
:102DE00011D0DFF8340184420DD0DFF83001844285
:102DF00009D0DFF82C01844205D04FF4A4710FF202
:102E00003410FEF7F7FB35F00E00002801D1002D3D
:102E100005D140F249110FF21C10FEF7EBFBF6B2A0
:102E2000002E08D0F6B2012E05D04FF4A5710FF296
:102E30000410FEF7DFFBF6B2002E03D02068284313
:102E4000206002E02068A843206070BD10B5040037
:102E5000DFF8A000844231D0DFF89C0084422DD0FE
:102E6000DFF89800844229D0DFF89400844225D00E
:102E7000DFF89000844221D0DFF88C0084421DD01E
:102E8000DFF88800844219D0DFF88400844215D02E
:102E9000DFF88000844211D0DFF87C0084420DD03E
:102EA000DFF87800844209D0DFF87400844205D04E
:102EB00040F275110FF27C00FEF79CFB606880B257
:102EC00010BD10B5040014F0704F02D01848044231
:102ED00001D1002C05D14FF403710FF25800FEF719
:102EE00089FBE00002D51048046001E00D48046051
:102EF00010BD0000080002401C00024030000240EB
:102F000044000240580002406C0002408000024031
:102F1000080402401C040240300402404404024001
:102F20005804024004000240040402400F80FFFFE6
:102F30000000F0EF5A3A5CB0D9B6C8D4C65C61B9AB
:102F4000A4D7F7CEC4B5B55CB2E2BFD8322E305CA0
:102F5000534F555243455C7770613930302D61696C
:102F60002056302E355C53544D3332463130785F25
:102F70005374645065726970685F447269766572F3
:102F80005C7372635C73746D3332663130785F6486
:102F90006D612E63000000002DE9F84380460C00AF
:102FA000002600200700402F19DA8020DFF8741176
:102FB00000FB081030F9170002F0CCFE310002F0DF
:102FC000E1FE8146781C02F0C5FE0100484602F091
:102FD0004BFF310002F0C6FF06007F1CE3E7300024
:102FE00003F002F8A08300200500402D1EDA8020A7
:102FF000DFF8301100FB081030F91500B4F91C108F
:10300000401A8021DFF81C2101FB082131F915103D
:10301000B4F91C20891A484303F008F8D4E90023C6
:1030200003F01CF8C4E900016D1CDEE7D4E90001DF
:1030300000225FF0804303F085F80022DFF8E830DB
:1030400003F052F9C4E90001D4E9000103F070FA79
:1030500003F0B6FA03F0EEFAC4E90001BDE8F1832B
:103060000CB42DE9F04180460F0006A80600D7E910
:103070000001DFF8302CDFF8303C03F003FB29D8E7
:1030800000200400B8F10100844221DA3068050014
:10309000361DD5E90001DFF80C2CDFF80C3C03F0FD
:1030A000F1FA13D8B868A96803F004FB05D2A86840
:1030B000B96802F067FEA86008E0DFF8E40BB968C1
:1030C00002F060FEA96802F04DFFA860641CD9E719
:1030D0000020B860BDE8F0015DF80CFBF0B40024FE
:1030E0002300DBB2402B1AD2DBB28024DFF8BC5BBA
:1030F00004FB0254DBB28025DFF8B06B05FB0065F2
:1031000035F81350DBB28026DFF8A07B06FB017692
:1031100036F81360AD1B24F813505B1CE1E7F0BCDC
:10312000704700000420002080848E41F0B583B0F9
:10313000040001200500202006003F2D1DDAB542C5
:103140000FDA00A914EBC60000F056F814EBC60124
:1031500014EBC50000F050F814EBC50100A800F016
:103160004BF820200700BE4204DBF61B022097FB31
:10317000F0F7F8E7BE196D1CDFE7F7BDF0B5040006
:103180000D0016002168286803F0A6FA07006168A0
:10319000686803F0A1FA0100380002F0F3FD306026
:1031A0002168686803F098FA07006168286803F0EE
:1031B00093FA390002F0D6FE7060F0BD70B50400DD
:1031C0000D0016002168286802F0CCFE30606168AE
:1031D000686802F0C7FE706070BD70B504000D0035
:1031E00016002068296802F0CDFD306060686968CB
:1031F00002F0C8FD706070BD02680A6042684A60F3
:1032000070472DE9F34FADF50B7D0020DFF8A01AD4
:1032100003F0CEFA8046894600205FF0804103F03B
:10322000C7FA02000B004046494603F05DF803F080
:10323000C9FA0390002000900098402818DA0098FE
:103240008B998022DFF8643A02FB013131F91000DA
:1032500002F080FD00990AAA42F8310000980AA9FC
:1032600011EBC000002141600098401C0090E3E792
:10327000012002900398029988425EDB0398401C6B
:103280000299401A02F0D2FE02000B0000205FF00B
:10329000804103F011FD03F095FA8146022099FB6D
:1032A000F0F801200400A04543DB601E02F0BEFEE2
:1032B00082468B460298401E02F0B8FE02000B00C8
:1032C00000205FF0804103F0F7FC52465B4602F0BD
:1032D00039FF03F077FA8246601E05003F2D26DA9B
:1032E00018EB050B08AA0AA810EBCB010AA810EBF3
:1032F000C500FFF763FF06AA0AA810EBCB010AA8D6
:1033000010EBC500FFF769FF0AA810EBCB02DFF84E
:10331000FC0B10EBCA0106A8FFF730FF0AA810EB60
:10332000C50108A8FFF768FF19EB0505D6E7641C7F
:10333000B9E70298401C02909CE70AA8FFF7F6FE46
:1033400000200600152E80F2ED800AA850F8360005
:103350005FF0894102F088FD0AA941F836000AA809
:1033600050F83600DFF8301902F07EFD0AA941F866
:1033700036008B98DFF8981B31F8100002F0F4FC4F
:103380000AA951F8361003F0A7F903F053F9002207
:10339000DFF8803B02F0A8FF03F0CAF80AA941F861
:1033A00036000AA810EBC60040685FF0894102F0C1
:1033B0005BFD0AA911EBC60148600AA810EBC60024
:1033C0004068DFF8D41802F04FFD0AA911EBC601DE
:1033D00048608B98DFF8381B31F8100002F0C4FC0D
:1033E0000AA911EBC601496803F076F903F022F946
:1033F0000022DFF8203B02F077FF03F099F80AA9DA
:1034000011EBC60148600AA850F836000AA951F825
:10341000361003F061F980460AA810EBC600406838
:103420000AA911EBC601496803F056F9414602F0BA
:1034300099FD03F0C5F803F0FDF8CDE90401DDE9DD
:103440000401DFF8D42A12EBC60CDCE9002302F0F9
:103450004BFFCDE9040128208C9900FB0610DDE923
:103460000423C0E9002328208C9900FB06100AA938
:1034700051F83610416128208C9900FB06100AA9EA
:1034800011EBC6014968816128208C9900FB061266
:10349000D2E900010022002303F0F4F83AD20AA88E
:1034A00050F8360003F0C6F828228C9B02FB063C3D
:1034B000DCE9002302F018FF03F03AF803F014FEF1
:1034C000DFF8D81703F008F903F0B4F8DFF84C2A56
:1034D000DFF84C3A02F008FF03F02AF828218C9A12
:1034E00001FB062188600AA810EBC6004068002195
:1034F00003F0E0F814D2DFF8A80728218C9A01FB2A
:103500000621896802F03EFC28218C9A01FB0621E5
:10351000886005E028208C9900FB0610002181605E
:10352000761C0FE702200190019815281FDA380059
:1035300003F080F880468946019828218C9A01FB87
:103540000020D0E90023019828218C9F01FB0077FF
:10355000D7E9000102F0F6FD42464B4602F07EFD3F
:1035600002F0E6FF07000198401C0190DCE73800FC
:1035700003F026F80700380003F05CF88C9FD7E9C9
:103580000A2302F0B1FE02F0D3FF07008C98876493
:103590000DF50D7DBDE8F08F2DE9F04387B00400F7
:1035A000072201210020FFF799FD082202210120B6
:1035B000FFF794FD092200210220FFF78FFD14F18F
:1035C00008010020FFF71DFEA06B03F033F8020096
:1035D0000B000020DFF84C1902F040FD02F0A8FFBC
:1035E000A06304F250310120FFF70BFE14F5D36104
:1035F0000220FFF706FE04F59851B8310720FFF7C7
:1036000000FE14F5B8510820FFF7FBFD04F5D0517A
:1036100048310920FFF7F5FD14F51E610320FFF77F
:10362000F0FD04F628510420FFF7EBFD04F580516E
:1036300070310520FFF7E5FD14F130010020FFF7A0
:10364000ABFC04F278310120FFF7A6FC14F5D86139
:103650000220FFF7A1FC14F59F510720FFF79CFC07
:1036600004F5B85128310820FFF796FC04F5D05135
:1036700070310920FFF790FC04F608210320FFF7C2
:103680008BFC14F555610420FFF786FC04F580518E
:1036900098310520FFF780FCDFF88C08006802F005
:1036A000C5FC02000B000020DFF8801802F01CFEB1
:1036B00002F03EFF41F61C61085104F5805098303D
:1036C000059014F55560049004F60820039004F565
:1036D000D0507030029004F5B8502830019014F5A5
:1036E0009F50009014F5D86304F2783214F1300141
:1036F0000920FFF7B5FC616CD4F81C0A02F0ECFF5E
:103700008046A16CD4F8200A02F0E6FF414602F0A0
:1037100029FC8046D4F88C13D4F8640D02F0DCFF49
:10372000414602F01FFC8046D4F89013D4F8680D8F
:1037300002F0D2FF414602F015FC8046D4F8D416C0
:1037400041F2AC00005902F0C7FF414602F00AFC0A
:103750008046D4F8D81641F2B000005902F0BCFF00
:10376000414602F0FFFB0500A16CD4F81C0A02F0F0
:10377000B3FF8046616CD4F8200A02F0ADFF01006F
:10378000404602F0FFFA8046D4F89013D4F8640D56
:1037900002F0A2FF414602F0E5FB8046D4F88C130C
:1037A000D4F8680D02F098FF0100404602F0EAFAF2
:1037B0008046D4F8D81641F2AC00005902F08CFFD4
:1037C000414602F0CFFB8046D4F8D41641F2B00057
:1037D000005902F081FF0100404602F0D3FA0600D2
:1037E00014F5EF50056041F6E4500651D4E90C01A0
:1037F000DFF83C27DFF83C3702F044FF14D9D4E966
:10380000DE01DFF82C27DFF82C3702F03BFF0BD965
:1038100014F5D862D2E90001DFF81427DFF8143775
:1038200002F030FF00F25281208806283CD3208825
:1038300002F006FC02000B00DFF8FC06DFF8FC16C5
:1038400002F080FC04F6082CDCE9002303F0AEFC57
:1038500051D3208802F0F4FB02000B00DFF8D806F9
:10386000DFF8D81602F06EFC14F5556CDCE9002385
:1038700003F09CFC3FD3208802F0E2FB02000B0027
:10388000DFF8B406DFF8B41602F05CFC04F5805CE7
:103890001CF1980CDCE9002303F088FC2BD341F6E3
:1038A00018600021015115E104F60822D2E9000157
:1038B000DFF88C26DFF88C3602F0E4FE1BD914F515
:1038C0005562D2E90001DFF87826DFF8783602F099
:1038D000D9FE10D904F580529832D2E90001DFF800
:1038E0006026DFF8603602F0CDFE04D941F618609C
:1038F00000210151EEE0DFF85006008880B2401C44
:10390000C0004FF42F7190FBF1F002F023FA070092
:103910002800290002F0E0FE80462800290002F07D
:10392000DBFE81463000310002F0D6FE494602F04F
:1039300019FB0100404602F097FA02F041FE41F601
:10394000186108512800290002F0C6FE80463000A8
:10395000310002F0C1FE414602F004FB5FF07E51EF
:1039600002F0A8FE03D241F61860002101512800A0
:10397000DFF8D81503F032FC1DD82800390002F01A
:10398000ABFEDFF8CC1502F0A7FEDFF8C81502F099
:103990006BFA02F04FFE02000B0004F5E85C1CF12C
:1039A000E80CDCE9000102F059FB04F5E852E832CA
:1039B000C2E9000122E028005FF0404102F07AFEF7
:1039C0001CD22800390002F087FEDFF8841502F0CF
:1039D00083FEDFF8801502F047FA02F02BFE0200AA
:1039E0000B0004F5E85C1CF1F00CDCE9000103F0CD
:1039F00007FC04F5E852F032C2E900013000DFF8BC
:103A00004C1503F0EBFB1AD83000390002F064FECD
:103A1000DFF83C1502F060FEDFF8381502F024FAFA
:103A200002F008FE02000B0014F5F05CDCE9000176
:103A300002F014FB14F5F052C2E9000122E030005C
:103A40005FF0404102F036FE1CD23000390002F037
:103A500043FEDFF8FC1402F03FFEDFF8F81402F03A
:103A600003FA02F0E7FD02000B0004F5F05C1CF124
:103A7000080CDCE9000103F0C3FB04F5F052083246
:103A8000C2E9000104F5E850E830D0E9002304F56C
:103A9000E85C1CF1F00CDCE9000102F0DFFA04F54F
:103AA000E852F832C2E9000114F5F050D0E90023E1
:103AB00004F5F05C1CF1080CDCE9000102F0CEFA20
:103AC00004F5F0521032C2E9000103E041F618603B
:103AD0000021015107B0BDE8F08338B50400D4F8E7
:103AE0001C1AD4F8640D02F03DFA41F2AC010959F8
:103AF00002F038FA41F6CC51085141F6CC50005949
:103B0000DFF8541402F0B0F941F6CC510851D4F862
:103B1000201AD4F8680D02F025FA41F2B0010959D3
:103B200002F020FA41F6D051085141F6D050005928
:103B3000DFF8241402F098F941F6D051085141F60B
:103B4000D050015941F6D050005902F0C5FD050092
:103B500041F6CC50015941F6CC50005902F0BCFD61
:103B6000290002F0FFF902F02BFD02F063FD04F5DD
:103B7000E852B832C2E9000131BD70B50600D6F88E
:103B8000641D41F2AC00805902F0ECF95FF0804115
:103B900002F06AF90100D6F81C0A02F0F3F802F00C
:103BA00049FD04000D00D6F8680D41F2B0018959B5
:103BB00002F0E8F802F03EFDDFF8A023DFF8A033C2
:103BC00002F0C0FA22002B0002F048FA02F0B0FC2A
:103BD00041F6A451885141F6A4508059DFF878137A
:103BE00002F042F941F6A4518851D6F8681D41F21D
:103BF000B000805902F0B6F95FF0804102F034F96C
:103C00000100D6F8200A02F0BDF802F013FD04000E
:103C10000D00D6F8640D41F2AC01895902F0B2F8FA
:103C200002F008FDDFF83423DFF8343302F08AFABB
:103C300002000B002000290003F0E2FA02F078FCF9
:103C400041F6A851885141F6A8508059C24902F066
:103C50000BF941F6A851885141F6A850815941F617
:103C6000A850805902F038FD040041F6A450815953
:103C700041F6A450805902F02FFD210002F072F9A4
:103C800002F09EFC02F0D6FC06F5E8529032C2E942
:103C9000000170BD000000000000FA46000034433F
:103CA0000000B4439B9999999999B93F0420002049
:103CB00000005040F0B506000C0035009448008824
:103CC00002F0BEF9D4E90C2302F03CFA0022A54B25
:103CD00002F038FA0022A44B02F006FB02F028FCA6
:103CE0003060361DA06B3060361D8948408802F078
:103CF000A7F9D4E9DE2302F025FA0022994B02F05D
:103D000021FA0022984B02F0EFFA02F011FC306029
:103D1000361DD4F880033060361D7D48808802F05F
:103D20008FF914F5D867D7E9002302F00BFA0022C7
:103D30008C4B02F007FA00228B4B02F0D5FA02F00E
:103D4000F7FB3060361DD4F8C8063060361D704869
:103D5000C08802F075F904F60827D7E9002302F0BD
:103D6000F1F90022814B02F0EDF90022804B02F0C4
:103D7000BBFA02F0DDFB3060361DD4F8100A30606B
:103D8000361D6348008902F05BF914F55567D7E9E1
:103D9000002302F0D7F90022744B02F0D3F900227D
:103DA000734B02F0A1FA02F0C3FB3060361DD4F869
:103DB000580D3060361D5648408902F041F904F52F
:103DC00080579837D7E9002302F0BCF90022674BEF
:103DD00002F0B8F90022664B02F086FA02F0A8FB66
:103DE0003060361D14F5855000683060361D484837
:103DF000808902F025F914F59F57D7E9002302F0D6
:103E0000A1F90022574B02F09DF90022564B02F017
:103E10006BFA02F08DFB3060361D3D48C08902F020
:103E20000FF904F5B8572837D7E9002302F08AF9CB
:103E300000224C4B02F086F900224B4B02F054FA60
:103E400002F076FB3060361D3148008A02F0F8F847
:103E500004F5D0577037D7E9002302F073F9002238
:103E6000404B02F06FF900223F4B02F03DFA02F0A6
:103E70005FFB3060361D28683E4903F0AFF905D876
:103E800041F61C6000593060361D02E000203060B1
:103E9000361D14F5EF500168374802F01DFC374914
:103EA00001F0E2FF3060361D41F6E450015932481E
:103EB00002F012FC314901F0D7FF3060361D41F6A7
:103EC000186000593060361D04F5E850B830D0E96C
:103ED000002300202A4902F035F90022294B02F084
:103EE00003FA02F025FB3060361D04F5E8509030EF
:103EF000D0E900230020224902F024F90022214BBE
:103F000002F0F2F902F014FB3060F0BD201E002038
:103F1000C81F002000408F40201F00204AD8124DAB
:103F2000FB210940000012C0782B0020006AF840F5
:103F30000BD7A3703D0AC73F7B14AE47E17A843F9D
:103F4000B91E85EB51B89E3F2C0000400100004097
:103F50000000C84200BA5B4A0000404083C0CAA1CA
:103F600045B6EB3F0000084000804A400000F03FAB
:103F7000000069400100204100401C4600007C42D6
:103F80000000394000001C4030B585B004000D0031
:103F90008DF800508DF8014001F02DFD029003F0E6
:103FA000F8F9ADF80C0000A800F002F805B030BD3B
:103FB00010B5040042480078202802D34048002170
:103FC00001700FF20810027821003D4800783D4B47
:103FD00013EB001001F0B2FE39480078401C38495C
:103FE000087039480078401C3749087010BD3648C1
:103FF0000078704770B504000D000026002C01D138
:10400000FF205CE02E4800782F49097888423ED294
:104010002D4800782A490978401A0600F6B2EDB218
:10402000AE4223D2F6B20FF2A400007800FB06F2F3
:10403000F6B27042234911EB001000F2002120007B
:1040400001F07CFEEDB2F6B2A81B0FF280010978F8
:1040500001FB00F21B49F6B20FF27000007800FB82
:1040600006F014EB001001F069FE21E0EDB20FF252
:104070005C00007800FB05F2F6B27042114911EBCA
:10408000001000F20021200001F058FE10E0EDB217
:104090000FF23800007800FB05F2094800780A4961
:1040A0000978401A074911EB0011200001F046FE83
:1040B00005480078401B044908700348007870BD2B
:1040C0009A2B0020042500209B2B002010000000CC
:1040D00038B50400DFF83404A5210170DFF82C04A2
:1040E0005A214170DFF82404C2218170DFF81C04DA
:1040F000DFF81C140978C1706022DFF81814DFF8AB
:10410000180401F01BFE6421DFF8000400F048FAF7
:104110000500ADB2012D03D3280080B2FEF7CCFA22
:104120004FF480720021DFF8E40303F044F931BD5D
:1041300038B50400DFF8D403A5210170DFF8CC0303
:104140005A214170DFF8C403C5218170DFF8BC0338
:10415000DFF8BC130978C1700222DFF8C013DFF862
:10416000B80301F0EBFD0621DFF8A00300F018FA18
:104170000500ADB2012D03D3280080B2FEF79CFAF2
:104180004FF480720021DFF8840303F014F931BD8D
:104190001FB5DFF87803A5210170DFF870035A21FD
:1041A0004170DFF86803CB218170DFF86003DFF82E
:1041B00060130978C17010200400A4B2220000A985
:1041C000DFF8540301F0BAFD211D89B2DFF83C038A
:1041D00000F0E6F90400A4B2012C03D3200080B261
:1041E000FEF76AFA4FF480720021DFF8200303F033
:1041F000E2F81FBDF8B50400002006000500E4B297
:10420000012C0FD3E4B20A2C0CD20222DFF81013D7
:10421000E4B2DFF8100310EB4400801E01F08EFDC5
:1042200001200600E4B20A2C0ED100200700FFB2E4
:10423000092F07D2FFB2BB484FF47A7120F817104C
:104240007F1CF4E701200600F6B2002E05D01222F2
:10425000B449B548FEF7FEFA0500EDB2002D01D0D5
:10426000012000E00020C0B2F2BD10B5A9480068EE
:1042700002F0E0F902000B00AC48AD4902F034F85E
:104280000022AC4B01F05EFF0022AB4B01F0E6FEDA
:1042900002F098FAA34908809E48806802F0CAF9A3
:1042A00002000B00A148A24902F01EF80022A14B17
:1042B00001F048FF0022A04B01F0D0FE02F082FA8C
:1042C000984948809348006902F0B4F902000B0055
:1042D0009648974902F008F80022964B01F032FF09
:1042E0000022954B01F0BAFE02F06CFA8D498880ED
:1042F0008848806902F09EF902000B0000208F4977
:1043000001F0F2FF00228B4B01F01CFF00228A4BD0
:1043100001F0A4FE02F056FA8249C8807D48006A86
:1043200002F088F902000B000020844901F0DCFF54
:104330000022804B01F006FF00227F4B01F08EFE31
:1043400002F040FA774908817248806A02F072F9F7
:1043500002000B000020794901F0C6FF0022754BD6
:1043600001F0F0FE0022744B01F078FE02F02AFA10
:104370006C4948816748006B02F05CF902000B0051
:1043800000206F4901F0B0FF00226A4B01F0DAFE15
:104390000022694B01F062FE02F014FA6149888143
:1043A0005C48406B02F046F902000B0000206449B3
:1043B00001F09AFF00225F4B01F0C4FE00225E4B29
:1043C00001F04CFE02F0FEF95649C8815148806B5D
:1043D00002F030F902000B000020594901F084FF7F
:1043E0000022544B01F0AEFE0022534B01F036FE8A
:1043F00002F0E8F94B49088212224A494A48FEF77E
:1044000029FA0400E4B2002C01D0012000E00020D1
:1044100010BD38B5040020680500280002F0AFFF89
:10442000012032BD30B5CBB004004648008840F2D0
:104430002D11884201D3002065E0A4B22200424938
:1044400000A801F07BFC3F4800210180A4B2062CAB
:1044500012D19DF800004C2806D19DF80100542887
:1044600002D13A4801210170A4B22200002136484D
:1044700002F0A1FF012046E033480078A52805D1CD
:10448000314840785A2801D1012000E0002000285E
:1044900001D1002037E0210089B200A800F058F8CF
:1044A000002801D100202EE09DF80200B32806D09C
:1044B000C3280AD0C6280ED0CA2810D014E09DF810
:1044C0000300FEF729F8050010E09DF80300FFF750
:1044D00091FE05000AE0FFF7C8FE050006E001A80E
:1044E000FFF797FF050001E000200500A4B22200BD
:1044F0000021154802F05FFFEDB2002D01D0012030
:1045000000E00020C0B24BB030BD000030280020D9
:10451000992B0020B029002034280020902B002067
:1045200008270020C81F002000D003081F85EB517A
:10453000B8DE4C4000408F400000E03F00001440D7
:1045400000005940942B002004270020962B0020C7
:10455000F8B504000D0040F22D10ADB2854201D334
:1045600000201CE0ADB2A81E042190FBF1F0060073
:104570000222ADB22819811E00A801F0DFFB02F073
:1045800025FFB6B23100200002F024FF0700BDF87D
:104590000000BFB2B84201D0002000E00120F2BD0F
:1045A000F8B504000D00ADB2042095FBF0F101FB5D
:1045B0001051002909D0ADB2042095FBF0F0401C49
:1045C0000600B6B2B000070005E0ADB2042095FBCE
:1045D000F0F006002F0040F22B10BFB2874201D34B
:1045E000002011E002F0F2FEB6B23100200002F02D
:1045F000F1FEADF80000022200A9BFB2381901F0A7
:104600009DFBBF1C380080B2F2BD0000F8B504006D
:104610000D0000260027DFF8600384420CD0DFF88D
:104620005C03844208D0DFF85803844204D0DE21C2
:10463000DFF85003FCF7DEFF2868002828D0286840
:10464000B0F5803F24D02868B0F5003F20D028681E
:10465000B0F5403F1CD02868B0F5802F18D02868EE
:10466000B0F5A02F14D02868B0F5C02F10D028685E
:10467000B0F5E02F0CD02868B0F5002F08D02868DE
:10468000B0F5102F04D0DF21DFF8F802FCF7B2FFFD
:104690002879002807D02879012804D0E021DFF804
:1046A000E402FCF7A7FF6879002807D068790128A1
:1046B00004D0E121DFF8CC02FCF79CFFA8680028B9
:1046C00037D0A868B0F5003F33D0A868B0F5802F88
:1046D0002FD0A868B0F5C02F2BD0A868B0F5002F58
:1046E00027D0A868B0F5202F23D0A868B0F5402FB8
:1046F0001FD0A868B0F5602F1BD0A868002818D07C
:10470000A868B0F5003F14D0A868B0F5C02F10D04D
:10471000A868B0F5002F0CD0A868B0F5202F08D0FD
:10472000A868B0F5402F04D0E221DFF85802FCF76A
:1047300061FFE868002808D0E868B0F5006F04D091
:10474000E321DFF84002FCF755FF287C012802D363
:10475000287C112804D3E421DFF82802FCF74AFF63
:1047600060680600DFF8280406402868297950EAC6
:10477000012006436660A0680600DFF87C0406405E
:10478000E868A9680843697950EA41000643A660D1
:10479000E06A060036F47006287C401E0743FFB22C
:1047A00056EA0756E662F1BD38B504000D00DFF8A1
:1047B000C80184420DD0DFF8C401844209D0DFF87B
:1047C000C001844205D040F22D110FF2C830FCF731
:1047D00011FFEDB2002D08D0EDB2012D05D04FF440
:1047E00097710FF2B030FCF705FFEDB2002D04D049
:1047F000A06850F00100A06003E0A06840084000FD
:10480000A06031BD10B50400DFF86C0184420DD00A
:10481000DFF86801844209D0DFF86401844205D0E2
:1048200040F27D110FF26C30FCF7E4FEA06850F00E
:104830000800A06010BD38B504000025DFF838017D
:1048400084420DD0DFF83401844209D0DFF8300112
:10485000844205D040F28B110FF23830FCF7CAFECB
:10486000A068000702D50120050001E00020050036
:104870002800C0B232BD10B50400DFF8FC0084424D
:104880000DD0DFF8F800844209D0DFF8F40084424C
:1048900005D040F2A3110FF2FC20FCF7ABFEA0689C
:1048A00050F00400A06010BD38B504000025DFF80A
:1048B000C80084420DD0DFF8C400844209D0DFF87C
:1048C000C000844205D040F2B1110FF2C820FCF7BD
:1048D00091FEA068400702D50120050001E00020FC
:1048E00005002800C0B232BD70B504000D000026DE
:1048F000214884420CD02148844209D0DFF8FC02D0
:10490000844205D040F222310FF28820FCF772FE7B
:10491000002D29D0B5F5805F26D0B5F5005F23D0F6
:10492000B5F5405F20D0B5F5804F1DD0B5F5A04F4F
:104930001AD0B5F5C04F17D0B5F5E04F14D0B5F586
:10494000005F11D0B5F5405F0ED0B5F5804F0BD0AC
:10495000B5F5A04F08D0B5F5C04F05D040F22331D2
:104960000FF23020FCF746FEA068060036F4E04661
:104970002E43A66070BD00000024014000280140C5
:10498000003C0140944B00082DE9F04704000D0065
:1049900016001F005FF000085FF000095FF0000ADA
:1049A000DFF85C0284420DD0DFF85802844209D05F
:1049B000DFF84802844205D040F2A5310FF2D4104E
:1049C000FCF718FEEDB2002D38D0EDB2012D35D038
:1049D000EDB2022D32D0EDB2032D2FD0EDB2042D69
:1049E0002CD0EDB2052D29D0EDB2062D26D0EDB29A
:1049F000072D23D0EDB2082D20D0EDB2092D1DD00A
:104A0000EDB20A2D1AD0EDB20B2D17D0EDB20C2D50
:104A100014D0EDB20D2D11D0EDB20E2D0ED0EDB2A1
:104A20000F2D0BD0EDB2102D08D0EDB2112D05D009
:104A300040F2A6310FF25C10FCF7DCFDF6B2012E5D
:104A400002D3F6B2052E05D340F2A7310FF244107F
:104A5000FCF7D0FDFFB2002F1AD0FFB2012F17D004
:104A6000FFB2022F14D0FFB2032F11D0FFB2042FD8
:104A70000ED0FFB2052F0BD0FFB2062F08D0FFB229
:104A8000072F05D04FF46A710FF20810FCF7B2FD42
:104A9000EDB20A2D17D3E06880460720B5F10A0170
:104AA000032251438840814638EA0908FFB2B5F134
:104AB0000A000321484317FA00F0814659EA080822
:104AC000C4F80C8014E0206980460720032101FB14
:104AD00005F18840814638EA0908FFB2032000FB4F
:104AE00005F017FA00F0814659EA0808C4F810806A
:104AF000A06B8046C8F3015082461F20F6B2F11C1D
:104B0000B1EB0A01491E052251438840814638EA2B
:104B10000908EDB2F6B2F01CB0EB0A00401E052108
:104B2000484315FA00F0814659EA0808C4F838806D
:104B3000BDE8F087F8B504000D0000270026DFF877
:104B4000C00084420DD0DFF8BC00844209D0DFF8F9
:104B5000AC00844205D040F2E5310FF23800FCF79A
:104B600049FDEDB2012D02D3EDB2052D05D340F282
:104B7000E6310FF22000FCF73DFDA06B070037F493
:104B80004017EDB2681E060057EA0657A763F1BD4D
:104B9000FFFEF0FF5A3A5CB0D9B6C8D4C65C61B922
:104BA000A4D7F7CEC4B5B55CB2E2BFD8322E305C24
:104BB000534F555243455C7770613930302D6169F0
:104BC0002056302E355C53544D3332463130785FA9
:104BD0005374645065726970685F44726976657277
:104BE0005C7372635C73746D3332663130785F610D
:104BF00064632E6300000000FDF7F1FF003C0140FC
:104C000000240140002801402DE9F84F04000D0068
:104C1000002600275FF000085FF000095FF0000A3F
:104C20005FF0000BDFF8300384421CD0DFF82C0368
:104C3000844218D0DFF82803844214D0DFF824031C
:104C4000844210D0DFF8200384420CD0DFF81C032C
:104C5000844208D0DFF85805844204D0B1210FF215
:104C6000EC40FCF7C7FCE878002819D0E878042865
:104C700016D0E878282813D0E878482810D0E878AB
:104C800014280DD0E87810280AD0E8781C2807D01E
:104C9000E878182804D0B2210FF2B040FCF7AAFC43
:104CA0002888002804D1B3210FF2A040FCF7A2FC11
:104CB000E87810F00F000600E878C0060FD5A87855
:104CC00001280AD0A878022807D0A878032804D0A1
:104CD000BA210FF27840FCF78DFCA87806432878BB
:104CE000000631D02068824600208046B8F1080FC7
:104CF00028D2012010FA08F08146288819EA00001D
:104D000007004F451BD15FEA880081460F2010FA4B
:104D100009F083463AEA0B0A16FA09F050EA0A0A41
:104D2000E878282804D1012010FA08F0606106E034
:104D3000E878482803D1012010FA08F0206118F122
:104D40000108D3E7C4F800A028884FF48071884296
:104D500033D36068824600208046B8F1080F2AD21B
:104D6000012018F1080188408146288819EA0000CE
:104D700007004F451CD15FEA880081460F2010FADA
:104D800009F083463AEA0B0A16FA09F050EA0A0AD1
:104D9000E878282804D1012018F1080188406061D2
:104DA000E878482804D1012018F1080188402061E2
:104DB00018F10108D1E7C4F804A0BDE8F18F70B57F
:104DC00004000D000026DFF8900184421DD0DFF8BA
:104DD0008C01844219D0DFF88801844215D0DFF8B5
:104DE0008401844211D0DFF8800184420DD0DFF8C5
:104DF0007C01844209D0DFF8B803844205D040F238
:104E00001D110FF24830FCF7F5FBADB2012D3CD07F
:104E1000ADB2022D39D0ADB2042D36D0ADB2082DD1
:104E200033D0ADB2102D30D0ADB2202D2DD0ADB2DB
:104E3000402D2AD0ADB2802D27D04FF48070ADB276
:104E4000854222D04FF40070ADB285421DD0ADB284
:104E5000B5F5806F19D0ADB2B5F5006F15D0ADB214
:104E6000B5F5805F11D0ADB2B5F5005F0DD0ADB234
:104E7000B5F5804F09D0ADB2B5F5004F05D04FF470
:104E80008F710FF2C820FCF7B5FBA06880B22842F2
:104E900002D00120060001E0002006003000C0B270
:104EA00070BD38B504000D00DFF8AC0084421CD0A2
:104EB000DFF8A800844218D0DFF8A400844214D0A0
:104EC000DFF8A000844210D0DFF89C0084420CD0B0
:104ED0002648844209D0DFF8D802844205D04FF436
:104EE000B4710FF26820FCF785FBADB2002D05D13F
:104EF00040F269110FF25420FCF77CFBADB2256142
:104F000031BD38B504000D001348844218D0134851
:104F1000844215D01248844212D0124884420FD0E5
:104F2000114884420CD01148844209D0DFF8800235
:104F3000844205D04FF4BC710FF21020FCF75AFBED
:104F4000ADB2002D05D140F279110FF20020FCF72F
:104F500051FBADB2656131BD00080140000C01405C
:104F6000001001400014014000180140001C0140E5
:104F70002DE9F84304000D00002600275FF000082B
:104F80005FF00009012C00F08F80022C00F08C8073
:104F9000042C00F08980082C00F08680DFF81402D1
:104FA000844200F08180DFF8100284427CD0DFF878
:104FB0000C02844278D0DFF80802844274D0DFF813
:104FC0000402844270D0DFF8000284426CD0DFF823
:104FD000FC01844268D07E48844265D07D4884428A
:104FE00062D0B4F5805F5FD0B4F5EA1F5CD0B4F551
:104FF000EB1F59D0B4F5004F56D07748844253D0B8
:105000007648844250D0764884424DD075488442D8
:105010004AD07548844247D0B4F1201F44D0734829
:10502000844241D0724884423ED0724884423BD090
:105030007148844238D07148844235D070488442E7
:1050400032D0B4F5011F2FD06E4884422CD06E4868
:10505000844229D06D48844226D06D48844223D0B2
:105060006C48844220D06C4884421DD06B488442F6
:105070001AD06B48844217D06A48844214D06A48D8
:10508000844211D0694884420ED0694884420BD0D2
:105090006848844208D06848844205D040F22721FD
:1050A0000FF2A800FCF7A6FAEDB2002D08D0EDB281
:1050B000012D05D04FF40A710FF29000FCF79AFA17
:1050C000002C03D55D480068804602E05C4800681B
:1050D0008046C4F303408146A0B2060014F4401099
:1050E000B0F5401F08D138F070685548006830F0BE
:1050F00070605349086013E0E00208D5032010FAFD
:1051000009F0070038EA070858F0706808E0600DF9
:10511000C0B2000116FA00F038EA000858F07068D2
:10512000EDB2002D06D0600DC0B2000116FA00F0FD
:1051300050EA0808002C03D54048C0F8008002E07F
:105140003F48C0F80080BDE8F18300005A3A5CB0E7
:10515000D9B6C8D4C65C61B9A4D7F7CEC4B5B55C1E
:10516000B2E2BFD8322E305C534F555243455C7784
:1051700070613930302D61692056302E355C5354C2
:105180004D3332463130785F5374645065726970C4
:10519000685F4472697665725C7372635C73746D88
:1051A0003332663130785F6770696F2E63000000BC
:1051B00000200140100014003000140040001600D0
:1051C000C0001600000118000002180000031800BB
:1051D00000081A00000C1A00010020000200200044
:1051E00004002000080020001000200040002000E3
:1051F00000013000000230000004300000102000E8
:1052000000202000010000800200008004000080D7
:105210000800008010000080200000804000008016
:1052200080000080000100800002008000040080F7
:105230000008008000100080002000801C00014059
:105240000400014010B50400B4F5E06F11D0B4F5CE
:10525000C06F0ED0B4F5A06F0BD0B4F5806F08D03E
:105260004FF44070844204D062210FF20810FCF722
:10527000C1F9384820433849086010BDF8B504002A
:10528000002500260F27E078002807D0E0780128C5
:1052900004D074210FF2DC00FCF7ACF96078102820
:1052A00004D375210FF2CC00FCF7A4F9A0781028E4
:1052B00004D376210FF2BC00FCF79CF9E0780028BB
:1052C00020D02548006810F4E060D0F5E060000AC6
:1052D0000500D5F104000600EF406078B0400500FD
:1052E000A078384005432D0120781C49455420788A
:1052F00040111B490122237813F01F039A4041F803
:10530000202009E02078401116490122237813F06B
:105310001F039A4041F82020F1BD38B504000D006C
:10532000B4F1005F07D0B4F1006F04D09D210FF2FB
:105330004400FCF75FF90C48854204D39E210FF22C
:105340003400FCF757F90948284020430849086011
:1053500031BD00000000FA050CED00E000E400E0C3
:1053600000E100E080E100E0FFFF0F0080FFFF1F91
:1053700008ED00E05A3A5CB0D9B6C8D4C65C61B951
:10538000A4D7F7CEC4B5B55CB2E2BFD8322E305C3C
:10539000534F555243455C7770613930302D616908
:1053A0002056302E355C53544D3332463130785FC1
:1053B0005374645065726970685F4472697665728F
:1053C0005C7372635C6D6973632E63002DE9F04753
:1053D00086B004000D00002600275FF000085FF093
:1053E00000095FF0000ADFF8D002844214D0DFF831
:1053F000CC02844210D0DFF8C80284420CD0DFF81F
:10540000C402844208D0DFF8C402844204D0B5212B
:10541000DFF8B402FCF7EEF82868002804D028680A
:10542000DFF8AC12884204D3B621DFF89C02FCF707
:10543000E1F8A888002808D0A888B0F5805F04D0DB
:10544000B721DFF88402FCF7D5F8E888002810D0EF
:10545000E888B0F5805F0CD0E888B0F5005F08D030
:10546000E888B0F5405F04D0B821DFF85C02FCF7B3
:10547000C1F8288900280CD02889B0F5806F08D0A1
:105480002889B0F5C06F04D0B921DFF83C02FCF7E1
:10549000B1F868894FF6F371084202D16889002893
:1054A00004D1BA21DFF82002FCF7A4F8A88900286B
:1054B00013D0A8894FF4807188420ED0A8894FF488
:1054C0000071884209D0A8894FF44071884204D005
:1054D000BB21DFF8F401FCF78DF8A889002810D073
:1054E000DFF8D40184420CD0DFF8D001844208D028
:1054F000DFF8CC01844204D0BF21DFF8CC01FCF7F7
:1055000079F8A246208A06004CF6FF700640E8882B
:1055100006432682A08906004EF6F3100640A888AE
:1055200029890843698908430643A681A08A0600A1
:105530004FF6FF400640A8890643A68200A8FCF764
:10554000F4F8DFF87401824502D10398070001E006
:1055500002980700A089000408D5192000FB07F075
:1055600029684900B0FBF1F0804607E0192000FBF4
:1055700007F029688900B0FBF1F080466420B8FB91
:10558000F0F0000106003009642101FB1080814623
:10559000A089000409D55FEAC90032306421B0FB5C
:1055A000F1F010F00700064308E05FEA091032301E
:1055B0006421B0FBF1F010F00F000643268106B025
:1055C000BDE8F08738B504000D00DFF8EC00844238
:1055D00015D0DFF8E800844211D0DFF8E4008442FF
:1055E0000DD0DFF8E000844209D0DFF85003844298
:1055F00005D040F25F110FF2A810FBF7FBFFEDB2F0
:10560000002D08D0EDB2012D05D04FF4B0710FF28E
:105610009010FBF7EFFFEDB2002D04D0A08950F4FD
:105620000050A08104E0A0894DF6FF710840A081E0
:1056300031BD70B504000D001600DFF87C00844217
:1056400015D0DFF87800844211D0DFF8740084426E
:105650000DD0DFF87000844209D0DFF8E002844208
:1056600005D04FF4E0710FF23810FBF7C3FF4FF68F
:105670003F70054202D1ADB2002D05D140F2C111FB
:105680000FF21C10FBF7B6FFF6B2002E08D0F6B2F0
:10569000012E05D04FF4E1710FF20410FBF7AAFFC1
:1056A000F6B2002E03D0A08A2843A08202E0A08A8E
:1056B000A843A08270BD00000038014000440040B3
:1056C00000480040004C0040A05700080050004037
:1056D00021AA440070B504000D000026DFF8600226
:1056E000844215D0DFF85C02844211D0DFF8480212
:1056F00084420DD0DFF85002844209D0DFF83C022A
:10570000844205D040F26B310FF29400FBF772FF38
:10571000ADB2012D24D0ADB2802D21D0ADB2402D3F
:105720001ED0ADB2202D1BD0ADB2102D18D04FF42D
:105730008070ADB2854213D04FF40070ADB2854297
:105740000ED0ADB2082D0BD0ADB2042D08D0ADB245
:10575000022D05D04FF45B710FF24400FBF74AFFB6
:105760004FF40070ADB285420ED1754884420BD023
:105770007448844208D07048844205D04FF45C716C
:105780000FF21C00FBF736FF2088284202D00120D0
:10579000060001E0002006003000C0B270BD00002D
:1057A0005A3A5CB0D9B6C8D4C65C61B9A4D7F7CEB2
:1057B000C4B5B55CB2E2BFD8322E305C534F5552FF
:1057C00043455C7770613930302D61692056302E49
:1057D000355C53544D3332463130785F53746450E6
:1057E00065726970685F4472697665725C73726332
:1057F0005C73746D3332663130785F7573617274C7
:105800002E6300002DE9F84304000D000026002758
:105810005FF000085FF000094948844211D0494810
:1058200084420ED0444884420BD04748844208D07A
:105830004248844205D040F2BE31AFF29C00FBF7F3
:10584000D9FEADB2282D32D040F22770ADB28542DC
:105850002DD040F22660ADB2854228D040F22550CE
:10586000ADB2854223D040F22440ADB285421ED075
:1058700040F64600ADB2854219D040F66A10ADB28E
:10588000854214D04FF45870ADB285420FD04FF41A
:105890001870ADB285420AD04FF4B070ADB28542F7
:1058A00005D040F2BF31AFF20810FBF7A3FE40F67F
:1058B0006A10ADB285420ED1214884420BD02148F6
:1058C000844208D01C48844205D040F2C331AFF274
:1058D0003010FBF78FFE2800C0B24009C0B28046EE
:1058E000ADB215F01F000700012010FA07F7B8F15C
:1058F000010F02D1A089074007E0B8F1020F02D1E1
:10590000208A074001E0A08A0740ADB2280A80B291
:105910000600012010FA06F620880640002F04D069
:10592000002E02D00120814601E000208146484639
:10593000C0B2BDE8F28300000048004000500040C3
:105940000038014000440040004C004010B5040005
:10595000E4B2002C07D0E4B2012C04D07E210FF277
:105960001400FBF747FE0248E4B2046010BD0000DB
:1059700020000E425A3A5CB0D9B6C8D4C65C61B9B0
:10598000A4D7F7CEC4B5B55CB2E2BFD8322E305C36
:10599000534F555243455C7770613930302D616902
:1059A0002056302E355C53544D3332463130785FBB
:1059B0005374645065726970685F44726976657289
:1059C0005C7372635C73746D3332663130785F7010
:1059D00077722E63000000002C48008850F0100001
:1059E0002A4908807047294800884FF6EF7108401F
:1059F0002649088070470020254909880800254964
:105A0000098889B280B250EA0140704710B504009D
:105A1000FFF7E2FF200C1F4908801D480480FFF7B4
:105A2000E2FF10BD10B50400B4F5801F04D3A2211D
:105A30000FF27400FBF7DEFDFFF7CEFF200C10F035
:105A40000F001549088015480480FFF7CCFF10BDF2
:105A500000201349098889B211F00F0109040800D8
:105A60001049098889B208437047084800888006B1
:105A7000FBD57047054800884FF6F7710840034989
:105A80000880024800880007FBD5704704280040C2
:105A90001C28004018280040082800400C2800401E
:105AA00010280040142800405A3A5CB0D9B6C8D437
:105AB000C65C61B9A4D7F7CEC4B5B55CB2E2BFD8B5
:105AC000322E305C534F555243455C77706139300C
:105AD000302D61692056302E355C53544D3332469B
